{
	"data": {
		"bytecode": {
			"linkReferences": {},
			"object": "60c060405234801562000010575f80fd5b506040516200586538038062005865833981810160405281019062000036919062000720565b868686868633858581600390816200004f919062000a78565b50806004908162000061919062000a78565b5050505f73ffffffffffffffffffffffffffffffffffffffff168173ffffffffffffffffffffffffffffffffffffffff1603620000d7575f6040517f1e4fbdf7000000000000000000000000000000000000000000000000000000008152600401620000ce919062000b6d565b60405180910390fd5b620000e8816200019c60201b60201c565b508260089080519060200190620001019291906200025f565b5081600990805190602001906200011a929190620002eb565b508060078190555050505050508173ffffffffffffffffffffffffffffffffffffffff1660808173ffffffffffffffffffffffffffffffffffffffff16815250508073ffffffffffffffffffffffffffffffffffffffff1660a08173ffffffffffffffffffffffffffffffffffffffff16815250505050505050505062000b88565b5f60055f9054906101000a900473ffffffffffffffffffffffffffffffffffffffff1690508160055f6101000a81548173ffffffffffffffffffffffffffffffffffffffff021916908373ffffffffffffffffffffffffffffffffffffffff1602179055508173ffffffffffffffffffffffffffffffffffffffff168173ffffffffffffffffffffffffffffffffffffffff167f8be0079c531659141344cd1fd0a4f28419497f9722a3daafe3b4186f6b6457e060405160405180910390a35050565b828054828255905f5260205f20908101928215620002d8579160200282015b82811115620002d7578251825f6101000a81548173ffffffffffffffffffffffffffffffffffffffff021916908373ffffffffffffffffffffffffffffffffffffffff160217905550916020019190600101906200027e565b5b509050620002e791906200033b565b5090565b828054828255905f5260205f2090810192821562000328579160200282015b82811115620003275782518255916020019190600101906200030a565b5b5090506200033791906200033b565b5090565b5b8082111562000354575f815f9055506001016200033c565b5090565b5f604051905090565b5f80fd5b5f80fd5b5f80fd5b5f80fd5b5f601f19601f8301169050919050565b7f4e487b71000000000000000000000000000000000000000000000000000000005f52604160045260245ffd5b620003b98262000371565b810181811067ffffffffffffffff82111715620003db57620003da62000381565b5b80604052505050565b5f620003ef62000358565b9050620003fd8282620003ae565b919050565b5f67ffffffffffffffff8211156200041f576200041e62000381565b5b6200042a8262000371565b9050602081019050919050565b5f5b838110156200045657808201518184015260208101905062000439565b5f8484015250505050565b5f62000477620004718462000402565b620003e4565b9050828152602081018484840111156200049657620004956200036d565b5b620004a384828562000437565b509392505050565b5f82601f830112620004c257620004c162000369565b5b8151620004d484826020860162000461565b91505092915050565b5f67ffffffffffffffff821115620004fa57620004f962000381565b5b602082029050602081019050919050565b5f80fd5b5f73ffffffffffffffffffffffffffffffffffffffff82169050919050565b5f6200053a826200050f565b9050919050565b6200054c816200052e565b811462000557575f80fd5b50565b5f815190506200056a8162000541565b92915050565b5f620005866200058084620004dd565b620003e4565b90508083825260208201905060208402830185811115620005ac57620005ab6200050b565b5b835b81811015620005d95780620005c488826200055a565b845260208401935050602081019050620005ae565b5050509392505050565b5f82601f830112620005fa57620005f962000369565b5b81516200060c84826020860162000570565b91505092915050565b5f67ffffffffffffffff82111562000632576200063162000381565b5b602082029050602081019050919050565b5f819050919050565b620006578162000643565b811462000662575f80fd5b50565b5f8151905062000675816200064c565b92915050565b5f620006916200068b8462000615565b620003e4565b90508083825260208201905060208402830185811115620006b757620006b66200050b565b5b835b81811015620006e45780620006cf888262000665565b845260208401935050602081019050620006b9565b5050509392505050565b5f82601f83011262000705576200070462000369565b5b8151620007178482602086016200067b565b91505092915050565b5f805f805f805f60e0888a0312156200073e576200073d62000361565b5b5f88015167ffffffffffffffff8111156200075e576200075d62000365565b5b6200076c8a828b01620004ab565b975050602088015167ffffffffffffffff81111562000790576200078f62000365565b5b6200079e8a828b01620004ab565b965050604088015167ffffffffffffffff811115620007c257620007c162000365565b5b620007d08a828b01620005e3565b955050606088015167ffffffffffffffff811115620007f457620007f362000365565b5b620008028a828b01620006ee565b9450506080620008158a828b0162000665565b93505060a0620008288a828b016200055a565b92505060c06200083b8a828b016200055a565b91505092959891949750929550565b5f81519050919050565b7f4e487b71000000000000000000000000000000000000000000000000000000005f52602260045260245ffd5b5f60028204905060018216806200089957607f821691505b602082108103620008af57620008ae62000854565b5b50919050565b5f819050815f5260205f209050919050565b5f6020601f8301049050919050565b5f82821b905092915050565b5f60088302620009137fffffffffffffffffffffffffffffffffffffffffffffffffffffffffffffffff82620008d6565b6200091f8683620008d6565b95508019841693508086168417925050509392505050565b5f819050919050565b5f620009606200095a620009548462000643565b62000937565b62000643565b9050919050565b5f819050919050565b6200097b8362000940565b620009936200098a8262000967565b848454620008e2565b825550505050565b5f90565b620009a96200099b565b620009b681848462000970565b505050565b5b81811015620009dd57620009d15f826200099f565b600181019050620009bc565b5050565b601f82111562000a2c57620009f681620008b5565b62000a0184620008c7565b8101602085101562000a11578190505b62000a2962000a2085620008c7565b830182620009bb565b50505b505050565b5f82821c905092915050565b5f62000a4e5f198460080262000a31565b1980831691505092915050565b5f62000a68838362000a3d565b9150826002028217905092915050565b62000a83826200084a565b67ffffffffffffffff81111562000a9f5762000a9e62000381565b5b62000aab825462000881565b62000ab8828285620009e1565b5f60209050601f83116001811462000aee575f841562000ad9578287015190505b62000ae5858262000a5b565b86555062000b54565b601f19841662000afe86620008b5565b5f5b8281101562000b275784890151825560018201915060208501945060208101905062000b00565b8683101562000b47578489015162000b43601f89168262000a3d565b8355505b6001600288020188555050505b505050505050565b62000b67816200052e565b82525050565b5f60208201905062000b825f83018462000b5c565b92915050565b60805160a051614c5962000c0c5f395f8181610e0a01528181610ed001528181610f6c015281816111840152818161198601528181611a0601528181611a7b01528181611b170152611d0001525f8181610bf2015281816110290152818161164101528181611bb101528181611eee0152818161264d01526126d30152614c595ff3fe6080604052600436106101db575f3560e01c806370a0823111610101578063a9059cbb11610094578063c31c9c0711610063578063c31c9c071461067e578063ce7ddbef146106a8578063dd62ed3e146106e4578063f2fde38b14610720576101e2565b8063a9059cbb146105d4578063aa6ca80814610610578063b0acd84b1461063a578063b9b8c24614610656576101e2565b806395d89b41116100d057806395d89b4114610530578063965fa21e1461055a578063a0398af314610584578063a553618b146105ac576101e2565b806370a082311461048a578063715018a6146104c65780638423f320146104dc5780638da5cb5b14610506576101e2565b80631e9a6950116101795780633fc8cef3116101485780633fc8cef3146103e65780634f4e0921146104105780636dd84ac1146104385780636ed93dd014610460576101e2565b80631e9a69501461033057806322b1c0271461035857806323b872dd14610380578063313ce567146103bc576101e2565b806306fdde03116101b557806306fdde0314610276578063095ea7b3146102a057806318160ddd146102dc5780631c1f301414610306576101e2565b8063017e7e58146101e657806301e9d7571461021057806305def3471461023a576101e2565b366101e257005b5f80fd5b3480156101f1575f80fd5b506101fa610748565b6040516102079190613ab1565b60405180910390f35b34801561021b575f80fd5b5061022461076d565b6040516102319190613ae2565b60405180910390f35b348015610245575f80fd5b50610260600480360381019061025b9190613b36565b610773565b60405161026d9190613c18565b60405180910390f35b348015610281575f80fd5b5061028a610944565b6040516102979190613cc2565b60405180910390f35b3480156102ab575f80fd5b506102c660048036038101906102c19190613d0c565b6109d4565b6040516102d39190613d64565b60405180910390f35b3480156102e7575f80fd5b506102f06109f6565b6040516102fd9190613ae2565b60405180910390f35b348015610311575f80fd5b5061031a6109ff565b6040516103279190613d9a565b60405180910390f35b34801561033b575f80fd5b5061035660048036038101906103519190613d0c565b610a14565b005b348015610363575f80fd5b5061037e60048036038101906103799190613fc1565b610a23565b005b34801561038b575f80fd5b506103a660048036038101906103a19190614054565b610dd2565b6040516103b39190613d64565b60405180910390f35b3480156103c7575f80fd5b506103d0610e00565b6040516103dd91906140bf565b60405180910390f35b3480156103f1575f80fd5b506103fa610e08565b6040516104079190613ab1565b60405180910390f35b34801561041b575f80fd5b50610436600480360381019061043191906140d8565b610e2c565b005b348015610443575f80fd5b5061045e60048036038101906104599190613b36565b611256565b005b34801561046b575f80fd5b506104746112a3565b6040516104819190613d9a565b60405180910390f35b348015610495575f80fd5b506104b060048036038101906104ab9190614158565b6112aa565b6040516104bd9190613ae2565b60405180910390f35b3480156104d1575f80fd5b506104da6112ef565b005b3480156104e7575f80fd5b506104f0611302565b6040516104fd9190613c18565b60405180910390f35b348015610511575f80fd5b5061051a611358565b6040516105279190613ab1565b60405180910390f35b34801561053b575f80fd5b50610544611380565b6040516105519190613cc2565b60405180910390f35b348015610565575f80fd5b5061056e611410565b60405161057b9190613d9a565b60405180910390f35b34801561058f575f80fd5b506105aa60048036038101906105a59190613fc1565b611425565b005b3480156105b7575f80fd5b506105d260048036038101906105cd91906141ad565b6117f6565b005b3480156105df575f80fd5b506105fa60048036038101906105f59190613d0c565b611881565b6040516106079190613d64565b60405180910390f35b34801561061b575f80fd5b506106246118a3565b60405161063191906142b4565b60405180910390f35b610654600480360381019061064f91906142d4565b61192e565b005b348015610661575f80fd5b5061067c60048036038101906106779190613d0c565b611e18565b005b348015610689575f80fd5b50610692611eec565b60405161069f9190613ab1565b60405180910390f35b3480156106b3575f80fd5b506106ce60048036038101906106c99190613b36565b611f10565b6040516106db9190613c18565b60405180910390f35b3480156106ef575f80fd5b5061070a60048036038101906107059190614340565b6120e1565b6040516107179190613ae2565b60405180910390f35b34801561072b575f80fd5b5061074660048036038101906107419190614158565b612163565b005b60065f9054906101000a900473ffffffffffffffffffffffffffffffffffffffff1681565b60075481565b60605f61077e6109f6565b905060088054905067ffffffffffffffff81111561079f5761079e613db7565b5b6040519080825280602002602001820160405280156107cd5781602001602082028036833780820191505090505b5091505f5b60088054905081101561093d575f8211156108d7575f600882815481106107fc576107fb61437e565b5b905f5260205f20015f9054906101000a900473ffffffffffffffffffffffffffffffffffffffff1673ffffffffffffffffffffffffffffffffffffffff166370a08231306040518263ffffffff1660e01b815260040161085c9190613ab1565b602060405180830381865afa158015610877573d5f803e3d5ffd5b505050506040513d601f19601f8201168201806040525081019061089b91906143bf565b90506108b28584836121e79092919063ffffffff16565b8483815181106108c5576108c461437e565b5b60200260200101818152505050610930565b610910600982815481106108ee576108ed61437e565b5b905f5260205f200154670de0b6b3a7640000866121e79092919063ffffffff16565b8382815181106109235761092261437e565b5b6020026020010181815250505b80806001019150506107d2565b5050919050565b60606003805461095390614417565b80601f016020809104026020016040519081016040528092919081815260200182805461097f90614417565b80156109ca5780601f106109a1576101008083540402835291602001916109ca565b820191905f5260205f20905b8154815290600101906020018083116109ad57829003601f168201915b5050505050905090565b5f806109de61224f565b90506109eb818585612256565b600191505092915050565b5f600254905090565b600660149054906101000a900462ffffff1681565b610a1e8282612268565b505050565b5f610a2c6118a3565b90508151815114610a69576040517f9d89020a00000000000000000000000000000000000000000000000000000000815260040160405180910390fd5b5f610a7385610773565b9050610aa23330868a73ffffffffffffffffffffffffffffffffffffffff1661258b909392919063ffffffff16565b610aab8761260d565b5f805f90505b8351811015610d2f575f838281518110610ace57610acd61437e565b5b60200260200101510315610d2257610b1b848281518110610af257610af161437e565b5b60200260200101518a878481518110610b0e57610b0d61437e565b5b602002602001015161273d565b610b7657848181518110610b3257610b3161437e565b5b60200260200101516040517f5c379223000000000000000000000000000000000000000000000000000000008152600401610b6d9190614499565b60405180910390fd5b8873ffffffffffffffffffffffffffffffffffffffff16848281518110610ba057610b9f61437e565b5b602002602001015173ffffffffffffffffffffffffffffffffffffffff1603610bf057828181518110610bd657610bd561437e565b5b602002602001015182610be991906144e6565b9150610d21565b7f000000000000000000000000000000000000000000000000000000000000000073ffffffffffffffffffffffffffffffffffffffff166309b813466040518060800160405280888581518110610c4a57610c4961437e565b5b602002602001015181526020013073ffffffffffffffffffffffffffffffffffffffff168152602001868581518110610c8657610c8561437e565b5b602002602001015181526020017fffffffffffffffffffffffffffffffffffffffffffffffffffffffffffffffff8152506040518263ffffffff1660e01b8152600401610cd391906145c1565b6020604051808303815f875af1158015610cef573d5f803e3d5ffd5b505050506040513d601f19601f82011682018060405250810190610d1391906143bf565b82610d1e91906144e6565b91505b5b8080600101915050610ab1565b505f8186610d3d91906145e1565b9050610d6a33828b73ffffffffffffffffffffffffffffffffffffffff166128cb9092919063ffffffff16565b610d74888861294a565b508873ffffffffffffffffffffffffffffffffffffffff167fd58b185d00630065159db1d6df5fea816128b29100ce9dbc56dd6508e380aa9d898985604051610dbf93929190614614565b60405180910390a2505050505050505050565b5f80610ddc61224f565b9050610de9858285612a7d565b610df4858585612b0f565b60019150509392505050565b5f6012905090565b7f000000000000000000000000000000000000000000000000000000000000000081565b5f610e356118a3565b90508151815114610e72576040517f9d89020a00000000000000000000000000000000000000000000000000000000815260040160405180910390fd5b5f610e7d3086612268565b90505f805f90505b8351811015611147575f838281518110610ea257610ea161437e565b5b6020026020010151031561113a57610f0f848281518110610ec657610ec561437e565b5b60200260200101517f0000000000000000000000000000000000000000000000000000000000000000878481518110610f0257610f0161437e565b5b602002602001015161273d565b610f6a57848181518110610f2657610f2561437e565b5b60200260200101516040517f5c379223000000000000000000000000000000000000000000000000000000008152600401610f619190614499565b60405180910390fd5b7f000000000000000000000000000000000000000000000000000000000000000073ffffffffffffffffffffffffffffffffffffffff16848281518110610fb457610fb361437e565b5b602002602001015173ffffffffffffffffffffffffffffffffffffffff160361100457828181518110610fea57610fe961437e565b5b602002602001015182610ffd91906144e6565b9150611139565b61102784828151811061101a5761101961437e565b5b602002602001015161260d565b7f000000000000000000000000000000000000000000000000000000000000000073ffffffffffffffffffffffffffffffffffffffff1663b858183f60405180608001604052808885815181106110815761108061437e565b5b602002602001015181526020013073ffffffffffffffffffffffffffffffffffffffff1681526020018685815181106110bd576110bc61437e565b5b6020026020010151815260200160018152506040518263ffffffff1660e01b81526004016110eb91906146a9565b6020604051808303815f875af1158015611107573d5f803e3d5ffd5b505050506040513d601f19601f8201168201806040525081019061112b91906143bf565b8261113691906144e6565b91505b5b8080600101915050610e85565b5084811015611182576040517f93bce7b300000000000000000000000000000000000000000000000000000000815260040160405180910390fd5b7f000000000000000000000000000000000000000000000000000000000000000073ffffffffffffffffffffffffffffffffffffffff16632e1a7d4d826040518263ffffffff1660e01b81526004016111db9190613ae2565b5f604051808303815f87803b1580156111f2575f80fd5b505af1158015611204573d5f803e3d5ffd5b505050506112128782612bff565b7f786875e1cfb7304a0cb0e3672e281b2d4890f432fdd4c07fc44d687612d5296387878360405161124593929190614614565b60405180910390a150505050505050565b61125e612cf1565b7fa9d547bad523b2016561d73c8b6f0de927b53e678d07b339173ea7b469ec8969600754826040516112919291906146c9565b60405180910390a18060078190555050565b620f424081565b5f805f8373ffffffffffffffffffffffffffffffffffffffff1673ffffffffffffffffffffffffffffffffffffffff1681526020019081526020015f20549050919050565b6112f7612cf1565b6113005f612d78565b565b6060600980548060200260200160405190810160405280929190818152602001828054801561134e57602002820191905f5260205f20905b81548152602001906001019080831161133a575b5050505050905090565b5f60055f9054906101000a900473ffffffffffffffffffffffffffffffffffffffff16905090565b60606004805461138f90614417565b80601f01602080910402602001604051908101604052809291908181526020018280546113bb90614417565b80156114065780601f106113dd57610100808354040283529160200191611406565b820191905f5260205f20905b8154815290600101906020018083116113e957829003601f168201915b5050505050905090565b600660179054906101000a900462ffffff1681565b5f61142e6118a3565b9050815181511461146b576040517f9d89020a00000000000000000000000000000000000000000000000000000000815260040160405180910390fd5b5f6114763086612268565b90505f805f90505b835181101561175f575f83828151811061149b5761149a61437e565b5b60200260200101510315611752576114e88482815181106114bf576114be61437e565b5b60200260200101518a8784815181106114db576114da61437e565b5b602002602001015161273d565b611543578481815181106114ff576114fe61437e565b5b60200260200101516040517f5c37922300000000000000000000000000000000000000000000000000000000815260040161153a9190614499565b60405180910390fd5b8873ffffffffffffffffffffffffffffffffffffffff1684828151811061156d5761156c61437e565b5b602002602001015173ffffffffffffffffffffffffffffffffffffffff160361161c576115ef888483815181106115a7576115a661437e565b5b60200260200101518684815181106115c2576115c161437e565b5b602002602001015173ffffffffffffffffffffffffffffffffffffffff166128cb9092919063ffffffff16565b8281815181106116025761160161437e565b5b60200260200101518261161591906144e6565b9150611751565b61163f8482815181106116325761163161437e565b5b602002602001015161260d565b7f000000000000000000000000000000000000000000000000000000000000000073ffffffffffffffffffffffffffffffffffffffff1663b858183f60405180608001604052808885815181106116995761169861437e565b5b602002602001015181526020018b73ffffffffffffffffffffffffffffffffffffffff1681526020018685815181106116d5576116d461437e565b5b6020026020010151815260200160018152506040518263ffffffff1660e01b815260040161170391906146a9565b6020604051808303815f875af115801561171f573d5f803e3d5ffd5b505050506040513d601f19601f8201168201806040525081019061174391906143bf565b8261174e91906144e6565b91505b5b808060010191505061147e565b508481101561179a576040517f93bce7b300000000000000000000000000000000000000000000000000000000815260040160405180910390fd5b8773ffffffffffffffffffffffffffffffffffffffff167f19b500572e111e1efaa6d79e923346af4412022ba47520af0af63701618fa7388888846040516117e493929190614614565b60405180910390a25050505050505050565b6117fe612cf1565b8260065f6101000a81548173ffffffffffffffffffffffffffffffffffffffff021916908373ffffffffffffffffffffffffffffffffffffffff16021790555081600660146101000a81548162ffffff021916908362ffffff16021790555080600660176101000a81548162ffffff021916908362ffffff160217905550505050565b5f8061188b61224f565b9050611898818585612b0f565b600191505092915050565b6060600880548060200260200160405190810160405280929190818152602001828054801561192457602002820191905f5260205f20905b815f9054906101000a900473ffffffffffffffffffffffffffffffffffffffff1673ffffffffffffffffffffffffffffffffffffffff16815260200190600101908083116118db575b5050505050905090565b5f6119376118a3565b90508151815114611974576040517f9d89020a00000000000000000000000000000000000000000000000000000000815260040160405180910390fd5b5f61197e84610773565b90505f3490507f000000000000000000000000000000000000000000000000000000000000000073ffffffffffffffffffffffffffffffffffffffff1663d0e30db0826040518263ffffffff1660e01b81526004015f604051808303818588803b1580156119ea575f80fd5b505af11580156119fc573d5f803e3d5ffd5b5050505050611a2a7f000000000000000000000000000000000000000000000000000000000000000061260d565b5f805f90505b8451811015611cee575f848281518110611a4d57611a4c61437e565b5b60200260200101510315611ce157611aba858281518110611a7157611a7061437e565b5b60200260200101517f0000000000000000000000000000000000000000000000000000000000000000888481518110611aad57611aac61437e565b5b602002602001015161273d565b611b1557858181518110611ad157611ad061437e565b5b60200260200101516040517f5c379223000000000000000000000000000000000000000000000000000000008152600401611b0c9190614499565b60405180910390fd5b7f000000000000000000000000000000000000000000000000000000000000000073ffffffffffffffffffffffffffffffffffffffff16858281518110611b5f57611b5e61437e565b5b602002602001015173ffffffffffffffffffffffffffffffffffffffff1603611baf57838181518110611b9557611b9461437e565b5b602002602001015182611ba891906144e6565b9150611ce0565b7f000000000000000000000000000000000000000000000000000000000000000073ffffffffffffffffffffffffffffffffffffffff166309b813466040518060800160405280898581518110611c0957611c0861437e565b5b602002602001015181526020013073ffffffffffffffffffffffffffffffffffffffff168152602001878581518110611c4557611c4461437e565b5b602002602001015181526020017fffffffffffffffffffffffffffffffffffffffffffffffffffffffffffffffff8152506040518263ffffffff1660e01b8152600401611c9291906145c1565b6020604051808303815f875af1158015611cae573d5f803e3d5ffd5b505050506040513d601f19601f82011682018060405250810190611cd291906143bf565b82611cdd91906144e6565b91505b5b8080600101915050611a30565b505f8183611cfc91906145e1565b90507f000000000000000000000000000000000000000000000000000000000000000073ffffffffffffffffffffffffffffffffffffffff16632e1a7d4d826040518263ffffffff1660e01b8152600401611d579190613ae2565b5f604051808303815f87803b158015611d6e575f80fd5b505af1158015611d80573d5f803e3d5ffd5b505050503373ffffffffffffffffffffffffffffffffffffffff166108fc8290811502906040515f60405180830381858888f19350505050158015611dc7573d5f803e3d5ffd5b50611dd2888861294a565b507f36e6d1f8e1c4f92e727ccf4a79ffccbf5c0ef99f5173e9db300980664a7ff984888884604051611e0693929190614614565b60405180910390a15050505050505050565b5f611e23838361294a565b90505f5b600880549050811015611ee6575f828281518110611e4857611e4761437e565b5b60200260200101511115611ed957611ed83330848481518110611e6e57611e6d61437e565b5b602002602001015160088581548110611e8a57611e8961437e565b5b905f5260205f20015f9054906101000a900473ffffffffffffffffffffffffffffffffffffffff1673ffffffffffffffffffffffffffffffffffffffff1661258b909392919063ffffffff16565b5b8080600101915050611e27565b50505050565b7f000000000000000000000000000000000000000000000000000000000000000081565b60605f600660179054906101000a900462ffffff1662ffffff161115611f78575f620f424062ffffff16600660179054906101000a900462ffffff1662ffffff1684611f5c91906146f0565b611f66919061475e565b90508083611f7491906145e1565b9250505b5f611f816109f6565b905060088054905067ffffffffffffffff811115611fa257611fa1613db7565b5b604051908082528060200260200182016040528015611fd05781602001602082028036833780820191505090505b5091505f5b6008805490508110156120da575f60088281548110611ff757611ff661437e565b5b905f5260205f20015f9054906101000a900473ffffffffffffffffffffffffffffffffffffffff1673ffffffffffffffffffffffffffffffffffffffff166370a08231306040518263ffffffff1660e01b81526004016120579190613ab1565b602060405180830381865afa158015612072573d5f803e3d5ffd5b505050506040513d601f19601f8201168201806040525081019061209691906143bf565b90506120ad858483612e3b9092919063ffffffff16565b8483815181106120c0576120bf61437e565b5b602002602001018181525050508080600101915050611fd5565b5050919050565b5f60015f8473ffffffffffffffffffffffffffffffffffffffff1673ffffffffffffffffffffffffffffffffffffffff1681526020019081526020015f205f8373ffffffffffffffffffffffffffffffffffffffff1673ffffffffffffffffffffffffffffffffffffffff1681526020019081526020015f2054905092915050565b61216b612cf1565b5f73ffffffffffffffffffffffffffffffffffffffff168173ffffffffffffffffffffffffffffffffffffffff16036121db575f6040517f1e4fbdf70000000000000000000000000000000000000000000000000000000081526004016121d29190613ab1565b60405180910390fd5b6121e481612d78565b50565b5f6121f3848484612e3b565b90505f828061220557612204614731565b5b8486091115612248577fffffffffffffffffffffffffffffffffffffffffffffffffffffffffffffffff8110612239575f80fd5b80806122449061478e565b9150505b9392505050565b5f33905090565b6122638383836001612fd1565b505050565b60605f6122736109f6565b905060088054905067ffffffffffffffff81111561229457612293613db7565b5b6040519080825280602002602001820160405280156122c25781602001602082028036833780820191505090505b5091506122cf33846131a0565b5f80600660179054906101000a900462ffffff1662ffffff16111561235157620f424062ffffff16600660179054906101000a900462ffffff1662ffffff168561231991906146f0565b612323919061475e565b905061235060065f9054906101000a900473ffffffffffffffffffffffffffffffffffffffff168261321f565b5b5f818561235e91906145e1565b90505f5b600880549050811015612542575f600882815481106123845761238361437e565b5b905f5260205f20015f9054906101000a900473ffffffffffffffffffffffffffffffffffffffff1673ffffffffffffffffffffffffffffffffffffffff166370a08231306040518263ffffffff1660e01b81526004016123e49190613ab1565b602060405180830381865afa1580156123ff573d5f803e3d5ffd5b505050506040513d601f19601f8201168201806040525081019061242391906143bf565b905061243a838683612e3b9092919063ffffffff16565b86838151811061244d5761244c61437e565b5b6020026020010181815250503073ffffffffffffffffffffffffffffffffffffffff168873ffffffffffffffffffffffffffffffffffffffff16141580156124ae57505f8683815181106124a4576124a361437e565b5b6020026020010151115b1561253457612533888784815181106124ca576124c961437e565b5b6020026020010151600885815481106124e6576124e561437e565b5b905f5260205f20015f9054906101000a900473ffffffffffffffffffffffffffffffffffffffff1673ffffffffffffffffffffffffffffffffffffffff166128cb9092919063ffffffff16565b5b508080600101915050612362565b507f626f4593f8e12e62b00d18bb3073d2cbe173b9415cdb7b39ed0609569b66f560338787858860405161257a9594939291906147d5565b60405180910390a150505092915050565b612607848573ffffffffffffffffffffffffffffffffffffffff166323b872dd8686866040516024016125c09392919061482d565b604051602081830303815290604052915060e01b6020820180517bffffffffffffffffffffffffffffffffffffffffffffffffffffffff838183161783525050505061329e565b50505050565b7fffffffffffffffffffffffffffffffffffffffffffffffffffffffffffffffff8173ffffffffffffffffffffffffffffffffffffffff1663dd62ed3e307f00000000000000000000000000000000000000000000000000000000000000006040518363ffffffff1660e01b8152600401612689929190614862565b602060405180830381865afa1580156126a4573d5f803e3d5ffd5b505050506040513d601f19601f820116820180604052508101906126c891906143bf565b101561273a576127397f00000000000000000000000000000000000000000000000000000000000000007fffffffffffffffffffffffffffffffffffffffffffffffffffffffffffffffff8373ffffffffffffffffffffffffffffffffffffffff166133399092919063ffffffff16565b5b50565b5f805f61274984613446565b50915091508473ffffffffffffffffffffffffffffffffffffffff168673ffffffffffffffffffffffffffffffffffffffff1603612813578573ffffffffffffffffffffffffffffffffffffffff168273ffffffffffffffffffffffffffffffffffffffff161480156127e757508573ffffffffffffffffffffffffffffffffffffffff168173ffffffffffffffffffffffffffffffffffffffff16145b80156127f957506127f78461349d565b155b15612809576001925050506128c4565b5f925050506128c4565b8573ffffffffffffffffffffffffffffffffffffffff168273ffffffffffffffffffffffffffffffffffffffff1614612850575f925050506128c4565b5b61285a8461349d565b1561286f57612868846134db565b9350612851565b61287884613446565b90915050809150508473ffffffffffffffffffffffffffffffffffffffff168173ffffffffffffffffffffffffffffffffffffffff16146128bd575f925050506128c4565b6001925050505b9392505050565b612945838473ffffffffffffffffffffffffffffffffffffffff1663a9059cbb85856040516024016128fe929190614889565b604051602081830303815290604052915060e01b6020820180517bffffffffffffffffffffffffffffffffffffffffffffffffffffffff838183161783525050505061329e565b505050565b6060600754821015612988576040517fdb49828e00000000000000000000000000000000000000000000000000000000815260040160405180910390fd5b61299182610773565b90505f80600660149054906101000a900462ffffff1662ffffff161115612a2e57620f424062ffffff16600660149054906101000a900462ffffff1662ffffff16846129dd91906146f0565b6129e7919061475e565b9050612a1460065f9054906101000a900473ffffffffffffffffffffffffffffffffffffffff168261321f565b612a29848285612a2491906145e1565b61321f565b612a39565b612a38848461321f565b5b7fa7f6b1cb38ac5fbcae3bbaa808d1f2aaad5c8da1dd8f1d960088082f8401395384848385604051612a6e94939291906148b0565b60405180910390a15092915050565b5f612a8884846120e1565b90507fffffffffffffffffffffffffffffffffffffffffffffffffffffffffffffffff8114612b095781811015612afa578281836040517ffb8f41b2000000000000000000000000000000000000000000000000000000008152600401612af193929190614614565b60405180910390fd5b612b0884848484035f612fd1565b5b50505050565b5f73ffffffffffffffffffffffffffffffffffffffff168373ffffffffffffffffffffffffffffffffffffffff1603612b7f575f6040517f96c6fd1e000000000000000000000000000000000000000000000000000000008152600401612b769190613ab1565b60405180910390fd5b5f73ffffffffffffffffffffffffffffffffffffffff168273ffffffffffffffffffffffffffffffffffffffff1603612bef575f6040517fec442f05000000000000000000000000000000000000000000000000000000008152600401612be69190613ab1565b60405180910390fd5b612bfa83838361351f565b505050565b5f8273ffffffffffffffffffffffffffffffffffffffff16825f67ffffffffffffffff811115612c3257612c31613db7565b5b6040519080825280601f01601f191660200182016040528015612c645781602001600182028036833780820191505090505b50604051612c729190614934565b5f6040518083038185875af1925050503d805f8114612cac576040519150601f19603f3d011682016040523d82523d5f602084013e612cb1565b606091505b5050905080612cec576040517f067ecc5f00000000000000000000000000000000000000000000000000000000815260040160405180910390fd5b505050565b612cf961224f565b73ffffffffffffffffffffffffffffffffffffffff16612d17611358565b73ffffffffffffffffffffffffffffffffffffffff1614612d7657612d3a61224f565b6040517f118cdaa7000000000000000000000000000000000000000000000000000000008152600401612d6d9190613ab1565b60405180910390fd5b565b5f60055f9054906101000a900473ffffffffffffffffffffffffffffffffffffffff1690508160055f6101000a81548173ffffffffffffffffffffffffffffffffffffffff021916908373ffffffffffffffffffffffffffffffffffffffff1602179055508173ffffffffffffffffffffffffffffffffffffffff168173ffffffffffffffffffffffffffffffffffffffff167f8be0079c531659141344cd1fd0a4f28419497f9722a3daafe3b4186f6b6457e060405160405180910390a35050565b5f805f80198587098587029250828110838203039150505f8103612e70575f8411612e64575f80fd5b83820492505050612fca565b808411612e7b575f80fd5b5f8486880990508281118203915080830392505f8560018719612e9e91906144e6565b16905080860495508084049350600181825f03040190508083612ec191906146f0565b841793505f6002876003612ed591906146f0565b1890508087612ee491906146f0565b6002612ef091906145e1565b81612efb91906146f0565b90508087612f0991906146f0565b6002612f1591906145e1565b81612f2091906146f0565b90508087612f2e91906146f0565b6002612f3a91906145e1565b81612f4591906146f0565b90508087612f5391906146f0565b6002612f5f91906145e1565b81612f6a91906146f0565b90508087612f7891906146f0565b6002612f8491906145e1565b81612f8f91906146f0565b90508087612f9d91906146f0565b6002612fa991906145e1565b81612fb491906146f0565b90508085612fc291906146f0565b955050505050505b9392505050565b5f73ffffffffffffffffffffffffffffffffffffffff168473ffffffffffffffffffffffffffffffffffffffff1603613041575f6040517fe602df050000000000000000000000000000000000000000000000000000000081526004016130389190613ab1565b60405180910390fd5b5f73ffffffffffffffffffffffffffffffffffffffff168373ffffffffffffffffffffffffffffffffffffffff16036130b1575f6040517f94280d620000000000000000000000000000000000000000000000000000000081526004016130a89190613ab1565b60405180910390fd5b8160015f8673ffffffffffffffffffffffffffffffffffffffff1673ffffffffffffffffffffffffffffffffffffffff1681526020019081526020015f205f8573ffffffffffffffffffffffffffffffffffffffff1673ffffffffffffffffffffffffffffffffffffffff1681526020019081526020015f2081905550801561319a578273ffffffffffffffffffffffffffffffffffffffff168473ffffffffffffffffffffffffffffffffffffffff167f8c5be1e5ebec7d5bd14f71427d1e84f3dd0314c0f7b2291e5b200ac8c7c3b925846040516131919190613ae2565b60405180910390a35b50505050565b5f73ffffffffffffffffffffffffffffffffffffffff168273ffffffffffffffffffffffffffffffffffffffff1603613210575f6040517f96c6fd1e0000000000000000000000000000000000000000000000000000000081526004016132079190613ab1565b60405180910390fd5b61321b825f8361351f565b5050565b5f73ffffffffffffffffffffffffffffffffffffffff168273ffffffffffffffffffffffffffffffffffffffff160361328f575f6040517fec442f050000000000000000000000000000000000000000000000000000000081526004016132869190613ab1565b60405180910390fd5b61329a5f838361351f565b5050565b5f8060205f8451602086015f885af1806132bd576040513d5f823e3d81fd5b3d92505f519150505f82146132d65760018114156132f1565b5f8473ffffffffffffffffffffffffffffffffffffffff163b145b1561333357836040517f5274afe700000000000000000000000000000000000000000000000000000000815260040161332a9190613ab1565b60405180910390fd5b50505050565b5f8373ffffffffffffffffffffffffffffffffffffffff1663095ea7b38484604051602401613369929190614889565b604051602081830303815290604052915060e01b6020820180517bffffffffffffffffffffffffffffffffffffffffffffffffffffffff838183161783525050505090506133b78482613738565b61344057613435848573ffffffffffffffffffffffffffffffffffffffff1663095ea7b3865f6040516024016133ee92919061498c565b604051602081830303815290604052915060e01b6020820180517bffffffffffffffffffffffffffffffffffffffffffffffffffffffff838183161783525050505061329e565b61343f848261329e565b5b50505050565b5f805f61345c5f8561379190919063ffffffff16565b925061347260148561385490919063ffffffff16565b90506134946003601461348591906144e6565b8561379190919063ffffffff16565b91509193909250565b5f600360146134ac91906144e6565b6014600360146134bc91906144e6565b6134c691906144e6565b6134d091906144e6565b825110159050919050565b6060613518600360146134ee91906144e6565b600360146134fc91906144e6565b845161350891906145e1565b846139089092919063ffffffff16565b9050919050565b5f73ffffffffffffffffffffffffffffffffffffffff168373ffffffffffffffffffffffffffffffffffffffff160361356f578060025f82825461356391906144e6565b9250508190555061363d565b5f805f8573ffffffffffffffffffffffffffffffffffffffff1673ffffffffffffffffffffffffffffffffffffffff1681526020019081526020015f20549050818110156135f8578381836040517fe450d38c0000000000000000000000000000000000000000000000000000000081526004016135ef93929190614614565b60405180910390fd5b8181035f808673ffffffffffffffffffffffffffffffffffffffff1673ffffffffffffffffffffffffffffffffffffffff1681526020019081526020015f2081905550505b5f73ffffffffffffffffffffffffffffffffffffffff168273ffffffffffffffffffffffffffffffffffffffff1603613684578060025f82825403925050819055506136ce565b805f808473ffffffffffffffffffffffffffffffffffffffff1673ffffffffffffffffffffffffffffffffffffffff1681526020019081526020015f205f82825401925050819055505b8173ffffffffffffffffffffffffffffffffffffffff168373ffffffffffffffffffffffffffffffffffffffff167fddf252ad1be2c89b69c2b068fc378daa952ba7f163c4a11628f55a4df523b3ef8360405161372b9190613ae2565b60405180910390a3505050565b5f805f8060205f8651602088015f8a5af192503d91505f51905082801561378657505f821461376a5760018114613785565b5f8673ffffffffffffffffffffffffffffffffffffffff163b115b5b935050505092915050565b5f816014836137a091906144e6565b10156137e1576040517f08c379a00000000000000000000000000000000000000000000000000000000081526004016137d8906149fd565b60405180910390fd5b6014826137ee91906144e6565b83511015613831576040517f08c379a000000000000000000000000000000000000000000000000000000000815260040161382890614a65565b60405180910390fd5b5f6c01000000000000000000000000836020860101510490508091505092915050565b5f8160038361386391906144e6565b10156138a4576040517f08c379a000000000000000000000000000000000000000000000000000000000815260040161389b90614acd565b60405180910390fd5b6003826138b191906144e6565b835110156138f4576040517f08c379a00000000000000000000000000000000000000000000000000000000081526004016138eb90614b35565b60405180910390fd5b5f8260038501015190508091505092915050565b606081601f8361391891906144e6565b1015613959576040517f08c379a000000000000000000000000000000000000000000000000000000000815260040161395090614b9d565b60405180910390fd5b82828461396691906144e6565b10156139a7576040517f08c379a000000000000000000000000000000000000000000000000000000000815260040161399e90614b9d565b60405180910390fd5b81836139b391906144e6565b845110156139f6576040517f08c379a00000000000000000000000000000000000000000000000000000000081526004016139ed90614c05565b60405180910390fd5b606082155f8114613a155760405191505f825260208201604052613a66565b6040519150601f8416801560200281840101858101878315602002848b0101015b81831015613a535780518352602083019250602081019050613a36565b50868552601f19601f8301166040525050505b50809150509392505050565b5f73ffffffffffffffffffffffffffffffffffffffff82169050919050565b5f613a9b82613a72565b9050919050565b613aab81613a91565b82525050565b5f602082019050613ac45f830184613aa2565b92915050565b5f819050919050565b613adc81613aca565b82525050565b5f602082019050613af55f830184613ad3565b92915050565b5f604051905090565b5f80fd5b5f80fd5b613b1581613aca565b8114613b1f575f80fd5b50565b5f81359050613b3081613b0c565b92915050565b5f60208284031215613b4b57613b4a613b04565b5b5f613b5884828501613b22565b91505092915050565b5f81519050919050565b5f82825260208201905092915050565b5f819050602082019050919050565b613b9381613aca565b82525050565b5f613ba48383613b8a565b60208301905092915050565b5f602082019050919050565b5f613bc682613b61565b613bd08185613b6b565b9350613bdb83613b7b565b805f5b83811015613c0b578151613bf28882613b99565b9750613bfd83613bb0565b925050600181019050613bde565b5085935050505092915050565b5f6020820190508181035f830152613c308184613bbc565b905092915050565b5f81519050919050565b5f82825260208201905092915050565b5f5b83811015613c6f578082015181840152602081019050613c54565b5f8484015250505050565b5f601f19601f8301169050919050565b5f613c9482613c38565b613c9e8185613c42565b9350613cae818560208601613c52565b613cb781613c7a565b840191505092915050565b5f6020820190508181035f830152613cda8184613c8a565b905092915050565b613ceb81613a91565b8114613cf5575f80fd5b50565b5f81359050613d0681613ce2565b92915050565b5f8060408385031215613d2257613d21613b04565b5b5f613d2f85828601613cf8565b9250506020613d4085828601613b22565b9150509250929050565b5f8115159050919050565b613d5e81613d4a565b82525050565b5f602082019050613d775f830184613d55565b92915050565b5f62ffffff82169050919050565b613d9481613d7d565b82525050565b5f602082019050613dad5f830184613d8b565b92915050565b5f80fd5b7f4e487b71000000000000000000000000000000000000000000000000000000005f52604160045260245ffd5b613ded82613c7a565b810181811067ffffffffffffffff82111715613e0c57613e0b613db7565b5b80604052505050565b5f613e1e613afb565b9050613e2a8282613de4565b919050565b5f67ffffffffffffffff821115613e4957613e48613db7565b5b602082029050602081019050919050565b5f80fd5b5f80fd5b5f67ffffffffffffffff821115613e7c57613e7b613db7565b5b613e8582613c7a565b9050602081019050919050565b828183375f83830152505050565b5f613eb2613ead84613e62565b613e15565b905082815260208101848484011115613ece57613ecd613e5e565b5b613ed9848285613e92565b509392505050565b5f82601f830112613ef557613ef4613db3565b5b8135613f05848260208601613ea0565b91505092915050565b5f613f20613f1b84613e2f565b613e15565b90508083825260208201905060208402830185811115613f4357613f42613e5a565b5b835b81811015613f8a57803567ffffffffffffffff811115613f6857613f67613db3565b5b808601613f758982613ee1565b85526020850194505050602081019050613f45565b5050509392505050565b5f82601f830112613fa857613fa7613db3565b5b8135613fb8848260208601613f0e565b91505092915050565b5f805f805f60a08688031215613fda57613fd9613b04565b5b5f613fe788828901613cf8565b9550506020613ff888828901613cf8565b945050604061400988828901613b22565b935050606061401a88828901613b22565b925050608086013567ffffffffffffffff81111561403b5761403a613b08565b5b61404788828901613f94565b9150509295509295909350565b5f805f6060848603121561406b5761406a613b04565b5b5f61407886828701613cf8565b935050602061408986828701613cf8565b925050604061409a86828701613b22565b9150509250925092565b5f60ff82169050919050565b6140b9816140a4565b82525050565b5f6020820190506140d25f8301846140b0565b92915050565b5f805f80608085870312156140f0576140ef613b04565b5b5f6140fd87828801613cf8565b945050602061410e87828801613b22565b935050604061411f87828801613b22565b925050606085013567ffffffffffffffff8111156141405761413f613b08565b5b61414c87828801613f94565b91505092959194509250565b5f6020828403121561416d5761416c613b04565b5b5f61417a84828501613cf8565b91505092915050565b61418c81613d7d565b8114614196575f80fd5b50565b5f813590506141a781614183565b92915050565b5f805f606084860312156141c4576141c3613b04565b5b5f6141d186828701613cf8565b93505060206141e286828701614199565b92505060406141f386828701614199565b9150509250925092565b5f81519050919050565b5f82825260208201905092915050565b5f819050602082019050919050565b61422f81613a91565b82525050565b5f6142408383614226565b60208301905092915050565b5f602082019050919050565b5f614262826141fd565b61426c8185614207565b935061427783614217565b805f5b838110156142a757815161428e8882614235565b97506142998361424c565b92505060018101905061427a565b5085935050505092915050565b5f6020820190508181035f8301526142cc8184614258565b905092915050565b5f805f606084860312156142eb576142ea613b04565b5b5f6142f886828701613cf8565b935050602061430986828701613b22565b925050604084013567ffffffffffffffff81111561432a57614329613b08565b5b61433686828701613f94565b9150509250925092565b5f806040838503121561435657614355613b04565b5b5f61436385828601613cf8565b925050602061437485828601613cf8565b9150509250929050565b7f4e487b71000000000000000000000000000000000000000000000000000000005f52603260045260245ffd5b5f815190506143b981613b0c565b92915050565b5f602082840312156143d4576143d3613b04565b5b5f6143e1848285016143ab565b91505092915050565b7f4e487b71000000000000000000000000000000000000000000000000000000005f52602260045260245ffd5b5f600282049050600182168061442e57607f821691505b602082108103614441576144406143ea565b5b50919050565b5f81519050919050565b5f82825260208201905092915050565b5f61446b82614447565b6144758185614451565b9350614485818560208601613c52565b61448e81613c7a565b840191505092915050565b5f6020820190508181035f8301526144b18184614461565b905092915050565b7f4e487b71000000000000000000000000000000000000000000000000000000005f52601160045260245ffd5b5f6144f082613aca565b91506144fb83613aca565b9250828201905080821115614513576145126144b9565b5b92915050565b5f82825260208201905092915050565b5f61453382614447565b61453d8185614519565b935061454d818560208601613c52565b61455681613c7a565b840191505092915050565b5f608083015f8301518482035f86015261457b8282614529565b91505060208301516145906020860182614226565b5060408301516145a36040860182613b8a565b5060608301516145b66060860182613b8a565b508091505092915050565b5f6020820190508181035f8301526145d98184614561565b905092915050565b5f6145eb82613aca565b91506145f683613aca565b925082820390508181111561460e5761460d6144b9565b5b92915050565b5f6060820190506146275f830186613aa2565b6146346020830185613ad3565b6146416040830184613ad3565b949350505050565b5f608083015f8301518482035f8601526146638282614529565b91505060208301516146786020860182614226565b50604083015161468b6040860182613b8a565b50606083015161469e6060860182613b8a565b508091505092915050565b5f6020820190508181035f8301526146c18184614649565b905092915050565b5f6040820190506146dc5f830185613ad3565b6146e96020830184613ad3565b9392505050565b5f6146fa82613aca565b915061470583613aca565b925082820261471381613aca565b9150828204841483151761472a576147296144b9565b5b5092915050565b7f4e487b71000000000000000000000000000000000000000000000000000000005f52601260045260245ffd5b5f61476882613aca565b915061477383613aca565b92508261478357614782614731565b5b828204905092915050565b5f61479882613aca565b91507fffffffffffffffffffffffffffffffffffffffffffffffffffffffffffffffff82036147ca576147c96144b9565b5b600182019050919050565b5f60a0820190506147e85f830188613aa2565b6147f56020830187613aa2565b6148026040830186613ad3565b61480f6060830185613ad3565b81810360808301526148218184613bbc565b90509695505050505050565b5f6060820190506148405f830186613aa2565b61484d6020830185613aa2565b61485a6040830184613ad3565b949350505050565b5f6040820190506148755f830185613aa2565b6148826020830184613aa2565b9392505050565b5f60408201905061489c5f830185613aa2565b6148a96020830184613ad3565b9392505050565b5f6080820190506148c35f830187613aa2565b6148d06020830186613ad3565b6148dd6040830185613ad3565b81810360608301526148ef8184613bbc565b905095945050505050565b5f81905092915050565b5f61490e82614447565b61491881856148fa565b9350614928818560208601613c52565b80840191505092915050565b5f61493f8284614904565b915081905092915050565b5f819050919050565b5f819050919050565b5f61497661497161496c8461494a565b614953565b613aca565b9050919050565b6149868161495c565b82525050565b5f60408201905061499f5f830185613aa2565b6149ac602083018461497d565b9392505050565b7f746f416464726573735f6f766572666c6f7700000000000000000000000000005f82015250565b5f6149e7601283613c42565b91506149f2826149b3565b602082019050919050565b5f6020820190508181035f830152614a14816149db565b9050919050565b7f746f416464726573735f6f75744f66426f756e647300000000000000000000005f82015250565b5f614a4f601583613c42565b9150614a5a82614a1b565b602082019050919050565b5f6020820190508181035f830152614a7c81614a43565b9050919050565b7f746f55696e7432345f6f766572666c6f770000000000000000000000000000005f82015250565b5f614ab7601183613c42565b9150614ac282614a83565b602082019050919050565b5f6020820190508181035f830152614ae481614aab565b9050919050565b7f746f55696e7432345f6f75744f66426f756e64730000000000000000000000005f82015250565b5f614b1f601483613c42565b9150614b2a82614aeb565b602082019050919050565b5f6020820190508181035f830152614b4c81614b13565b9050919050565b7f736c6963655f6f766572666c6f770000000000000000000000000000000000005f82015250565b5f614b87600e83613c42565b9150614b9282614b53565b602082019050919050565b5f6020820190508181035f830152614bb481614b7b565b9050919050565b7f736c6963655f6f75744f66426f756e64730000000000000000000000000000005f82015250565b5f614bef601183613c42565b9150614bfa82614bbb565b602082019050919050565b5f6020820190508181035f830152614c1c81614be3565b905091905056fea26469706673582212200d15df1f12963b3196dadd9148ce6c99bb6d5dbbc9f7296246edfd3a05fb570e64736f6c63430008180033",
			"opcodes": "PUSH1 0xC0 PUSH1 0x40 MSTORE CALLVALUE DUP1 ISZERO PUSH3 0x10 JUMPI PUSH0 DUP1 REVERT JUMPDEST POP PUSH1 0x40 MLOAD PUSH3 0x5865 CODESIZE SUB DUP1 PUSH3 0x5865 DUP4 CODECOPY DUP2 DUP2 ADD PUSH1 0x40 MSTORE DUP2 ADD SWAP1 PUSH3 0x36 SWAP2 SWAP1 PUSH3 0x720 JUMP JUMPDEST DUP7 DUP7 DUP7 DUP7 DUP7 CALLER DUP6 DUP6 DUP2 PUSH1 0x3 SWAP1 DUP2 PUSH3 0x4F SWAP2 SWAP1 PUSH3 0xA78 JUMP JUMPDEST POP DUP1 PUSH1 0x4 SWAP1 DUP2 PUSH3 0x61 SWAP2 SWAP1 PUSH3 0xA78 JUMP JUMPDEST POP POP POP PUSH0 PUSH20 0xFFFFFFFFFFFFFFFFFFFFFFFFFFFFFFFFFFFFFFFF AND DUP2 PUSH20 0xFFFFFFFFFFFFFFFFFFFFFFFFFFFFFFFFFFFFFFFF AND SUB PUSH3 0xD7 JUMPI PUSH0 PUSH1 0x40 MLOAD PUSH32 0x1E4FBDF700000000000000000000000000000000000000000000000000000000 DUP2 MSTORE PUSH1 0x4 ADD PUSH3 0xCE SWAP2 SWAP1 PUSH3 0xB6D JUMP JUMPDEST PUSH1 0x40 MLOAD DUP1 SWAP2 SUB SWAP1 REVERT JUMPDEST PUSH3 0xE8 DUP2 PUSH3 0x19C PUSH1 0x20 SHL PUSH1 0x20 SHR JUMP JUMPDEST POP DUP3 PUSH1 0x8 SWAP1 DUP1 MLOAD SWAP1 PUSH1 0x20 ADD SWAP1 PUSH3 0x101 SWAP3 SWAP2 SWAP1 PUSH3 0x25F JUMP JUMPDEST POP DUP2 PUSH1 0x9 SWAP1 DUP1 MLOAD SWAP1 PUSH1 0x20 ADD SWAP1 PUSH3 0x11A SWAP3 SWAP2 SWAP1 PUSH3 0x2EB JUMP JUMPDEST POP DUP1 PUSH1 0x7 DUP2 SWAP1 SSTORE POP POP POP POP POP POP DUP2 PUSH20 0xFFFFFFFFFFFFFFFFFFFFFFFFFFFFFFFFFFFFFFFF AND PUSH1 0x80 DUP2 PUSH20 0xFFFFFFFFFFFFFFFFFFFFFFFFFFFFFFFFFFFFFFFF AND DUP2 MSTORE POP POP DUP1 PUSH20 0xFFFFFFFFFFFFFFFFFFFFFFFFFFFFFFFFFFFFFFFF AND PUSH1 0xA0 DUP2 PUSH20 0xFFFFFFFFFFFFFFFFFFFFFFFFFFFFFFFFFFFFFFFF AND DUP2 MSTORE POP POP POP POP POP POP POP POP POP PUSH3 0xB88 JUMP JUMPDEST PUSH0 PUSH1 0x5 PUSH0 SWAP1 SLOAD SWAP1 PUSH2 0x100 EXP SWAP1 DIV PUSH20 0xFFFFFFFFFFFFFFFFFFFFFFFFFFFFFFFFFFFFFFFF AND SWAP1 POP DUP2 PUSH1 0x5 PUSH0 PUSH2 0x100 EXP DUP2 SLOAD DUP2 PUSH20 0xFFFFFFFFFFFFFFFFFFFFFFFFFFFFFFFFFFFFFFFF MUL NOT AND SWAP1 DUP4 PUSH20 0xFFFFFFFFFFFFFFFFFFFFFFFFFFFFFFFFFFFFFFFF AND MUL OR SWAP1 SSTORE POP DUP2 PUSH20 0xFFFFFFFFFFFFFFFFFFFFFFFFFFFFFFFFFFFFFFFF AND DUP2 PUSH20 0xFFFFFFFFFFFFFFFFFFFFFFFFFFFFFFFFFFFFFFFF AND PUSH32 0x8BE0079C531659141344CD1FD0A4F28419497F9722A3DAAFE3B4186F6B6457E0 PUSH1 0x40 MLOAD PUSH1 0x40 MLOAD DUP1 SWAP2 SUB SWAP1 LOG3 POP POP JUMP JUMPDEST DUP3 DUP1 SLOAD DUP3 DUP3 SSTORE SWAP1 PUSH0 MSTORE PUSH1 0x20 PUSH0 KECCAK256 SWAP1 DUP2 ADD SWAP3 DUP3 ISZERO PUSH3 0x2D8 JUMPI SWAP2 PUSH1 0x20 MUL DUP3 ADD JUMPDEST DUP3 DUP2 GT ISZERO PUSH3 0x2D7 JUMPI DUP3 MLOAD DUP3 PUSH0 PUSH2 0x100 EXP DUP2 SLOAD DUP2 PUSH20 0xFFFFFFFFFFFFFFFFFFFFFFFFFFFFFFFFFFFFFFFF MUL NOT AND SWAP1 DUP4 PUSH20 0xFFFFFFFFFFFFFFFFFFFFFFFFFFFFFFFFFFFFFFFF AND MUL OR SWAP1 SSTORE POP SWAP2 PUSH1 0x20 ADD SWAP2 SWAP1 PUSH1 0x1 ADD SWAP1 PUSH3 0x27E JUMP JUMPDEST JUMPDEST POP SWAP1 POP PUSH3 0x2E7 SWAP2 SWAP1 PUSH3 0x33B JUMP JUMPDEST POP SWAP1 JUMP JUMPDEST DUP3 DUP1 SLOAD DUP3 DUP3 SSTORE SWAP1 PUSH0 MSTORE PUSH1 0x20 PUSH0 KECCAK256 SWAP1 DUP2 ADD SWAP3 DUP3 ISZERO PUSH3 0x328 JUMPI SWAP2 PUSH1 0x20 MUL DUP3 ADD JUMPDEST DUP3 DUP2 GT ISZERO PUSH3 0x327 JUMPI DUP3 MLOAD DUP3 SSTORE SWAP2 PUSH1 0x20 ADD SWAP2 SWAP1 PUSH1 0x1 ADD SWAP1 PUSH3 0x30A JUMP JUMPDEST JUMPDEST POP SWAP1 POP PUSH3 0x337 SWAP2 SWAP1 PUSH3 0x33B JUMP JUMPDEST POP SWAP1 JUMP JUMPDEST JUMPDEST DUP1 DUP3 GT ISZERO PUSH3 0x354 JUMPI PUSH0 DUP2 PUSH0 SWAP1 SSTORE POP PUSH1 0x1 ADD PUSH3 0x33C JUMP JUMPDEST POP SWAP1 JUMP JUMPDEST PUSH0 PUSH1 0x40 MLOAD SWAP1 POP SWAP1 JUMP JUMPDEST PUSH0 DUP1 REVERT JUMPDEST PUSH0 DUP1 REVERT JUMPDEST PUSH0 DUP1 REVERT JUMPDEST PUSH0 DUP1 REVERT JUMPDEST PUSH0 PUSH1 0x1F NOT PUSH1 0x1F DUP4 ADD AND SWAP1 POP SWAP2 SWAP1 POP JUMP JUMPDEST PUSH32 0x4E487B7100000000000000000000000000000000000000000000000000000000 PUSH0 MSTORE PUSH1 0x41 PUSH1 0x4 MSTORE PUSH1 0x24 PUSH0 REVERT JUMPDEST PUSH3 0x3B9 DUP3 PUSH3 0x371 JUMP JUMPDEST DUP2 ADD DUP2 DUP2 LT PUSH8 0xFFFFFFFFFFFFFFFF DUP3 GT OR ISZERO PUSH3 0x3DB JUMPI PUSH3 0x3DA PUSH3 0x381 JUMP JUMPDEST JUMPDEST DUP1 PUSH1 0x40 MSTORE POP POP POP JUMP JUMPDEST PUSH0 PUSH3 0x3EF PUSH3 0x358 JUMP JUMPDEST SWAP1 POP PUSH3 0x3FD DUP3 DUP3 PUSH3 0x3AE JUMP JUMPDEST SWAP2 SWAP1 POP JUMP JUMPDEST PUSH0 PUSH8 0xFFFFFFFFFFFFFFFF DUP3 GT ISZERO PUSH3 0x41F JUMPI PUSH3 0x41E PUSH3 0x381 JUMP JUMPDEST JUMPDEST PUSH3 0x42A DUP3 PUSH3 0x371 JUMP JUMPDEST SWAP1 POP PUSH1 0x20 DUP2 ADD SWAP1 POP SWAP2 SWAP1 POP JUMP JUMPDEST PUSH0 JUMPDEST DUP4 DUP2 LT ISZERO PUSH3 0x456 JUMPI DUP1 DUP3 ADD MLOAD DUP2 DUP5 ADD MSTORE PUSH1 0x20 DUP2 ADD SWAP1 POP PUSH3 0x439 JUMP JUMPDEST PUSH0 DUP5 DUP5 ADD MSTORE POP POP POP POP JUMP JUMPDEST PUSH0 PUSH3 0x477 PUSH3 0x471 DUP5 PUSH3 0x402 JUMP JUMPDEST PUSH3 0x3E4 JUMP JUMPDEST SWAP1 POP DUP3 DUP2 MSTORE PUSH1 0x20 DUP2 ADD DUP5 DUP5 DUP5 ADD GT ISZERO PUSH3 0x496 JUMPI PUSH3 0x495 PUSH3 0x36D JUMP JUMPDEST JUMPDEST PUSH3 0x4A3 DUP5 DUP3 DUP6 PUSH3 0x437 JUMP JUMPDEST POP SWAP4 SWAP3 POP POP POP JUMP JUMPDEST PUSH0 DUP3 PUSH1 0x1F DUP4 ADD SLT PUSH3 0x4C2 JUMPI PUSH3 0x4C1 PUSH3 0x369 JUMP JUMPDEST JUMPDEST DUP2 MLOAD PUSH3 0x4D4 DUP5 DUP3 PUSH1 0x20 DUP7 ADD PUSH3 0x461 JUMP JUMPDEST SWAP2 POP POP SWAP3 SWAP2 POP POP JUMP JUMPDEST PUSH0 PUSH8 0xFFFFFFFFFFFFFFFF DUP3 GT ISZERO PUSH3 0x4FA JUMPI PUSH3 0x4F9 PUSH3 0x381 JUMP JUMPDEST JUMPDEST PUSH1 0x20 DUP3 MUL SWAP1 POP PUSH1 0x20 DUP2 ADD SWAP1 POP SWAP2 SWAP1 POP JUMP JUMPDEST PUSH0 DUP1 REVERT JUMPDEST PUSH0 PUSH20 0xFFFFFFFFFFFFFFFFFFFFFFFFFFFFFFFFFFFFFFFF DUP3 AND SWAP1 POP SWAP2 SWAP1 POP JUMP JUMPDEST PUSH0 PUSH3 0x53A DUP3 PUSH3 0x50F JUMP JUMPDEST SWAP1 POP SWAP2 SWAP1 POP JUMP JUMPDEST PUSH3 0x54C DUP2 PUSH3 0x52E JUMP JUMPDEST DUP2 EQ PUSH3 0x557 JUMPI PUSH0 DUP1 REVERT JUMPDEST POP JUMP JUMPDEST PUSH0 DUP2 MLOAD SWAP1 POP PUSH3 0x56A DUP2 PUSH3 0x541 JUMP JUMPDEST SWAP3 SWAP2 POP POP JUMP JUMPDEST PUSH0 PUSH3 0x586 PUSH3 0x580 DUP5 PUSH3 0x4DD JUMP JUMPDEST PUSH3 0x3E4 JUMP JUMPDEST SWAP1 POP DUP1 DUP4 DUP3 MSTORE PUSH1 0x20 DUP3 ADD SWAP1 POP PUSH1 0x20 DUP5 MUL DUP4 ADD DUP6 DUP2 GT ISZERO PUSH3 0x5AC JUMPI PUSH3 0x5AB PUSH3 0x50B JUMP JUMPDEST JUMPDEST DUP4 JUMPDEST DUP2 DUP2 LT ISZERO PUSH3 0x5D9 JUMPI DUP1 PUSH3 0x5C4 DUP9 DUP3 PUSH3 0x55A JUMP JUMPDEST DUP5 MSTORE PUSH1 0x20 DUP5 ADD SWAP4 POP POP PUSH1 0x20 DUP2 ADD SWAP1 POP PUSH3 0x5AE JUMP JUMPDEST POP POP POP SWAP4 SWAP3 POP POP POP JUMP JUMPDEST PUSH0 DUP3 PUSH1 0x1F DUP4 ADD SLT PUSH3 0x5FA JUMPI PUSH3 0x5F9 PUSH3 0x369 JUMP JUMPDEST JUMPDEST DUP2 MLOAD PUSH3 0x60C DUP5 DUP3 PUSH1 0x20 DUP7 ADD PUSH3 0x570 JUMP JUMPDEST SWAP2 POP POP SWAP3 SWAP2 POP POP JUMP JUMPDEST PUSH0 PUSH8 0xFFFFFFFFFFFFFFFF DUP3 GT ISZERO PUSH3 0x632 JUMPI PUSH3 0x631 PUSH3 0x381 JUMP JUMPDEST JUMPDEST PUSH1 0x20 DUP3 MUL SWAP1 POP PUSH1 0x20 DUP2 ADD SWAP1 POP SWAP2 SWAP1 POP JUMP JUMPDEST PUSH0 DUP2 SWAP1 POP SWAP2 SWAP1 POP JUMP JUMPDEST PUSH3 0x657 DUP2 PUSH3 0x643 JUMP JUMPDEST DUP2 EQ PUSH3 0x662 JUMPI PUSH0 DUP1 REVERT JUMPDEST POP JUMP JUMPDEST PUSH0 DUP2 MLOAD SWAP1 POP PUSH3 0x675 DUP2 PUSH3 0x64C JUMP JUMPDEST SWAP3 SWAP2 POP POP JUMP JUMPDEST PUSH0 PUSH3 0x691 PUSH3 0x68B DUP5 PUSH3 0x615 JUMP JUMPDEST PUSH3 0x3E4 JUMP JUMPDEST SWAP1 POP DUP1 DUP4 DUP3 MSTORE PUSH1 0x20 DUP3 ADD SWAP1 POP PUSH1 0x20 DUP5 MUL DUP4 ADD DUP6 DUP2 GT ISZERO PUSH3 0x6B7 JUMPI PUSH3 0x6B6 PUSH3 0x50B JUMP JUMPDEST JUMPDEST DUP4 JUMPDEST DUP2 DUP2 LT ISZERO PUSH3 0x6E4 JUMPI DUP1 PUSH3 0x6CF DUP9 DUP3 PUSH3 0x665 JUMP JUMPDEST DUP5 MSTORE PUSH1 0x20 DUP5 ADD SWAP4 POP POP PUSH1 0x20 DUP2 ADD SWAP1 POP PUSH3 0x6B9 JUMP JUMPDEST POP POP POP SWAP4 SWAP3 POP POP POP JUMP JUMPDEST PUSH0 DUP3 PUSH1 0x1F DUP4 ADD SLT PUSH3 0x705 JUMPI PUSH3 0x704 PUSH3 0x369 JUMP JUMPDEST JUMPDEST DUP2 MLOAD PUSH3 0x717 DUP5 DUP3 PUSH1 0x20 DUP7 ADD PUSH3 0x67B JUMP JUMPDEST SWAP2 POP POP SWAP3 SWAP2 POP POP JUMP JUMPDEST PUSH0 DUP1 PUSH0 DUP1 PUSH0 DUP1 PUSH0 PUSH1 0xE0 DUP9 DUP11 SUB SLT ISZERO PUSH3 0x73E JUMPI PUSH3 0x73D PUSH3 0x361 JUMP JUMPDEST JUMPDEST PUSH0 DUP9 ADD MLOAD PUSH8 0xFFFFFFFFFFFFFFFF DUP2 GT ISZERO PUSH3 0x75E JUMPI PUSH3 0x75D PUSH3 0x365 JUMP JUMPDEST JUMPDEST PUSH3 0x76C DUP11 DUP3 DUP12 ADD PUSH3 0x4AB JUMP JUMPDEST SWAP8 POP POP PUSH1 0x20 DUP9 ADD MLOAD PUSH8 0xFFFFFFFFFFFFFFFF DUP2 GT ISZERO PUSH3 0x790 JUMPI PUSH3 0x78F PUSH3 0x365 JUMP JUMPDEST JUMPDEST PUSH3 0x79E DUP11 DUP3 DUP12 ADD PUSH3 0x4AB JUMP JUMPDEST SWAP7 POP POP PUSH1 0x40 DUP9 ADD MLOAD PUSH8 0xFFFFFFFFFFFFFFFF DUP2 GT ISZERO PUSH3 0x7C2 JUMPI PUSH3 0x7C1 PUSH3 0x365 JUMP JUMPDEST JUMPDEST PUSH3 0x7D0 DUP11 DUP3 DUP12 ADD PUSH3 0x5E3 JUMP JUMPDEST SWAP6 POP POP PUSH1 0x60 DUP9 ADD MLOAD PUSH8 0xFFFFFFFFFFFFFFFF DUP2 GT ISZERO PUSH3 0x7F4 JUMPI PUSH3 0x7F3 PUSH3 0x365 JUMP JUMPDEST JUMPDEST PUSH3 0x802 DUP11 DUP3 DUP12 ADD PUSH3 0x6EE JUMP JUMPDEST SWAP5 POP POP PUSH1 0x80 PUSH3 0x815 DUP11 DUP3 DUP12 ADD PUSH3 0x665 JUMP JUMPDEST SWAP4 POP POP PUSH1 0xA0 PUSH3 0x828 DUP11 DUP3 DUP12 ADD PUSH3 0x55A JUMP JUMPDEST SWAP3 POP POP PUSH1 0xC0 PUSH3 0x83B DUP11 DUP3 DUP12 ADD PUSH3 0x55A JUMP JUMPDEST SWAP2 POP POP SWAP3 SWAP6 SWAP9 SWAP2 SWAP5 SWAP8 POP SWAP3 SWAP6 POP JUMP JUMPDEST PUSH0 DUP2 MLOAD SWAP1 POP SWAP2 SWAP1 POP JUMP JUMPDEST PUSH32 0x4E487B7100000000000000000000000000000000000000000000000000000000 PUSH0 MSTORE PUSH1 0x22 PUSH1 0x4 MSTORE PUSH1 0x24 PUSH0 REVERT JUMPDEST PUSH0 PUSH1 0x2 DUP3 DIV SWAP1 POP PUSH1 0x1 DUP3 AND DUP1 PUSH3 0x899 JUMPI PUSH1 0x7F DUP3 AND SWAP2 POP JUMPDEST PUSH1 0x20 DUP3 LT DUP2 SUB PUSH3 0x8AF JUMPI PUSH3 0x8AE PUSH3 0x854 JUMP JUMPDEST JUMPDEST POP SWAP2 SWAP1 POP JUMP JUMPDEST PUSH0 DUP2 SWAP1 POP DUP2 PUSH0 MSTORE PUSH1 0x20 PUSH0 KECCAK256 SWAP1 POP SWAP2 SWAP1 POP JUMP JUMPDEST PUSH0 PUSH1 0x20 PUSH1 0x1F DUP4 ADD DIV SWAP1 POP SWAP2 SWAP1 POP JUMP JUMPDEST PUSH0 DUP3 DUP3 SHL SWAP1 POP SWAP3 SWAP2 POP POP JUMP JUMPDEST PUSH0 PUSH1 0x8 DUP4 MUL PUSH3 0x913 PUSH32 0xFFFFFFFFFFFFFFFFFFFFFFFFFFFFFFFFFFFFFFFFFFFFFFFFFFFFFFFFFFFFFFFF DUP3 PUSH3 0x8D6 JUMP JUMPDEST PUSH3 0x91F DUP7 DUP4 PUSH3 0x8D6 JUMP JUMPDEST SWAP6 POP DUP1 NOT DUP5 AND SWAP4 POP DUP1 DUP7 AND DUP5 OR SWAP3 POP POP POP SWAP4 SWAP3 POP POP POP JUMP JUMPDEST PUSH0 DUP2 SWAP1 POP SWAP2 SWAP1 POP JUMP JUMPDEST PUSH0 PUSH3 0x960 PUSH3 0x95A PUSH3 0x954 DUP5 PUSH3 0x643 JUMP JUMPDEST PUSH3 0x937 JUMP JUMPDEST PUSH3 0x643 JUMP JUMPDEST SWAP1 POP SWAP2 SWAP1 POP JUMP JUMPDEST PUSH0 DUP2 SWAP1 POP SWAP2 SWAP1 POP JUMP JUMPDEST PUSH3 0x97B DUP4 PUSH3 0x940 JUMP JUMPDEST PUSH3 0x993 PUSH3 0x98A DUP3 PUSH3 0x967 JUMP JUMPDEST DUP5 DUP5 SLOAD PUSH3 0x8E2 JUMP JUMPDEST DUP3 SSTORE POP POP POP POP JUMP JUMPDEST PUSH0 SWAP1 JUMP JUMPDEST PUSH3 0x9A9 PUSH3 0x99B JUMP JUMPDEST PUSH3 0x9B6 DUP2 DUP5 DUP5 PUSH3 0x970 JUMP JUMPDEST POP POP POP JUMP JUMPDEST JUMPDEST DUP2 DUP2 LT ISZERO PUSH3 0x9DD JUMPI PUSH3 0x9D1 PUSH0 DUP3 PUSH3 0x99F JUMP JUMPDEST PUSH1 0x1 DUP2 ADD SWAP1 POP PUSH3 0x9BC JUMP JUMPDEST POP POP JUMP JUMPDEST PUSH1 0x1F DUP3 GT ISZERO PUSH3 0xA2C JUMPI PUSH3 0x9F6 DUP2 PUSH3 0x8B5 JUMP JUMPDEST PUSH3 0xA01 DUP5 PUSH3 0x8C7 JUMP JUMPDEST DUP2 ADD PUSH1 0x20 DUP6 LT ISZERO PUSH3 0xA11 JUMPI DUP2 SWAP1 POP JUMPDEST PUSH3 0xA29 PUSH3 0xA20 DUP6 PUSH3 0x8C7 JUMP JUMPDEST DUP4 ADD DUP3 PUSH3 0x9BB JUMP JUMPDEST POP POP JUMPDEST POP POP POP JUMP JUMPDEST PUSH0 DUP3 DUP3 SHR SWAP1 POP SWAP3 SWAP2 POP POP JUMP JUMPDEST PUSH0 PUSH3 0xA4E PUSH0 NOT DUP5 PUSH1 0x8 MUL PUSH3 0xA31 JUMP JUMPDEST NOT DUP1 DUP4 AND SWAP2 POP POP SWAP3 SWAP2 POP POP JUMP JUMPDEST PUSH0 PUSH3 0xA68 DUP4 DUP4 PUSH3 0xA3D JUMP JUMPDEST SWAP2 POP DUP3 PUSH1 0x2 MUL DUP3 OR SWAP1 POP SWAP3 SWAP2 POP POP JUMP JUMPDEST PUSH3 0xA83 DUP3 PUSH3 0x84A JUMP JUMPDEST PUSH8 0xFFFFFFFFFFFFFFFF DUP2 GT ISZERO PUSH3 0xA9F JUMPI PUSH3 0xA9E PUSH3 0x381 JUMP JUMPDEST JUMPDEST PUSH3 0xAAB DUP3 SLOAD PUSH3 0x881 JUMP JUMPDEST PUSH3 0xAB8 DUP3 DUP3 DUP6 PUSH3 0x9E1 JUMP JUMPDEST PUSH0 PUSH1 0x20 SWAP1 POP PUSH1 0x1F DUP4 GT PUSH1 0x1 DUP2 EQ PUSH3 0xAEE JUMPI PUSH0 DUP5 ISZERO PUSH3 0xAD9 JUMPI DUP3 DUP8 ADD MLOAD SWAP1 POP JUMPDEST PUSH3 0xAE5 DUP6 DUP3 PUSH3 0xA5B JUMP JUMPDEST DUP7 SSTORE POP PUSH3 0xB54 JUMP JUMPDEST PUSH1 0x1F NOT DUP5 AND PUSH3 0xAFE DUP7 PUSH3 0x8B5 JUMP JUMPDEST PUSH0 JUMPDEST DUP3 DUP2 LT ISZERO PUSH3 0xB27 JUMPI DUP5 DUP10 ADD MLOAD DUP3 SSTORE PUSH1 0x1 DUP3 ADD SWAP2 POP PUSH1 0x20 DUP6 ADD SWAP5 POP PUSH1 0x20 DUP2 ADD SWAP1 POP PUSH3 0xB00 JUMP JUMPDEST DUP7 DUP4 LT ISZERO PUSH3 0xB47 JUMPI DUP5 DUP10 ADD MLOAD PUSH3 0xB43 PUSH1 0x1F DUP10 AND DUP3 PUSH3 0xA3D JUMP JUMPDEST DUP4 SSTORE POP JUMPDEST PUSH1 0x1 PUSH1 0x2 DUP9 MUL ADD DUP9 SSTORE POP POP POP JUMPDEST POP POP POP POP POP POP JUMP JUMPDEST PUSH3 0xB67 DUP2 PUSH3 0x52E JUMP JUMPDEST DUP3 MSTORE POP POP JUMP JUMPDEST PUSH0 PUSH1 0x20 DUP3 ADD SWAP1 POP PUSH3 0xB82 PUSH0 DUP4 ADD DUP5 PUSH3 0xB5C JUMP JUMPDEST SWAP3 SWAP2 POP POP JUMP JUMPDEST PUSH1 0x80 MLOAD PUSH1 0xA0 MLOAD PUSH2 0x4C59 PUSH3 0xC0C PUSH0 CODECOPY PUSH0 DUP2 DUP2 PUSH2 0xE0A ADD MSTORE DUP2 DUP2 PUSH2 0xED0 ADD MSTORE DUP2 DUP2 PUSH2 0xF6C ADD MSTORE DUP2 DUP2 PUSH2 0x1184 ADD MSTORE DUP2 DUP2 PUSH2 0x1986 ADD MSTORE DUP2 DUP2 PUSH2 0x1A06 ADD MSTORE DUP2 DUP2 PUSH2 0x1A7B ADD MSTORE DUP2 DUP2 PUSH2 0x1B17 ADD MSTORE PUSH2 0x1D00 ADD MSTORE PUSH0 DUP2 DUP2 PUSH2 0xBF2 ADD MSTORE DUP2 DUP2 PUSH2 0x1029 ADD MSTORE DUP2 DUP2 PUSH2 0x1641 ADD MSTORE DUP2 DUP2 PUSH2 0x1BB1 ADD MSTORE DUP2 DUP2 PUSH2 0x1EEE ADD MSTORE DUP2 DUP2 PUSH2 0x264D ADD MSTORE PUSH2 0x26D3 ADD MSTORE PUSH2 0x4C59 PUSH0 RETURN INVALID PUSH1 0x80 PUSH1 0x40 MSTORE PUSH1 0x4 CALLDATASIZE LT PUSH2 0x1DB JUMPI PUSH0 CALLDATALOAD PUSH1 0xE0 SHR DUP1 PUSH4 0x70A08231 GT PUSH2 0x101 JUMPI DUP1 PUSH4 0xA9059CBB GT PUSH2 0x94 JUMPI DUP1 PUSH4 0xC31C9C07 GT PUSH2 0x63 JUMPI DUP1 PUSH4 0xC31C9C07 EQ PUSH2 0x67E JUMPI DUP1 PUSH4 0xCE7DDBEF EQ PUSH2 0x6A8 JUMPI DUP1 PUSH4 0xDD62ED3E EQ PUSH2 0x6E4 JUMPI DUP1 PUSH4 0xF2FDE38B EQ PUSH2 0x720 JUMPI PUSH2 0x1E2 JUMP JUMPDEST DUP1 PUSH4 0xA9059CBB EQ PUSH2 0x5D4 JUMPI DUP1 PUSH4 0xAA6CA808 EQ PUSH2 0x610 JUMPI DUP1 PUSH4 0xB0ACD84B EQ PUSH2 0x63A JUMPI DUP1 PUSH4 0xB9B8C246 EQ PUSH2 0x656 JUMPI PUSH2 0x1E2 JUMP JUMPDEST DUP1 PUSH4 0x95D89B41 GT PUSH2 0xD0 JUMPI DUP1 PUSH4 0x95D89B41 EQ PUSH2 0x530 JUMPI DUP1 PUSH4 0x965FA21E EQ PUSH2 0x55A JUMPI DUP1 PUSH4 0xA0398AF3 EQ PUSH2 0x584 JUMPI DUP1 PUSH4 0xA553618B EQ PUSH2 0x5AC JUMPI PUSH2 0x1E2 JUMP JUMPDEST DUP1 PUSH4 0x70A08231 EQ PUSH2 0x48A JUMPI DUP1 PUSH4 0x715018A6 EQ PUSH2 0x4C6 JUMPI DUP1 PUSH4 0x8423F320 EQ PUSH2 0x4DC JUMPI DUP1 PUSH4 0x8DA5CB5B EQ PUSH2 0x506 JUMPI PUSH2 0x1E2 JUMP JUMPDEST DUP1 PUSH4 0x1E9A6950 GT PUSH2 0x179 JUMPI DUP1 PUSH4 0x3FC8CEF3 GT PUSH2 0x148 JUMPI DUP1 PUSH4 0x3FC8CEF3 EQ PUSH2 0x3E6 JUMPI DUP1 PUSH4 0x4F4E0921 EQ PUSH2 0x410 JUMPI DUP1 PUSH4 0x6DD84AC1 EQ PUSH2 0x438 JUMPI DUP1 PUSH4 0x6ED93DD0 EQ PUSH2 0x460 JUMPI PUSH2 0x1E2 JUMP JUMPDEST DUP1 PUSH4 0x1E9A6950 EQ PUSH2 0x330 JUMPI DUP1 PUSH4 0x22B1C027 EQ PUSH2 0x358 JUMPI DUP1 PUSH4 0x23B872DD EQ PUSH2 0x380 JUMPI DUP1 PUSH4 0x313CE567 EQ PUSH2 0x3BC JUMPI PUSH2 0x1E2 JUMP JUMPDEST DUP1 PUSH4 0x6FDDE03 GT PUSH2 0x1B5 JUMPI DUP1 PUSH4 0x6FDDE03 EQ PUSH2 0x276 JUMPI DUP1 PUSH4 0x95EA7B3 EQ PUSH2 0x2A0 JUMPI DUP1 PUSH4 0x18160DDD EQ PUSH2 0x2DC JUMPI DUP1 PUSH4 0x1C1F3014 EQ PUSH2 0x306 JUMPI PUSH2 0x1E2 JUMP JUMPDEST DUP1 PUSH4 0x17E7E58 EQ PUSH2 0x1E6 JUMPI DUP1 PUSH4 0x1E9D757 EQ PUSH2 0x210 JUMPI DUP1 PUSH4 0x5DEF347 EQ PUSH2 0x23A JUMPI PUSH2 0x1E2 JUMP JUMPDEST CALLDATASIZE PUSH2 0x1E2 JUMPI STOP JUMPDEST PUSH0 DUP1 REVERT JUMPDEST CALLVALUE DUP1 ISZERO PUSH2 0x1F1 JUMPI PUSH0 DUP1 REVERT JUMPDEST POP PUSH2 0x1FA PUSH2 0x748 JUMP JUMPDEST PUSH1 0x40 MLOAD PUSH2 0x207 SWAP2 SWAP1 PUSH2 0x3AB1 JUMP JUMPDEST PUSH1 0x40 MLOAD DUP1 SWAP2 SUB SWAP1 RETURN JUMPDEST CALLVALUE DUP1 ISZERO PUSH2 0x21B JUMPI PUSH0 DUP1 REVERT JUMPDEST POP PUSH2 0x224 PUSH2 0x76D JUMP JUMPDEST PUSH1 0x40 MLOAD PUSH2 0x231 SWAP2 SWAP1 PUSH2 0x3AE2 JUMP JUMPDEST PUSH1 0x40 MLOAD DUP1 SWAP2 SUB SWAP1 RETURN JUMPDEST CALLVALUE DUP1 ISZERO PUSH2 0x245 JUMPI PUSH0 DUP1 REVERT JUMPDEST POP PUSH2 0x260 PUSH1 0x4 DUP1 CALLDATASIZE SUB DUP2 ADD SWAP1 PUSH2 0x25B SWAP2 SWAP1 PUSH2 0x3B36 JUMP JUMPDEST PUSH2 0x773 JUMP JUMPDEST PUSH1 0x40 MLOAD PUSH2 0x26D SWAP2 SWAP1 PUSH2 0x3C18 JUMP JUMPDEST PUSH1 0x40 MLOAD DUP1 SWAP2 SUB SWAP1 RETURN JUMPDEST CALLVALUE DUP1 ISZERO PUSH2 0x281 JUMPI PUSH0 DUP1 REVERT JUMPDEST POP PUSH2 0x28A PUSH2 0x944 JUMP JUMPDEST PUSH1 0x40 MLOAD PUSH2 0x297 SWAP2 SWAP1 PUSH2 0x3CC2 JUMP JUMPDEST PUSH1 0x40 MLOAD DUP1 SWAP2 SUB SWAP1 RETURN JUMPDEST CALLVALUE DUP1 ISZERO PUSH2 0x2AB JUMPI PUSH0 DUP1 REVERT JUMPDEST POP PUSH2 0x2C6 PUSH1 0x4 DUP1 CALLDATASIZE SUB DUP2 ADD SWAP1 PUSH2 0x2C1 SWAP2 SWAP1 PUSH2 0x3D0C JUMP JUMPDEST PUSH2 0x9D4 JUMP JUMPDEST PUSH1 0x40 MLOAD PUSH2 0x2D3 SWAP2 SWAP1 PUSH2 0x3D64 JUMP JUMPDEST PUSH1 0x40 MLOAD DUP1 SWAP2 SUB SWAP1 RETURN JUMPDEST CALLVALUE DUP1 ISZERO PUSH2 0x2E7 JUMPI PUSH0 DUP1 REVERT JUMPDEST POP PUSH2 0x2F0 PUSH2 0x9F6 JUMP JUMPDEST PUSH1 0x40 MLOAD PUSH2 0x2FD SWAP2 SWAP1 PUSH2 0x3AE2 JUMP JUMPDEST PUSH1 0x40 MLOAD DUP1 SWAP2 SUB SWAP1 RETURN JUMPDEST CALLVALUE DUP1 ISZERO PUSH2 0x311 JUMPI PUSH0 DUP1 REVERT JUMPDEST POP PUSH2 0x31A PUSH2 0x9FF JUMP JUMPDEST PUSH1 0x40 MLOAD PUSH2 0x327 SWAP2 SWAP1 PUSH2 0x3D9A JUMP JUMPDEST PUSH1 0x40 MLOAD DUP1 SWAP2 SUB SWAP1 RETURN JUMPDEST CALLVALUE DUP1 ISZERO PUSH2 0x33B JUMPI PUSH0 DUP1 REVERT JUMPDEST POP PUSH2 0x356 PUSH1 0x4 DUP1 CALLDATASIZE SUB DUP2 ADD SWAP1 PUSH2 0x351 SWAP2 SWAP1 PUSH2 0x3D0C JUMP JUMPDEST PUSH2 0xA14 JUMP JUMPDEST STOP JUMPDEST CALLVALUE DUP1 ISZERO PUSH2 0x363 JUMPI PUSH0 DUP1 REVERT JUMPDEST POP PUSH2 0x37E PUSH1 0x4 DUP1 CALLDATASIZE SUB DUP2 ADD SWAP1 PUSH2 0x379 SWAP2 SWAP1 PUSH2 0x3FC1 JUMP JUMPDEST PUSH2 0xA23 JUMP JUMPDEST STOP JUMPDEST CALLVALUE DUP1 ISZERO PUSH2 0x38B JUMPI PUSH0 DUP1 REVERT JUMPDEST POP PUSH2 0x3A6 PUSH1 0x4 DUP1 CALLDATASIZE SUB DUP2 ADD SWAP1 PUSH2 0x3A1 SWAP2 SWAP1 PUSH2 0x4054 JUMP JUMPDEST PUSH2 0xDD2 JUMP JUMPDEST PUSH1 0x40 MLOAD PUSH2 0x3B3 SWAP2 SWAP1 PUSH2 0x3D64 JUMP JUMPDEST PUSH1 0x40 MLOAD DUP1 SWAP2 SUB SWAP1 RETURN JUMPDEST CALLVALUE DUP1 ISZERO PUSH2 0x3C7 JUMPI PUSH0 DUP1 REVERT JUMPDEST POP PUSH2 0x3D0 PUSH2 0xE00 JUMP JUMPDEST PUSH1 0x40 MLOAD PUSH2 0x3DD SWAP2 SWAP1 PUSH2 0x40BF JUMP JUMPDEST PUSH1 0x40 MLOAD DUP1 SWAP2 SUB SWAP1 RETURN JUMPDEST CALLVALUE DUP1 ISZERO PUSH2 0x3F1 JUMPI PUSH0 DUP1 REVERT JUMPDEST POP PUSH2 0x3FA PUSH2 0xE08 JUMP JUMPDEST PUSH1 0x40 MLOAD PUSH2 0x407 SWAP2 SWAP1 PUSH2 0x3AB1 JUMP JUMPDEST PUSH1 0x40 MLOAD DUP1 SWAP2 SUB SWAP1 RETURN JUMPDEST CALLVALUE DUP1 ISZERO PUSH2 0x41B JUMPI PUSH0 DUP1 REVERT JUMPDEST POP PUSH2 0x436 PUSH1 0x4 DUP1 CALLDATASIZE SUB DUP2 ADD SWAP1 PUSH2 0x431 SWAP2 SWAP1 PUSH2 0x40D8 JUMP JUMPDEST PUSH2 0xE2C JUMP JUMPDEST STOP JUMPDEST CALLVALUE DUP1 ISZERO PUSH2 0x443 JUMPI PUSH0 DUP1 REVERT JUMPDEST POP PUSH2 0x45E PUSH1 0x4 DUP1 CALLDATASIZE SUB DUP2 ADD SWAP1 PUSH2 0x459 SWAP2 SWAP1 PUSH2 0x3B36 JUMP JUMPDEST PUSH2 0x1256 JUMP JUMPDEST STOP JUMPDEST CALLVALUE DUP1 ISZERO PUSH2 0x46B JUMPI PUSH0 DUP1 REVERT JUMPDEST POP PUSH2 0x474 PUSH2 0x12A3 JUMP JUMPDEST PUSH1 0x40 MLOAD PUSH2 0x481 SWAP2 SWAP1 PUSH2 0x3D9A JUMP JUMPDEST PUSH1 0x40 MLOAD DUP1 SWAP2 SUB SWAP1 RETURN JUMPDEST CALLVALUE DUP1 ISZERO PUSH2 0x495 JUMPI PUSH0 DUP1 REVERT JUMPDEST POP PUSH2 0x4B0 PUSH1 0x4 DUP1 CALLDATASIZE SUB DUP2 ADD SWAP1 PUSH2 0x4AB SWAP2 SWAP1 PUSH2 0x4158 JUMP JUMPDEST PUSH2 0x12AA JUMP JUMPDEST PUSH1 0x40 MLOAD PUSH2 0x4BD SWAP2 SWAP1 PUSH2 0x3AE2 JUMP JUMPDEST PUSH1 0x40 MLOAD DUP1 SWAP2 SUB SWAP1 RETURN JUMPDEST CALLVALUE DUP1 ISZERO PUSH2 0x4D1 JUMPI PUSH0 DUP1 REVERT JUMPDEST POP PUSH2 0x4DA PUSH2 0x12EF JUMP JUMPDEST STOP JUMPDEST CALLVALUE DUP1 ISZERO PUSH2 0x4E7 JUMPI PUSH0 DUP1 REVERT JUMPDEST POP PUSH2 0x4F0 PUSH2 0x1302 JUMP JUMPDEST PUSH1 0x40 MLOAD PUSH2 0x4FD SWAP2 SWAP1 PUSH2 0x3C18 JUMP JUMPDEST PUSH1 0x40 MLOAD DUP1 SWAP2 SUB SWAP1 RETURN JUMPDEST CALLVALUE DUP1 ISZERO PUSH2 0x511 JUMPI PUSH0 DUP1 REVERT JUMPDEST POP PUSH2 0x51A PUSH2 0x1358 JUMP JUMPDEST PUSH1 0x40 MLOAD PUSH2 0x527 SWAP2 SWAP1 PUSH2 0x3AB1 JUMP JUMPDEST PUSH1 0x40 MLOAD DUP1 SWAP2 SUB SWAP1 RETURN JUMPDEST CALLVALUE DUP1 ISZERO PUSH2 0x53B JUMPI PUSH0 DUP1 REVERT JUMPDEST POP PUSH2 0x544 PUSH2 0x1380 JUMP JUMPDEST PUSH1 0x40 MLOAD PUSH2 0x551 SWAP2 SWAP1 PUSH2 0x3CC2 JUMP JUMPDEST PUSH1 0x40 MLOAD DUP1 SWAP2 SUB SWAP1 RETURN JUMPDEST CALLVALUE DUP1 ISZERO PUSH2 0x565 JUMPI PUSH0 DUP1 REVERT JUMPDEST POP PUSH2 0x56E PUSH2 0x1410 JUMP JUMPDEST PUSH1 0x40 MLOAD PUSH2 0x57B SWAP2 SWAP1 PUSH2 0x3D9A JUMP JUMPDEST PUSH1 0x40 MLOAD DUP1 SWAP2 SUB SWAP1 RETURN JUMPDEST CALLVALUE DUP1 ISZERO PUSH2 0x58F JUMPI PUSH0 DUP1 REVERT JUMPDEST POP PUSH2 0x5AA PUSH1 0x4 DUP1 CALLDATASIZE SUB DUP2 ADD SWAP1 PUSH2 0x5A5 SWAP2 SWAP1 PUSH2 0x3FC1 JUMP JUMPDEST PUSH2 0x1425 JUMP JUMPDEST STOP JUMPDEST CALLVALUE DUP1 ISZERO PUSH2 0x5B7 JUMPI PUSH0 DUP1 REVERT JUMPDEST POP PUSH2 0x5D2 PUSH1 0x4 DUP1 CALLDATASIZE SUB DUP2 ADD SWAP1 PUSH2 0x5CD SWAP2 SWAP1 PUSH2 0x41AD JUMP JUMPDEST PUSH2 0x17F6 JUMP JUMPDEST STOP JUMPDEST CALLVALUE DUP1 ISZERO PUSH2 0x5DF JUMPI PUSH0 DUP1 REVERT JUMPDEST POP PUSH2 0x5FA PUSH1 0x4 DUP1 CALLDATASIZE SUB DUP2 ADD SWAP1 PUSH2 0x5F5 SWAP2 SWAP1 PUSH2 0x3D0C JUMP JUMPDEST PUSH2 0x1881 JUMP JUMPDEST PUSH1 0x40 MLOAD PUSH2 0x607 SWAP2 SWAP1 PUSH2 0x3D64 JUMP JUMPDEST PUSH1 0x40 MLOAD DUP1 SWAP2 SUB SWAP1 RETURN JUMPDEST CALLVALUE DUP1 ISZERO PUSH2 0x61B JUMPI PUSH0 DUP1 REVERT JUMPDEST POP PUSH2 0x624 PUSH2 0x18A3 JUMP JUMPDEST PUSH1 0x40 MLOAD PUSH2 0x631 SWAP2 SWAP1 PUSH2 0x42B4 JUMP JUMPDEST PUSH1 0x40 MLOAD DUP1 SWAP2 SUB SWAP1 RETURN JUMPDEST PUSH2 0x654 PUSH1 0x4 DUP1 CALLDATASIZE SUB DUP2 ADD SWAP1 PUSH2 0x64F SWAP2 SWAP1 PUSH2 0x42D4 JUMP JUMPDEST PUSH2 0x192E JUMP JUMPDEST STOP JUMPDEST CALLVALUE DUP1 ISZERO PUSH2 0x661 JUMPI PUSH0 DUP1 REVERT JUMPDEST POP PUSH2 0x67C PUSH1 0x4 DUP1 CALLDATASIZE SUB DUP2 ADD SWAP1 PUSH2 0x677 SWAP2 SWAP1 PUSH2 0x3D0C JUMP JUMPDEST PUSH2 0x1E18 JUMP JUMPDEST STOP JUMPDEST CALLVALUE DUP1 ISZERO PUSH2 0x689 JUMPI PUSH0 DUP1 REVERT JUMPDEST POP PUSH2 0x692 PUSH2 0x1EEC JUMP JUMPDEST PUSH1 0x40 MLOAD PUSH2 0x69F SWAP2 SWAP1 PUSH2 0x3AB1 JUMP JUMPDEST PUSH1 0x40 MLOAD DUP1 SWAP2 SUB SWAP1 RETURN JUMPDEST CALLVALUE DUP1 ISZERO PUSH2 0x6B3 JUMPI PUSH0 DUP1 REVERT JUMPDEST POP PUSH2 0x6CE PUSH1 0x4 DUP1 CALLDATASIZE SUB DUP2 ADD SWAP1 PUSH2 0x6C9 SWAP2 SWAP1 PUSH2 0x3B36 JUMP JUMPDEST PUSH2 0x1F10 JUMP JUMPDEST PUSH1 0x40 MLOAD PUSH2 0x6DB SWAP2 SWAP1 PUSH2 0x3C18 JUMP JUMPDEST PUSH1 0x40 MLOAD DUP1 SWAP2 SUB SWAP1 RETURN JUMPDEST CALLVALUE DUP1 ISZERO PUSH2 0x6EF JUMPI PUSH0 DUP1 REVERT JUMPDEST POP PUSH2 0x70A PUSH1 0x4 DUP1 CALLDATASIZE SUB DUP2 ADD SWAP1 PUSH2 0x705 SWAP2 SWAP1 PUSH2 0x4340 JUMP JUMPDEST PUSH2 0x20E1 JUMP JUMPDEST PUSH1 0x40 MLOAD PUSH2 0x717 SWAP2 SWAP1 PUSH2 0x3AE2 JUMP JUMPDEST PUSH1 0x40 MLOAD DUP1 SWAP2 SUB SWAP1 RETURN JUMPDEST CALLVALUE DUP1 ISZERO PUSH2 0x72B JUMPI PUSH0 DUP1 REVERT JUMPDEST POP PUSH2 0x746 PUSH1 0x4 DUP1 CALLDATASIZE SUB DUP2 ADD SWAP1 PUSH2 0x741 SWAP2 SWAP1 PUSH2 0x4158 JUMP JUMPDEST PUSH2 0x2163 JUMP JUMPDEST STOP JUMPDEST PUSH1 0x6 PUSH0 SWAP1 SLOAD SWAP1 PUSH2 0x100 EXP SWAP1 DIV PUSH20 0xFFFFFFFFFFFFFFFFFFFFFFFFFFFFFFFFFFFFFFFF AND DUP2 JUMP JUMPDEST PUSH1 0x7 SLOAD DUP2 JUMP JUMPDEST PUSH1 0x60 PUSH0 PUSH2 0x77E PUSH2 0x9F6 JUMP JUMPDEST SWAP1 POP PUSH1 0x8 DUP1 SLOAD SWAP1 POP PUSH8 0xFFFFFFFFFFFFFFFF DUP2 GT ISZERO PUSH2 0x79F JUMPI PUSH2 0x79E PUSH2 0x3DB7 JUMP JUMPDEST JUMPDEST PUSH1 0x40 MLOAD SWAP1 DUP1 DUP3 MSTORE DUP1 PUSH1 0x20 MUL PUSH1 0x20 ADD DUP3 ADD PUSH1 0x40 MSTORE DUP1 ISZERO PUSH2 0x7CD JUMPI DUP2 PUSH1 0x20 ADD PUSH1 0x20 DUP3 MUL DUP1 CALLDATASIZE DUP4 CALLDATACOPY DUP1 DUP3 ADD SWAP2 POP POP SWAP1 POP JUMPDEST POP SWAP2 POP PUSH0 JUMPDEST PUSH1 0x8 DUP1 SLOAD SWAP1 POP DUP2 LT ISZERO PUSH2 0x93D JUMPI PUSH0 DUP3 GT ISZERO PUSH2 0x8D7 JUMPI PUSH0 PUSH1 0x8 DUP3 DUP2 SLOAD DUP2 LT PUSH2 0x7FC JUMPI PUSH2 0x7FB PUSH2 0x437E JUMP JUMPDEST JUMPDEST SWAP1 PUSH0 MSTORE PUSH1 0x20 PUSH0 KECCAK256 ADD PUSH0 SWAP1 SLOAD SWAP1 PUSH2 0x100 EXP SWAP1 DIV PUSH20 0xFFFFFFFFFFFFFFFFFFFFFFFFFFFFFFFFFFFFFFFF AND PUSH20 0xFFFFFFFFFFFFFFFFFFFFFFFFFFFFFFFFFFFFFFFF AND PUSH4 0x70A08231 ADDRESS PUSH1 0x40 MLOAD DUP3 PUSH4 0xFFFFFFFF AND PUSH1 0xE0 SHL DUP2 MSTORE PUSH1 0x4 ADD PUSH2 0x85C SWAP2 SWAP1 PUSH2 0x3AB1 JUMP JUMPDEST PUSH1 0x20 PUSH1 0x40 MLOAD DUP1 DUP4 SUB DUP2 DUP7 GAS STATICCALL ISZERO DUP1 ISZERO PUSH2 0x877 JUMPI RETURNDATASIZE PUSH0 DUP1 RETURNDATACOPY RETURNDATASIZE PUSH0 REVERT JUMPDEST POP POP POP POP PUSH1 0x40 MLOAD RETURNDATASIZE PUSH1 0x1F NOT PUSH1 0x1F DUP3 ADD AND DUP3 ADD DUP1 PUSH1 0x40 MSTORE POP DUP2 ADD SWAP1 PUSH2 0x89B SWAP2 SWAP1 PUSH2 0x43BF JUMP JUMPDEST SWAP1 POP PUSH2 0x8B2 DUP6 DUP5 DUP4 PUSH2 0x21E7 SWAP1 SWAP3 SWAP2 SWAP1 PUSH4 0xFFFFFFFF AND JUMP JUMPDEST DUP5 DUP4 DUP2 MLOAD DUP2 LT PUSH2 0x8C5 JUMPI PUSH2 0x8C4 PUSH2 0x437E JUMP JUMPDEST JUMPDEST PUSH1 0x20 MUL PUSH1 0x20 ADD ADD DUP2 DUP2 MSTORE POP POP POP PUSH2 0x930 JUMP JUMPDEST PUSH2 0x910 PUSH1 0x9 DUP3 DUP2 SLOAD DUP2 LT PUSH2 0x8EE JUMPI PUSH2 0x8ED PUSH2 0x437E JUMP JUMPDEST JUMPDEST SWAP1 PUSH0 MSTORE PUSH1 0x20 PUSH0 KECCAK256 ADD SLOAD PUSH8 0xDE0B6B3A7640000 DUP7 PUSH2 0x21E7 SWAP1 SWAP3 SWAP2 SWAP1 PUSH4 0xFFFFFFFF AND JUMP JUMPDEST DUP4 DUP3 DUP2 MLOAD DUP2 LT PUSH2 0x923 JUMPI PUSH2 0x922 PUSH2 0x437E JUMP JUMPDEST JUMPDEST PUSH1 0x20 MUL PUSH1 0x20 ADD ADD DUP2 DUP2 MSTORE POP POP JUMPDEST DUP1 DUP1 PUSH1 0x1 ADD SWAP2 POP POP PUSH2 0x7D2 JUMP JUMPDEST POP POP SWAP2 SWAP1 POP JUMP JUMPDEST PUSH1 0x60 PUSH1 0x3 DUP1 SLOAD PUSH2 0x953 SWAP1 PUSH2 0x4417 JUMP JUMPDEST DUP1 PUSH1 0x1F ADD PUSH1 0x20 DUP1 SWAP2 DIV MUL PUSH1 0x20 ADD PUSH1 0x40 MLOAD SWAP1 DUP2 ADD PUSH1 0x40 MSTORE DUP1 SWAP3 SWAP2 SWAP1 DUP2 DUP2 MSTORE PUSH1 0x20 ADD DUP3 DUP1 SLOAD PUSH2 0x97F SWAP1 PUSH2 0x4417 JUMP JUMPDEST DUP1 ISZERO PUSH2 0x9CA JUMPI DUP1 PUSH1 0x1F LT PUSH2 0x9A1 JUMPI PUSH2 0x100 DUP1 DUP4 SLOAD DIV MUL DUP4 MSTORE SWAP2 PUSH1 0x20 ADD SWAP2 PUSH2 0x9CA JUMP JUMPDEST DUP3 ADD SWAP2 SWAP1 PUSH0 MSTORE PUSH1 0x20 PUSH0 KECCAK256 SWAP1 JUMPDEST DUP2 SLOAD DUP2 MSTORE SWAP1 PUSH1 0x1 ADD SWAP1 PUSH1 0x20 ADD DUP1 DUP4 GT PUSH2 0x9AD JUMPI DUP3 SWAP1 SUB PUSH1 0x1F AND DUP3 ADD SWAP2 JUMPDEST POP POP POP POP POP SWAP1 POP SWAP1 JUMP JUMPDEST PUSH0 DUP1 PUSH2 0x9DE PUSH2 0x224F JUMP JUMPDEST SWAP1 POP PUSH2 0x9EB DUP2 DUP6 DUP6 PUSH2 0x2256 JUMP JUMPDEST PUSH1 0x1 SWAP2 POP POP SWAP3 SWAP2 POP POP JUMP JUMPDEST PUSH0 PUSH1 0x2 SLOAD SWAP1 POP SWAP1 JUMP JUMPDEST PUSH1 0x6 PUSH1 0x14 SWAP1 SLOAD SWAP1 PUSH2 0x100 EXP SWAP1 DIV PUSH3 0xFFFFFF AND DUP2 JUMP JUMPDEST PUSH2 0xA1E DUP3 DUP3 PUSH2 0x2268 JUMP JUMPDEST POP POP POP JUMP JUMPDEST PUSH0 PUSH2 0xA2C PUSH2 0x18A3 JUMP JUMPDEST SWAP1 POP DUP2 MLOAD DUP2 MLOAD EQ PUSH2 0xA69 JUMPI PUSH1 0x40 MLOAD PUSH32 0x9D89020A00000000000000000000000000000000000000000000000000000000 DUP2 MSTORE PUSH1 0x4 ADD PUSH1 0x40 MLOAD DUP1 SWAP2 SUB SWAP1 REVERT JUMPDEST PUSH0 PUSH2 0xA73 DUP6 PUSH2 0x773 JUMP JUMPDEST SWAP1 POP PUSH2 0xAA2 CALLER ADDRESS DUP7 DUP11 PUSH20 0xFFFFFFFFFFFFFFFFFFFFFFFFFFFFFFFFFFFFFFFF AND PUSH2 0x258B SWAP1 SWAP4 SWAP3 SWAP2 SWAP1 PUSH4 0xFFFFFFFF AND JUMP JUMPDEST PUSH2 0xAAB DUP8 PUSH2 0x260D JUMP JUMPDEST PUSH0 DUP1 PUSH0 SWAP1 POP JUMPDEST DUP4 MLOAD DUP2 LT ISZERO PUSH2 0xD2F JUMPI PUSH0 DUP4 DUP3 DUP2 MLOAD DUP2 LT PUSH2 0xACE JUMPI PUSH2 0xACD PUSH2 0x437E JUMP JUMPDEST JUMPDEST PUSH1 0x20 MUL PUSH1 0x20 ADD ADD MLOAD SUB ISZERO PUSH2 0xD22 JUMPI PUSH2 0xB1B DUP5 DUP3 DUP2 MLOAD DUP2 LT PUSH2 0xAF2 JUMPI PUSH2 0xAF1 PUSH2 0x437E JUMP JUMPDEST JUMPDEST PUSH1 0x20 MUL PUSH1 0x20 ADD ADD MLOAD DUP11 DUP8 DUP5 DUP2 MLOAD DUP2 LT PUSH2 0xB0E JUMPI PUSH2 0xB0D PUSH2 0x437E JUMP JUMPDEST JUMPDEST PUSH1 0x20 MUL PUSH1 0x20 ADD ADD MLOAD PUSH2 0x273D JUMP JUMPDEST PUSH2 0xB76 JUMPI DUP5 DUP2 DUP2 MLOAD DUP2 LT PUSH2 0xB32 JUMPI PUSH2 0xB31 PUSH2 0x437E JUMP JUMPDEST JUMPDEST PUSH1 0x20 MUL PUSH1 0x20 ADD ADD MLOAD PUSH1 0x40 MLOAD PUSH32 0x5C37922300000000000000000000000000000000000000000000000000000000 DUP2 MSTORE PUSH1 0x4 ADD PUSH2 0xB6D SWAP2 SWAP1 PUSH2 0x4499 JUMP JUMPDEST PUSH1 0x40 MLOAD DUP1 SWAP2 SUB SWAP1 REVERT JUMPDEST DUP9 PUSH20 0xFFFFFFFFFFFFFFFFFFFFFFFFFFFFFFFFFFFFFFFF AND DUP5 DUP3 DUP2 MLOAD DUP2 LT PUSH2 0xBA0 JUMPI PUSH2 0xB9F PUSH2 0x437E JUMP JUMPDEST JUMPDEST PUSH1 0x20 MUL PUSH1 0x20 ADD ADD MLOAD PUSH20 0xFFFFFFFFFFFFFFFFFFFFFFFFFFFFFFFFFFFFFFFF AND SUB PUSH2 0xBF0 JUMPI DUP3 DUP2 DUP2 MLOAD DUP2 LT PUSH2 0xBD6 JUMPI PUSH2 0xBD5 PUSH2 0x437E JUMP JUMPDEST JUMPDEST PUSH1 0x20 MUL PUSH1 0x20 ADD ADD MLOAD DUP3 PUSH2 0xBE9 SWAP2 SWAP1 PUSH2 0x44E6 JUMP JUMPDEST SWAP2 POP PUSH2 0xD21 JUMP JUMPDEST PUSH32 0x0 PUSH20 0xFFFFFFFFFFFFFFFFFFFFFFFFFFFFFFFFFFFFFFFF AND PUSH4 0x9B81346 PUSH1 0x40 MLOAD DUP1 PUSH1 0x80 ADD PUSH1 0x40 MSTORE DUP1 DUP9 DUP6 DUP2 MLOAD DUP2 LT PUSH2 0xC4A JUMPI PUSH2 0xC49 PUSH2 0x437E JUMP JUMPDEST JUMPDEST PUSH1 0x20 MUL PUSH1 0x20 ADD ADD MLOAD DUP2 MSTORE PUSH1 0x20 ADD ADDRESS PUSH20 0xFFFFFFFFFFFFFFFFFFFFFFFFFFFFFFFFFFFFFFFF AND DUP2 MSTORE PUSH1 0x20 ADD DUP7 DUP6 DUP2 MLOAD DUP2 LT PUSH2 0xC86 JUMPI PUSH2 0xC85 PUSH2 0x437E JUMP JUMPDEST JUMPDEST PUSH1 0x20 MUL PUSH1 0x20 ADD ADD MLOAD DUP2 MSTORE PUSH1 0x20 ADD PUSH32 0xFFFFFFFFFFFFFFFFFFFFFFFFFFFFFFFFFFFFFFFFFFFFFFFFFFFFFFFFFFFFFFFF DUP2 MSTORE POP PUSH1 0x40 MLOAD DUP3 PUSH4 0xFFFFFFFF AND PUSH1 0xE0 SHL DUP2 MSTORE PUSH1 0x4 ADD PUSH2 0xCD3 SWAP2 SWAP1 PUSH2 0x45C1 JUMP JUMPDEST PUSH1 0x20 PUSH1 0x40 MLOAD DUP1 DUP4 SUB DUP2 PUSH0 DUP8 GAS CALL ISZERO DUP1 ISZERO PUSH2 0xCEF JUMPI RETURNDATASIZE PUSH0 DUP1 RETURNDATACOPY RETURNDATASIZE PUSH0 REVERT JUMPDEST POP POP POP POP PUSH1 0x40 MLOAD RETURNDATASIZE PUSH1 0x1F NOT PUSH1 0x1F DUP3 ADD AND DUP3 ADD DUP1 PUSH1 0x40 MSTORE POP DUP2 ADD SWAP1 PUSH2 0xD13 SWAP2 SWAP1 PUSH2 0x43BF JUMP JUMPDEST DUP3 PUSH2 0xD1E SWAP2 SWAP1 PUSH2 0x44E6 JUMP JUMPDEST SWAP2 POP JUMPDEST JUMPDEST DUP1 DUP1 PUSH1 0x1 ADD SWAP2 POP POP PUSH2 0xAB1 JUMP JUMPDEST POP PUSH0 DUP2 DUP7 PUSH2 0xD3D SWAP2 SWAP1 PUSH2 0x45E1 JUMP JUMPDEST SWAP1 POP PUSH2 0xD6A CALLER DUP3 DUP12 PUSH20 0xFFFFFFFFFFFFFFFFFFFFFFFFFFFFFFFFFFFFFFFF AND PUSH2 0x28CB SWAP1 SWAP3 SWAP2 SWAP1 PUSH4 0xFFFFFFFF AND JUMP JUMPDEST PUSH2 0xD74 DUP9 DUP9 PUSH2 0x294A JUMP JUMPDEST POP DUP9 PUSH20 0xFFFFFFFFFFFFFFFFFFFFFFFFFFFFFFFFFFFFFFFF AND PUSH32 0xD58B185D00630065159DB1D6DF5FEA816128B29100CE9DBC56DD6508E380AA9D DUP10 DUP10 DUP6 PUSH1 0x40 MLOAD PUSH2 0xDBF SWAP4 SWAP3 SWAP2 SWAP1 PUSH2 0x4614 JUMP JUMPDEST PUSH1 0x40 MLOAD DUP1 SWAP2 SUB SWAP1 LOG2 POP POP POP POP POP POP POP POP POP JUMP JUMPDEST PUSH0 DUP1 PUSH2 0xDDC PUSH2 0x224F JUMP JUMPDEST SWAP1 POP PUSH2 0xDE9 DUP6 DUP3 DUP6 PUSH2 0x2A7D JUMP JUMPDEST PUSH2 0xDF4 DUP6 DUP6 DUP6 PUSH2 0x2B0F JUMP JUMPDEST PUSH1 0x1 SWAP2 POP POP SWAP4 SWAP3 POP POP POP JUMP JUMPDEST PUSH0 PUSH1 0x12 SWAP1 POP SWAP1 JUMP JUMPDEST PUSH32 0x0 DUP2 JUMP JUMPDEST PUSH0 PUSH2 0xE35 PUSH2 0x18A3 JUMP JUMPDEST SWAP1 POP DUP2 MLOAD DUP2 MLOAD EQ PUSH2 0xE72 JUMPI PUSH1 0x40 MLOAD PUSH32 0x9D89020A00000000000000000000000000000000000000000000000000000000 DUP2 MSTORE PUSH1 0x4 ADD PUSH1 0x40 MLOAD DUP1 SWAP2 SUB SWAP1 REVERT JUMPDEST PUSH0 PUSH2 0xE7D ADDRESS DUP7 PUSH2 0x2268 JUMP JUMPDEST SWAP1 POP PUSH0 DUP1 PUSH0 SWAP1 POP JUMPDEST DUP4 MLOAD DUP2 LT ISZERO PUSH2 0x1147 JUMPI PUSH0 DUP4 DUP3 DUP2 MLOAD DUP2 LT PUSH2 0xEA2 JUMPI PUSH2 0xEA1 PUSH2 0x437E JUMP JUMPDEST JUMPDEST PUSH1 0x20 MUL PUSH1 0x20 ADD ADD MLOAD SUB ISZERO PUSH2 0x113A JUMPI PUSH2 0xF0F DUP5 DUP3 DUP2 MLOAD DUP2 LT PUSH2 0xEC6 JUMPI PUSH2 0xEC5 PUSH2 0x437E JUMP JUMPDEST JUMPDEST PUSH1 0x20 MUL PUSH1 0x20 ADD ADD MLOAD PUSH32 0x0 DUP8 DUP5 DUP2 MLOAD DUP2 LT PUSH2 0xF02 JUMPI PUSH2 0xF01 PUSH2 0x437E JUMP JUMPDEST JUMPDEST PUSH1 0x20 MUL PUSH1 0x20 ADD ADD MLOAD PUSH2 0x273D JUMP JUMPDEST PUSH2 0xF6A JUMPI DUP5 DUP2 DUP2 MLOAD DUP2 LT PUSH2 0xF26 JUMPI PUSH2 0xF25 PUSH2 0x437E JUMP JUMPDEST JUMPDEST PUSH1 0x20 MUL PUSH1 0x20 ADD ADD MLOAD PUSH1 0x40 MLOAD PUSH32 0x5C37922300000000000000000000000000000000000000000000000000000000 DUP2 MSTORE PUSH1 0x4 ADD PUSH2 0xF61 SWAP2 SWAP1 PUSH2 0x4499 JUMP JUMPDEST PUSH1 0x40 MLOAD DUP1 SWAP2 SUB SWAP1 REVERT JUMPDEST PUSH32 0x0 PUSH20 0xFFFFFFFFFFFFFFFFFFFFFFFFFFFFFFFFFFFFFFFF AND DUP5 DUP3 DUP2 MLOAD DUP2 LT PUSH2 0xFB4 JUMPI PUSH2 0xFB3 PUSH2 0x437E JUMP JUMPDEST JUMPDEST PUSH1 0x20 MUL PUSH1 0x20 ADD ADD MLOAD PUSH20 0xFFFFFFFFFFFFFFFFFFFFFFFFFFFFFFFFFFFFFFFF AND SUB PUSH2 0x1004 JUMPI DUP3 DUP2 DUP2 MLOAD DUP2 LT PUSH2 0xFEA JUMPI PUSH2 0xFE9 PUSH2 0x437E JUMP JUMPDEST JUMPDEST PUSH1 0x20 MUL PUSH1 0x20 ADD ADD MLOAD DUP3 PUSH2 0xFFD SWAP2 SWAP1 PUSH2 0x44E6 JUMP JUMPDEST SWAP2 POP PUSH2 0x1139 JUMP JUMPDEST PUSH2 0x1027 DUP5 DUP3 DUP2 MLOAD DUP2 LT PUSH2 0x101A JUMPI PUSH2 0x1019 PUSH2 0x437E JUMP JUMPDEST JUMPDEST PUSH1 0x20 MUL PUSH1 0x20 ADD ADD MLOAD PUSH2 0x260D JUMP JUMPDEST PUSH32 0x0 PUSH20 0xFFFFFFFFFFFFFFFFFFFFFFFFFFFFFFFFFFFFFFFF AND PUSH4 0xB858183F PUSH1 0x40 MLOAD DUP1 PUSH1 0x80 ADD PUSH1 0x40 MSTORE DUP1 DUP9 DUP6 DUP2 MLOAD DUP2 LT PUSH2 0x1081 JUMPI PUSH2 0x1080 PUSH2 0x437E JUMP JUMPDEST JUMPDEST PUSH1 0x20 MUL PUSH1 0x20 ADD ADD MLOAD DUP2 MSTORE PUSH1 0x20 ADD ADDRESS PUSH20 0xFFFFFFFFFFFFFFFFFFFFFFFFFFFFFFFFFFFFFFFF AND DUP2 MSTORE PUSH1 0x20 ADD DUP7 DUP6 DUP2 MLOAD DUP2 LT PUSH2 0x10BD JUMPI PUSH2 0x10BC PUSH2 0x437E JUMP JUMPDEST JUMPDEST PUSH1 0x20 MUL PUSH1 0x20 ADD ADD MLOAD DUP2 MSTORE PUSH1 0x20 ADD PUSH1 0x1 DUP2 MSTORE POP PUSH1 0x40 MLOAD DUP3 PUSH4 0xFFFFFFFF AND PUSH1 0xE0 SHL DUP2 MSTORE PUSH1 0x4 ADD PUSH2 0x10EB SWAP2 SWAP1 PUSH2 0x46A9 JUMP JUMPDEST PUSH1 0x20 PUSH1 0x40 MLOAD DUP1 DUP4 SUB DUP2 PUSH0 DUP8 GAS CALL ISZERO DUP1 ISZERO PUSH2 0x1107 JUMPI RETURNDATASIZE PUSH0 DUP1 RETURNDATACOPY RETURNDATASIZE PUSH0 REVERT JUMPDEST POP POP POP POP PUSH1 0x40 MLOAD RETURNDATASIZE PUSH1 0x1F NOT PUSH1 0x1F DUP3 ADD AND DUP3 ADD DUP1 PUSH1 0x40 MSTORE POP DUP2 ADD SWAP1 PUSH2 0x112B SWAP2 SWAP1 PUSH2 0x43BF JUMP JUMPDEST DUP3 PUSH2 0x1136 SWAP2 SWAP1 PUSH2 0x44E6 JUMP JUMPDEST SWAP2 POP JUMPDEST JUMPDEST DUP1 DUP1 PUSH1 0x1 ADD SWAP2 POP POP PUSH2 0xE85 JUMP JUMPDEST POP DUP5 DUP2 LT ISZERO PUSH2 0x1182 JUMPI PUSH1 0x40 MLOAD PUSH32 0x93BCE7B300000000000000000000000000000000000000000000000000000000 DUP2 MSTORE PUSH1 0x4 ADD PUSH1 0x40 MLOAD DUP1 SWAP2 SUB SWAP1 REVERT JUMPDEST PUSH32 0x0 PUSH20 0xFFFFFFFFFFFFFFFFFFFFFFFFFFFFFFFFFFFFFFFF AND PUSH4 0x2E1A7D4D DUP3 PUSH1 0x40 MLOAD DUP3 PUSH4 0xFFFFFFFF AND PUSH1 0xE0 SHL DUP2 MSTORE PUSH1 0x4 ADD PUSH2 0x11DB SWAP2 SWAP1 PUSH2 0x3AE2 JUMP JUMPDEST PUSH0 PUSH1 0x40 MLOAD DUP1 DUP4 SUB DUP2 PUSH0 DUP8 DUP1 EXTCODESIZE ISZERO DUP1 ISZERO PUSH2 0x11F2 JUMPI PUSH0 DUP1 REVERT JUMPDEST POP GAS CALL ISZERO DUP1 ISZERO PUSH2 0x1204 JUMPI RETURNDATASIZE PUSH0 DUP1 RETURNDATACOPY RETURNDATASIZE PUSH0 REVERT JUMPDEST POP POP POP POP PUSH2 0x1212 DUP8 DUP3 PUSH2 0x2BFF JUMP JUMPDEST PUSH32 0x786875E1CFB7304A0CB0E3672E281B2D4890F432FDD4C07FC44D687612D52963 DUP8 DUP8 DUP4 PUSH1 0x40 MLOAD PUSH2 0x1245 SWAP4 SWAP3 SWAP2 SWAP1 PUSH2 0x4614 JUMP JUMPDEST PUSH1 0x40 MLOAD DUP1 SWAP2 SUB SWAP1 LOG1 POP POP POP POP POP POP POP JUMP JUMPDEST PUSH2 0x125E PUSH2 0x2CF1 JUMP JUMPDEST PUSH32 0xA9D547BAD523B2016561D73C8B6F0DE927B53E678D07B339173EA7B469EC8969 PUSH1 0x7 SLOAD DUP3 PUSH1 0x40 MLOAD PUSH2 0x1291 SWAP3 SWAP2 SWAP1 PUSH2 0x46C9 JUMP JUMPDEST PUSH1 0x40 MLOAD DUP1 SWAP2 SUB SWAP1 LOG1 DUP1 PUSH1 0x7 DUP2 SWAP1 SSTORE POP POP JUMP JUMPDEST PUSH3 0xF4240 DUP2 JUMP JUMPDEST PUSH0 DUP1 PUSH0 DUP4 PUSH20 0xFFFFFFFFFFFFFFFFFFFFFFFFFFFFFFFFFFFFFFFF AND PUSH20 0xFFFFFFFFFFFFFFFFFFFFFFFFFFFFFFFFFFFFFFFF AND DUP2 MSTORE PUSH1 0x20 ADD SWAP1 DUP2 MSTORE PUSH1 0x20 ADD PUSH0 KECCAK256 SLOAD SWAP1 POP SWAP2 SWAP1 POP JUMP JUMPDEST PUSH2 0x12F7 PUSH2 0x2CF1 JUMP JUMPDEST PUSH2 0x1300 PUSH0 PUSH2 0x2D78 JUMP JUMPDEST JUMP JUMPDEST PUSH1 0x60 PUSH1 0x9 DUP1 SLOAD DUP1 PUSH1 0x20 MUL PUSH1 0x20 ADD PUSH1 0x40 MLOAD SWAP1 DUP2 ADD PUSH1 0x40 MSTORE DUP1 SWAP3 SWAP2 SWAP1 DUP2 DUP2 MSTORE PUSH1 0x20 ADD DUP3 DUP1 SLOAD DUP1 ISZERO PUSH2 0x134E JUMPI PUSH1 0x20 MUL DUP3 ADD SWAP2 SWAP1 PUSH0 MSTORE PUSH1 0x20 PUSH0 KECCAK256 SWAP1 JUMPDEST DUP2 SLOAD DUP2 MSTORE PUSH1 0x20 ADD SWAP1 PUSH1 0x1 ADD SWAP1 DUP1 DUP4 GT PUSH2 0x133A JUMPI JUMPDEST POP POP POP POP POP SWAP1 POP SWAP1 JUMP JUMPDEST PUSH0 PUSH1 0x5 PUSH0 SWAP1 SLOAD SWAP1 PUSH2 0x100 EXP SWAP1 DIV PUSH20 0xFFFFFFFFFFFFFFFFFFFFFFFFFFFFFFFFFFFFFFFF AND SWAP1 POP SWAP1 JUMP JUMPDEST PUSH1 0x60 PUSH1 0x4 DUP1 SLOAD PUSH2 0x138F SWAP1 PUSH2 0x4417 JUMP JUMPDEST DUP1 PUSH1 0x1F ADD PUSH1 0x20 DUP1 SWAP2 DIV MUL PUSH1 0x20 ADD PUSH1 0x40 MLOAD SWAP1 DUP2 ADD PUSH1 0x40 MSTORE DUP1 SWAP3 SWAP2 SWAP1 DUP2 DUP2 MSTORE PUSH1 0x20 ADD DUP3 DUP1 SLOAD PUSH2 0x13BB SWAP1 PUSH2 0x4417 JUMP JUMPDEST DUP1 ISZERO PUSH2 0x1406 JUMPI DUP1 PUSH1 0x1F LT PUSH2 0x13DD JUMPI PUSH2 0x100 DUP1 DUP4 SLOAD DIV MUL DUP4 MSTORE SWAP2 PUSH1 0x20 ADD SWAP2 PUSH2 0x1406 JUMP JUMPDEST DUP3 ADD SWAP2 SWAP1 PUSH0 MSTORE PUSH1 0x20 PUSH0 KECCAK256 SWAP1 JUMPDEST DUP2 SLOAD DUP2 MSTORE SWAP1 PUSH1 0x1 ADD SWAP1 PUSH1 0x20 ADD DUP1 DUP4 GT PUSH2 0x13E9 JUMPI DUP3 SWAP1 SUB PUSH1 0x1F AND DUP3 ADD SWAP2 JUMPDEST POP POP POP POP POP SWAP1 POP SWAP1 JUMP JUMPDEST PUSH1 0x6 PUSH1 0x17 SWAP1 SLOAD SWAP1 PUSH2 0x100 EXP SWAP1 DIV PUSH3 0xFFFFFF AND DUP2 JUMP JUMPDEST PUSH0 PUSH2 0x142E PUSH2 0x18A3 JUMP JUMPDEST SWAP1 POP DUP2 MLOAD DUP2 MLOAD EQ PUSH2 0x146B JUMPI PUSH1 0x40 MLOAD PUSH32 0x9D89020A00000000000000000000000000000000000000000000000000000000 DUP2 MSTORE PUSH1 0x4 ADD PUSH1 0x40 MLOAD DUP1 SWAP2 SUB SWAP1 REVERT JUMPDEST PUSH0 PUSH2 0x1476 ADDRESS DUP7 PUSH2 0x2268 JUMP JUMPDEST SWAP1 POP PUSH0 DUP1 PUSH0 SWAP1 POP JUMPDEST DUP4 MLOAD DUP2 LT ISZERO PUSH2 0x175F JUMPI PUSH0 DUP4 DUP3 DUP2 MLOAD DUP2 LT PUSH2 0x149B JUMPI PUSH2 0x149A PUSH2 0x437E JUMP JUMPDEST JUMPDEST PUSH1 0x20 MUL PUSH1 0x20 ADD ADD MLOAD SUB ISZERO PUSH2 0x1752 JUMPI PUSH2 0x14E8 DUP5 DUP3 DUP2 MLOAD DUP2 LT PUSH2 0x14BF JUMPI PUSH2 0x14BE PUSH2 0x437E JUMP JUMPDEST JUMPDEST PUSH1 0x20 MUL PUSH1 0x20 ADD ADD MLOAD DUP11 DUP8 DUP5 DUP2 MLOAD DUP2 LT PUSH2 0x14DB JUMPI PUSH2 0x14DA PUSH2 0x437E JUMP JUMPDEST JUMPDEST PUSH1 0x20 MUL PUSH1 0x20 ADD ADD MLOAD PUSH2 0x273D JUMP JUMPDEST PUSH2 0x1543 JUMPI DUP5 DUP2 DUP2 MLOAD DUP2 LT PUSH2 0x14FF JUMPI PUSH2 0x14FE PUSH2 0x437E JUMP JUMPDEST JUMPDEST PUSH1 0x20 MUL PUSH1 0x20 ADD ADD MLOAD PUSH1 0x40 MLOAD PUSH32 0x5C37922300000000000000000000000000000000000000000000000000000000 DUP2 MSTORE PUSH1 0x4 ADD PUSH2 0x153A SWAP2 SWAP1 PUSH2 0x4499 JUMP JUMPDEST PUSH1 0x40 MLOAD DUP1 SWAP2 SUB SWAP1 REVERT JUMPDEST DUP9 PUSH20 0xFFFFFFFFFFFFFFFFFFFFFFFFFFFFFFFFFFFFFFFF AND DUP5 DUP3 DUP2 MLOAD DUP2 LT PUSH2 0x156D JUMPI PUSH2 0x156C PUSH2 0x437E JUMP JUMPDEST JUMPDEST PUSH1 0x20 MUL PUSH1 0x20 ADD ADD MLOAD PUSH20 0xFFFFFFFFFFFFFFFFFFFFFFFFFFFFFFFFFFFFFFFF AND SUB PUSH2 0x161C JUMPI PUSH2 0x15EF DUP9 DUP5 DUP4 DUP2 MLOAD DUP2 LT PUSH2 0x15A7 JUMPI PUSH2 0x15A6 PUSH2 0x437E JUMP JUMPDEST JUMPDEST PUSH1 0x20 MUL PUSH1 0x20 ADD ADD MLOAD DUP7 DUP5 DUP2 MLOAD DUP2 LT PUSH2 0x15C2 JUMPI PUSH2 0x15C1 PUSH2 0x437E JUMP JUMPDEST JUMPDEST PUSH1 0x20 MUL PUSH1 0x20 ADD ADD MLOAD PUSH20 0xFFFFFFFFFFFFFFFFFFFFFFFFFFFFFFFFFFFFFFFF AND PUSH2 0x28CB SWAP1 SWAP3 SWAP2 SWAP1 PUSH4 0xFFFFFFFF AND JUMP JUMPDEST DUP3 DUP2 DUP2 MLOAD DUP2 LT PUSH2 0x1602 JUMPI PUSH2 0x1601 PUSH2 0x437E JUMP JUMPDEST JUMPDEST PUSH1 0x20 MUL PUSH1 0x20 ADD ADD MLOAD DUP3 PUSH2 0x1615 SWAP2 SWAP1 PUSH2 0x44E6 JUMP JUMPDEST SWAP2 POP PUSH2 0x1751 JUMP JUMPDEST PUSH2 0x163F DUP5 DUP3 DUP2 MLOAD DUP2 LT PUSH2 0x1632 JUMPI PUSH2 0x1631 PUSH2 0x437E JUMP JUMPDEST JUMPDEST PUSH1 0x20 MUL PUSH1 0x20 ADD ADD MLOAD PUSH2 0x260D JUMP JUMPDEST PUSH32 0x0 PUSH20 0xFFFFFFFFFFFFFFFFFFFFFFFFFFFFFFFFFFFFFFFF AND PUSH4 0xB858183F PUSH1 0x40 MLOAD DUP1 PUSH1 0x80 ADD PUSH1 0x40 MSTORE DUP1 DUP9 DUP6 DUP2 MLOAD DUP2 LT PUSH2 0x1699 JUMPI PUSH2 0x1698 PUSH2 0x437E JUMP JUMPDEST JUMPDEST PUSH1 0x20 MUL PUSH1 0x20 ADD ADD MLOAD DUP2 MSTORE PUSH1 0x20 ADD DUP12 PUSH20 0xFFFFFFFFFFFFFFFFFFFFFFFFFFFFFFFFFFFFFFFF AND DUP2 MSTORE PUSH1 0x20 ADD DUP7 DUP6 DUP2 MLOAD DUP2 LT PUSH2 0x16D5 JUMPI PUSH2 0x16D4 PUSH2 0x437E JUMP JUMPDEST JUMPDEST PUSH1 0x20 MUL PUSH1 0x20 ADD ADD MLOAD DUP2 MSTORE PUSH1 0x20 ADD PUSH1 0x1 DUP2 MSTORE POP PUSH1 0x40 MLOAD DUP3 PUSH4 0xFFFFFFFF AND PUSH1 0xE0 SHL DUP2 MSTORE PUSH1 0x4 ADD PUSH2 0x1703 SWAP2 SWAP1 PUSH2 0x46A9 JUMP JUMPDEST PUSH1 0x20 PUSH1 0x40 MLOAD DUP1 DUP4 SUB DUP2 PUSH0 DUP8 GAS CALL ISZERO DUP1 ISZERO PUSH2 0x171F JUMPI RETURNDATASIZE PUSH0 DUP1 RETURNDATACOPY RETURNDATASIZE PUSH0 REVERT JUMPDEST POP POP POP POP PUSH1 0x40 MLOAD RETURNDATASIZE PUSH1 0x1F NOT PUSH1 0x1F DUP3 ADD AND DUP3 ADD DUP1 PUSH1 0x40 MSTORE POP DUP2 ADD SWAP1 PUSH2 0x1743 SWAP2 SWAP1 PUSH2 0x43BF JUMP JUMPDEST DUP3 PUSH2 0x174E SWAP2 SWAP1 PUSH2 0x44E6 JUMP JUMPDEST SWAP2 POP JUMPDEST JUMPDEST DUP1 DUP1 PUSH1 0x1 ADD SWAP2 POP POP PUSH2 0x147E JUMP JUMPDEST POP DUP5 DUP2 LT ISZERO PUSH2 0x179A JUMPI PUSH1 0x40 MLOAD PUSH32 0x93BCE7B300000000000000000000000000000000000000000000000000000000 DUP2 MSTORE PUSH1 0x4 ADD PUSH1 0x40 MLOAD DUP1 SWAP2 SUB SWAP1 REVERT JUMPDEST DUP8 PUSH20 0xFFFFFFFFFFFFFFFFFFFFFFFFFFFFFFFFFFFFFFFF AND PUSH32 0x19B500572E111E1EFAA6D79E923346AF4412022BA47520AF0AF63701618FA738 DUP9 DUP9 DUP5 PUSH1 0x40 MLOAD PUSH2 0x17E4 SWAP4 SWAP3 SWAP2 SWAP1 PUSH2 0x4614 JUMP JUMPDEST PUSH1 0x40 MLOAD DUP1 SWAP2 SUB SWAP1 LOG2 POP POP POP POP POP POP POP POP JUMP JUMPDEST PUSH2 0x17FE PUSH2 0x2CF1 JUMP JUMPDEST DUP3 PUSH1 0x6 PUSH0 PUSH2 0x100 EXP DUP2 SLOAD DUP2 PUSH20 0xFFFFFFFFFFFFFFFFFFFFFFFFFFFFFFFFFFFFFFFF MUL NOT AND SWAP1 DUP4 PUSH20 0xFFFFFFFFFFFFFFFFFFFFFFFFFFFFFFFFFFFFFFFF AND MUL OR SWAP1 SSTORE POP DUP2 PUSH1 0x6 PUSH1 0x14 PUSH2 0x100 EXP DUP2 SLOAD DUP2 PUSH3 0xFFFFFF MUL NOT AND SWAP1 DUP4 PUSH3 0xFFFFFF AND MUL OR SWAP1 SSTORE POP DUP1 PUSH1 0x6 PUSH1 0x17 PUSH2 0x100 EXP DUP2 SLOAD DUP2 PUSH3 0xFFFFFF MUL NOT AND SWAP1 DUP4 PUSH3 0xFFFFFF AND MUL OR SWAP1 SSTORE POP POP POP POP JUMP JUMPDEST PUSH0 DUP1 PUSH2 0x188B PUSH2 0x224F JUMP JUMPDEST SWAP1 POP PUSH2 0x1898 DUP2 DUP6 DUP6 PUSH2 0x2B0F JUMP JUMPDEST PUSH1 0x1 SWAP2 POP POP SWAP3 SWAP2 POP POP JUMP JUMPDEST PUSH1 0x60 PUSH1 0x8 DUP1 SLOAD DUP1 PUSH1 0x20 MUL PUSH1 0x20 ADD PUSH1 0x40 MLOAD SWAP1 DUP2 ADD PUSH1 0x40 MSTORE DUP1 SWAP3 SWAP2 SWAP1 DUP2 DUP2 MSTORE PUSH1 0x20 ADD DUP3 DUP1 SLOAD DUP1 ISZERO PUSH2 0x1924 JUMPI PUSH1 0x20 MUL DUP3 ADD SWAP2 SWAP1 PUSH0 MSTORE PUSH1 0x20 PUSH0 KECCAK256 SWAP1 JUMPDEST DUP2 PUSH0 SWAP1 SLOAD SWAP1 PUSH2 0x100 EXP SWAP1 DIV PUSH20 0xFFFFFFFFFFFFFFFFFFFFFFFFFFFFFFFFFFFFFFFF AND PUSH20 0xFFFFFFFFFFFFFFFFFFFFFFFFFFFFFFFFFFFFFFFF AND DUP2 MSTORE PUSH1 0x20 ADD SWAP1 PUSH1 0x1 ADD SWAP1 DUP1 DUP4 GT PUSH2 0x18DB JUMPI JUMPDEST POP POP POP POP POP SWAP1 POP SWAP1 JUMP JUMPDEST PUSH0 PUSH2 0x1937 PUSH2 0x18A3 JUMP JUMPDEST SWAP1 POP DUP2 MLOAD DUP2 MLOAD EQ PUSH2 0x1974 JUMPI PUSH1 0x40 MLOAD PUSH32 0x9D89020A00000000000000000000000000000000000000000000000000000000 DUP2 MSTORE PUSH1 0x4 ADD PUSH1 0x40 MLOAD DUP1 SWAP2 SUB SWAP1 REVERT JUMPDEST PUSH0 PUSH2 0x197E DUP5 PUSH2 0x773 JUMP JUMPDEST SWAP1 POP PUSH0 CALLVALUE SWAP1 POP PUSH32 0x0 PUSH20 0xFFFFFFFFFFFFFFFFFFFFFFFFFFFFFFFFFFFFFFFF AND PUSH4 0xD0E30DB0 DUP3 PUSH1 0x40 MLOAD DUP3 PUSH4 0xFFFFFFFF AND PUSH1 0xE0 SHL DUP2 MSTORE PUSH1 0x4 ADD PUSH0 PUSH1 0x40 MLOAD DUP1 DUP4 SUB DUP2 DUP6 DUP9 DUP1 EXTCODESIZE ISZERO DUP1 ISZERO PUSH2 0x19EA JUMPI PUSH0 DUP1 REVERT JUMPDEST POP GAS CALL ISZERO DUP1 ISZERO PUSH2 0x19FC JUMPI RETURNDATASIZE PUSH0 DUP1 RETURNDATACOPY RETURNDATASIZE PUSH0 REVERT JUMPDEST POP POP POP POP POP PUSH2 0x1A2A PUSH32 0x0 PUSH2 0x260D JUMP JUMPDEST PUSH0 DUP1 PUSH0 SWAP1 POP JUMPDEST DUP5 MLOAD DUP2 LT ISZERO PUSH2 0x1CEE JUMPI PUSH0 DUP5 DUP3 DUP2 MLOAD DUP2 LT PUSH2 0x1A4D JUMPI PUSH2 0x1A4C PUSH2 0x437E JUMP JUMPDEST JUMPDEST PUSH1 0x20 MUL PUSH1 0x20 ADD ADD MLOAD SUB ISZERO PUSH2 0x1CE1 JUMPI PUSH2 0x1ABA DUP6 DUP3 DUP2 MLOAD DUP2 LT PUSH2 0x1A71 JUMPI PUSH2 0x1A70 PUSH2 0x437E JUMP JUMPDEST JUMPDEST PUSH1 0x20 MUL PUSH1 0x20 ADD ADD MLOAD PUSH32 0x0 DUP9 DUP5 DUP2 MLOAD DUP2 LT PUSH2 0x1AAD JUMPI PUSH2 0x1AAC PUSH2 0x437E JUMP JUMPDEST JUMPDEST PUSH1 0x20 MUL PUSH1 0x20 ADD ADD MLOAD PUSH2 0x273D JUMP JUMPDEST PUSH2 0x1B15 JUMPI DUP6 DUP2 DUP2 MLOAD DUP2 LT PUSH2 0x1AD1 JUMPI PUSH2 0x1AD0 PUSH2 0x437E JUMP JUMPDEST JUMPDEST PUSH1 0x20 MUL PUSH1 0x20 ADD ADD MLOAD PUSH1 0x40 MLOAD PUSH32 0x5C37922300000000000000000000000000000000000000000000000000000000 DUP2 MSTORE PUSH1 0x4 ADD PUSH2 0x1B0C SWAP2 SWAP1 PUSH2 0x4499 JUMP JUMPDEST PUSH1 0x40 MLOAD DUP1 SWAP2 SUB SWAP1 REVERT JUMPDEST PUSH32 0x0 PUSH20 0xFFFFFFFFFFFFFFFFFFFFFFFFFFFFFFFFFFFFFFFF AND DUP6 DUP3 DUP2 MLOAD DUP2 LT PUSH2 0x1B5F JUMPI PUSH2 0x1B5E PUSH2 0x437E JUMP JUMPDEST JUMPDEST PUSH1 0x20 MUL PUSH1 0x20 ADD ADD MLOAD PUSH20 0xFFFFFFFFFFFFFFFFFFFFFFFFFFFFFFFFFFFFFFFF AND SUB PUSH2 0x1BAF JUMPI DUP4 DUP2 DUP2 MLOAD DUP2 LT PUSH2 0x1B95 JUMPI PUSH2 0x1B94 PUSH2 0x437E JUMP JUMPDEST JUMPDEST PUSH1 0x20 MUL PUSH1 0x20 ADD ADD MLOAD DUP3 PUSH2 0x1BA8 SWAP2 SWAP1 PUSH2 0x44E6 JUMP JUMPDEST SWAP2 POP PUSH2 0x1CE0 JUMP JUMPDEST PUSH32 0x0 PUSH20 0xFFFFFFFFFFFFFFFFFFFFFFFFFFFFFFFFFFFFFFFF AND PUSH4 0x9B81346 PUSH1 0x40 MLOAD DUP1 PUSH1 0x80 ADD PUSH1 0x40 MSTORE DUP1 DUP10 DUP6 DUP2 MLOAD DUP2 LT PUSH2 0x1C09 JUMPI PUSH2 0x1C08 PUSH2 0x437E JUMP JUMPDEST JUMPDEST PUSH1 0x20 MUL PUSH1 0x20 ADD ADD MLOAD DUP2 MSTORE PUSH1 0x20 ADD ADDRESS PUSH20 0xFFFFFFFFFFFFFFFFFFFFFFFFFFFFFFFFFFFFFFFF AND DUP2 MSTORE PUSH1 0x20 ADD DUP8 DUP6 DUP2 MLOAD DUP2 LT PUSH2 0x1C45 JUMPI PUSH2 0x1C44 PUSH2 0x437E JUMP JUMPDEST JUMPDEST PUSH1 0x20 MUL PUSH1 0x20 ADD ADD MLOAD DUP2 MSTORE PUSH1 0x20 ADD PUSH32 0xFFFFFFFFFFFFFFFFFFFFFFFFFFFFFFFFFFFFFFFFFFFFFFFFFFFFFFFFFFFFFFFF DUP2 MSTORE POP PUSH1 0x40 MLOAD DUP3 PUSH4 0xFFFFFFFF AND PUSH1 0xE0 SHL DUP2 MSTORE PUSH1 0x4 ADD PUSH2 0x1C92 SWAP2 SWAP1 PUSH2 0x45C1 JUMP JUMPDEST PUSH1 0x20 PUSH1 0x40 MLOAD DUP1 DUP4 SUB DUP2 PUSH0 DUP8 GAS CALL ISZERO DUP1 ISZERO PUSH2 0x1CAE JUMPI RETURNDATASIZE PUSH0 DUP1 RETURNDATACOPY RETURNDATASIZE PUSH0 REVERT JUMPDEST POP POP POP POP PUSH1 0x40 MLOAD RETURNDATASIZE PUSH1 0x1F NOT PUSH1 0x1F DUP3 ADD AND DUP3 ADD DUP1 PUSH1 0x40 MSTORE POP DUP2 ADD SWAP1 PUSH2 0x1CD2 SWAP2 SWAP1 PUSH2 0x43BF JUMP JUMPDEST DUP3 PUSH2 0x1CDD SWAP2 SWAP1 PUSH2 0x44E6 JUMP JUMPDEST SWAP2 POP JUMPDEST JUMPDEST DUP1 DUP1 PUSH1 0x1 ADD SWAP2 POP POP PUSH2 0x1A30 JUMP JUMPDEST POP PUSH0 DUP2 DUP4 PUSH2 0x1CFC SWAP2 SWAP1 PUSH2 0x45E1 JUMP JUMPDEST SWAP1 POP PUSH32 0x0 PUSH20 0xFFFFFFFFFFFFFFFFFFFFFFFFFFFFFFFFFFFFFFFF AND PUSH4 0x2E1A7D4D DUP3 PUSH1 0x40 MLOAD DUP3 PUSH4 0xFFFFFFFF AND PUSH1 0xE0 SHL DUP2 MSTORE PUSH1 0x4 ADD PUSH2 0x1D57 SWAP2 SWAP1 PUSH2 0x3AE2 JUMP JUMPDEST PUSH0 PUSH1 0x40 MLOAD DUP1 DUP4 SUB DUP2 PUSH0 DUP8 DUP1 EXTCODESIZE ISZERO DUP1 ISZERO PUSH2 0x1D6E JUMPI PUSH0 DUP1 REVERT JUMPDEST POP GAS CALL ISZERO DUP1 ISZERO PUSH2 0x1D80 JUMPI RETURNDATASIZE PUSH0 DUP1 RETURNDATACOPY RETURNDATASIZE PUSH0 REVERT JUMPDEST POP POP POP POP CALLER PUSH20 0xFFFFFFFFFFFFFFFFFFFFFFFFFFFFFFFFFFFFFFFF AND PUSH2 0x8FC DUP3 SWAP1 DUP2 ISZERO MUL SWAP1 PUSH1 0x40 MLOAD PUSH0 PUSH1 0x40 MLOAD DUP1 DUP4 SUB DUP2 DUP6 DUP9 DUP9 CALL SWAP4 POP POP POP POP ISZERO DUP1 ISZERO PUSH2 0x1DC7 JUMPI RETURNDATASIZE PUSH0 DUP1 RETURNDATACOPY RETURNDATASIZE PUSH0 REVERT JUMPDEST POP PUSH2 0x1DD2 DUP9 DUP9 PUSH2 0x294A JUMP JUMPDEST POP PUSH32 0x36E6D1F8E1C4F92E727CCF4A79FFCCBF5C0EF99F5173E9DB300980664A7FF984 DUP9 DUP9 DUP5 PUSH1 0x40 MLOAD PUSH2 0x1E06 SWAP4 SWAP3 SWAP2 SWAP1 PUSH2 0x4614 JUMP JUMPDEST PUSH1 0x40 MLOAD DUP1 SWAP2 SUB SWAP1 LOG1 POP POP POP POP POP POP POP POP JUMP JUMPDEST PUSH0 PUSH2 0x1E23 DUP4 DUP4 PUSH2 0x294A JUMP JUMPDEST SWAP1 POP PUSH0 JUMPDEST PUSH1 0x8 DUP1 SLOAD SWAP1 POP DUP2 LT ISZERO PUSH2 0x1EE6 JUMPI PUSH0 DUP3 DUP3 DUP2 MLOAD DUP2 LT PUSH2 0x1E48 JUMPI PUSH2 0x1E47 PUSH2 0x437E JUMP JUMPDEST JUMPDEST PUSH1 0x20 MUL PUSH1 0x20 ADD ADD MLOAD GT ISZERO PUSH2 0x1ED9 JUMPI PUSH2 0x1ED8 CALLER ADDRESS DUP5 DUP5 DUP2 MLOAD DUP2 LT PUSH2 0x1E6E JUMPI PUSH2 0x1E6D PUSH2 0x437E JUMP JUMPDEST JUMPDEST PUSH1 0x20 MUL PUSH1 0x20 ADD ADD MLOAD PUSH1 0x8 DUP6 DUP2 SLOAD DUP2 LT PUSH2 0x1E8A JUMPI PUSH2 0x1E89 PUSH2 0x437E JUMP JUMPDEST JUMPDEST SWAP1 PUSH0 MSTORE PUSH1 0x20 PUSH0 KECCAK256 ADD PUSH0 SWAP1 SLOAD SWAP1 PUSH2 0x100 EXP SWAP1 DIV PUSH20 0xFFFFFFFFFFFFFFFFFFFFFFFFFFFFFFFFFFFFFFFF AND PUSH20 0xFFFFFFFFFFFFFFFFFFFFFFFFFFFFFFFFFFFFFFFF AND PUSH2 0x258B SWAP1 SWAP4 SWAP3 SWAP2 SWAP1 PUSH4 0xFFFFFFFF AND JUMP JUMPDEST JUMPDEST DUP1 DUP1 PUSH1 0x1 ADD SWAP2 POP POP PUSH2 0x1E27 JUMP JUMPDEST POP POP POP POP JUMP JUMPDEST PUSH32 0x0 DUP2 JUMP JUMPDEST PUSH1 0x60 PUSH0 PUSH1 0x6 PUSH1 0x17 SWAP1 SLOAD SWAP1 PUSH2 0x100 EXP SWAP1 DIV PUSH3 0xFFFFFF AND PUSH3 0xFFFFFF AND GT ISZERO PUSH2 0x1F78 JUMPI PUSH0 PUSH3 0xF4240 PUSH3 0xFFFFFF AND PUSH1 0x6 PUSH1 0x17 SWAP1 SLOAD SWAP1 PUSH2 0x100 EXP SWAP1 DIV PUSH3 0xFFFFFF AND PUSH3 0xFFFFFF AND DUP5 PUSH2 0x1F5C SWAP2 SWAP1 PUSH2 0x46F0 JUMP JUMPDEST PUSH2 0x1F66 SWAP2 SWAP1 PUSH2 0x475E JUMP JUMPDEST SWAP1 POP DUP1 DUP4 PUSH2 0x1F74 SWAP2 SWAP1 PUSH2 0x45E1 JUMP JUMPDEST SWAP3 POP POP JUMPDEST PUSH0 PUSH2 0x1F81 PUSH2 0x9F6 JUMP JUMPDEST SWAP1 POP PUSH1 0x8 DUP1 SLOAD SWAP1 POP PUSH8 0xFFFFFFFFFFFFFFFF DUP2 GT ISZERO PUSH2 0x1FA2 JUMPI PUSH2 0x1FA1 PUSH2 0x3DB7 JUMP JUMPDEST JUMPDEST PUSH1 0x40 MLOAD SWAP1 DUP1 DUP3 MSTORE DUP1 PUSH1 0x20 MUL PUSH1 0x20 ADD DUP3 ADD PUSH1 0x40 MSTORE DUP1 ISZERO PUSH2 0x1FD0 JUMPI DUP2 PUSH1 0x20 ADD PUSH1 0x20 DUP3 MUL DUP1 CALLDATASIZE DUP4 CALLDATACOPY DUP1 DUP3 ADD SWAP2 POP POP SWAP1 POP JUMPDEST POP SWAP2 POP PUSH0 JUMPDEST PUSH1 0x8 DUP1 SLOAD SWAP1 POP DUP2 LT ISZERO PUSH2 0x20DA JUMPI PUSH0 PUSH1 0x8 DUP3 DUP2 SLOAD DUP2 LT PUSH2 0x1FF7 JUMPI PUSH2 0x1FF6 PUSH2 0x437E JUMP JUMPDEST JUMPDEST SWAP1 PUSH0 MSTORE PUSH1 0x20 PUSH0 KECCAK256 ADD PUSH0 SWAP1 SLOAD SWAP1 PUSH2 0x100 EXP SWAP1 DIV PUSH20 0xFFFFFFFFFFFFFFFFFFFFFFFFFFFFFFFFFFFFFFFF AND PUSH20 0xFFFFFFFFFFFFFFFFFFFFFFFFFFFFFFFFFFFFFFFF AND PUSH4 0x70A08231 ADDRESS PUSH1 0x40 MLOAD DUP3 PUSH4 0xFFFFFFFF AND PUSH1 0xE0 SHL DUP2 MSTORE PUSH1 0x4 ADD PUSH2 0x2057 SWAP2 SWAP1 PUSH2 0x3AB1 JUMP JUMPDEST PUSH1 0x20 PUSH1 0x40 MLOAD DUP1 DUP4 SUB DUP2 DUP7 GAS STATICCALL ISZERO DUP1 ISZERO PUSH2 0x2072 JUMPI RETURNDATASIZE PUSH0 DUP1 RETURNDATACOPY RETURNDATASIZE PUSH0 REVERT JUMPDEST POP POP POP POP PUSH1 0x40 MLOAD RETURNDATASIZE PUSH1 0x1F NOT PUSH1 0x1F DUP3 ADD AND DUP3 ADD DUP1 PUSH1 0x40 MSTORE POP DUP2 ADD SWAP1 PUSH2 0x2096 SWAP2 SWAP1 PUSH2 0x43BF JUMP JUMPDEST SWAP1 POP PUSH2 0x20AD DUP6 DUP5 DUP4 PUSH2 0x2E3B SWAP1 SWAP3 SWAP2 SWAP1 PUSH4 0xFFFFFFFF AND JUMP JUMPDEST DUP5 DUP4 DUP2 MLOAD DUP2 LT PUSH2 0x20C0 JUMPI PUSH2 0x20BF PUSH2 0x437E JUMP JUMPDEST JUMPDEST PUSH1 0x20 MUL PUSH1 0x20 ADD ADD DUP2 DUP2 MSTORE POP POP POP DUP1 DUP1 PUSH1 0x1 ADD SWAP2 POP POP PUSH2 0x1FD5 JUMP JUMPDEST POP POP SWAP2 SWAP1 POP JUMP JUMPDEST PUSH0 PUSH1 0x1 PUSH0 DUP5 PUSH20 0xFFFFFFFFFFFFFFFFFFFFFFFFFFFFFFFFFFFFFFFF AND PUSH20 0xFFFFFFFFFFFFFFFFFFFFFFFFFFFFFFFFFFFFFFFF AND DUP2 MSTORE PUSH1 0x20 ADD SWAP1 DUP2 MSTORE PUSH1 0x20 ADD PUSH0 KECCAK256 PUSH0 DUP4 PUSH20 0xFFFFFFFFFFFFFFFFFFFFFFFFFFFFFFFFFFFFFFFF AND PUSH20 0xFFFFFFFFFFFFFFFFFFFFFFFFFFFFFFFFFFFFFFFF AND DUP2 MSTORE PUSH1 0x20 ADD SWAP1 DUP2 MSTORE PUSH1 0x20 ADD PUSH0 KECCAK256 SLOAD SWAP1 POP SWAP3 SWAP2 POP POP JUMP JUMPDEST PUSH2 0x216B PUSH2 0x2CF1 JUMP JUMPDEST PUSH0 PUSH20 0xFFFFFFFFFFFFFFFFFFFFFFFFFFFFFFFFFFFFFFFF AND DUP2 PUSH20 0xFFFFFFFFFFFFFFFFFFFFFFFFFFFFFFFFFFFFFFFF AND SUB PUSH2 0x21DB JUMPI PUSH0 PUSH1 0x40 MLOAD PUSH32 0x1E4FBDF700000000000000000000000000000000000000000000000000000000 DUP2 MSTORE PUSH1 0x4 ADD PUSH2 0x21D2 SWAP2 SWAP1 PUSH2 0x3AB1 JUMP JUMPDEST PUSH1 0x40 MLOAD DUP1 SWAP2 SUB SWAP1 REVERT JUMPDEST PUSH2 0x21E4 DUP2 PUSH2 0x2D78 JUMP JUMPDEST POP JUMP JUMPDEST PUSH0 PUSH2 0x21F3 DUP5 DUP5 DUP5 PUSH2 0x2E3B JUMP JUMPDEST SWAP1 POP PUSH0 DUP3 DUP1 PUSH2 0x2205 JUMPI PUSH2 0x2204 PUSH2 0x4731 JUMP JUMPDEST JUMPDEST DUP5 DUP7 MULMOD GT ISZERO PUSH2 0x2248 JUMPI PUSH32 0xFFFFFFFFFFFFFFFFFFFFFFFFFFFFFFFFFFFFFFFFFFFFFFFFFFFFFFFFFFFFFFFF DUP2 LT PUSH2 0x2239 JUMPI PUSH0 DUP1 REVERT JUMPDEST DUP1 DUP1 PUSH2 0x2244 SWAP1 PUSH2 0x478E JUMP JUMPDEST SWAP2 POP POP JUMPDEST SWAP4 SWAP3 POP POP POP JUMP JUMPDEST PUSH0 CALLER SWAP1 POP SWAP1 JUMP JUMPDEST PUSH2 0x2263 DUP4 DUP4 DUP4 PUSH1 0x1 PUSH2 0x2FD1 JUMP JUMPDEST POP POP POP JUMP JUMPDEST PUSH1 0x60 PUSH0 PUSH2 0x2273 PUSH2 0x9F6 JUMP JUMPDEST SWAP1 POP PUSH1 0x8 DUP1 SLOAD SWAP1 POP PUSH8 0xFFFFFFFFFFFFFFFF DUP2 GT ISZERO PUSH2 0x2294 JUMPI PUSH2 0x2293 PUSH2 0x3DB7 JUMP JUMPDEST JUMPDEST PUSH1 0x40 MLOAD SWAP1 DUP1 DUP3 MSTORE DUP1 PUSH1 0x20 MUL PUSH1 0x20 ADD DUP3 ADD PUSH1 0x40 MSTORE DUP1 ISZERO PUSH2 0x22C2 JUMPI DUP2 PUSH1 0x20 ADD PUSH1 0x20 DUP3 MUL DUP1 CALLDATASIZE DUP4 CALLDATACOPY DUP1 DUP3 ADD SWAP2 POP POP SWAP1 POP JUMPDEST POP SWAP2 POP PUSH2 0x22CF CALLER DUP5 PUSH2 0x31A0 JUMP JUMPDEST PUSH0 DUP1 PUSH1 0x6 PUSH1 0x17 SWAP1 SLOAD SWAP1 PUSH2 0x100 EXP SWAP1 DIV PUSH3 0xFFFFFF AND PUSH3 0xFFFFFF AND GT ISZERO PUSH2 0x2351 JUMPI PUSH3 0xF4240 PUSH3 0xFFFFFF AND PUSH1 0x6 PUSH1 0x17 SWAP1 SLOAD SWAP1 PUSH2 0x100 EXP SWAP1 DIV PUSH3 0xFFFFFF AND PUSH3 0xFFFFFF AND DUP6 PUSH2 0x2319 SWAP2 SWAP1 PUSH2 0x46F0 JUMP JUMPDEST PUSH2 0x2323 SWAP2 SWAP1 PUSH2 0x475E JUMP JUMPDEST SWAP1 POP PUSH2 0x2350 PUSH1 0x6 PUSH0 SWAP1 SLOAD SWAP1 PUSH2 0x100 EXP SWAP1 DIV PUSH20 0xFFFFFFFFFFFFFFFFFFFFFFFFFFFFFFFFFFFFFFFF AND DUP3 PUSH2 0x321F JUMP JUMPDEST JUMPDEST PUSH0 DUP2 DUP6 PUSH2 0x235E SWAP2 SWAP1 PUSH2 0x45E1 JUMP JUMPDEST SWAP1 POP PUSH0 JUMPDEST PUSH1 0x8 DUP1 SLOAD SWAP1 POP DUP2 LT ISZERO PUSH2 0x2542 JUMPI PUSH0 PUSH1 0x8 DUP3 DUP2 SLOAD DUP2 LT PUSH2 0x2384 JUMPI PUSH2 0x2383 PUSH2 0x437E JUMP JUMPDEST JUMPDEST SWAP1 PUSH0 MSTORE PUSH1 0x20 PUSH0 KECCAK256 ADD PUSH0 SWAP1 SLOAD SWAP1 PUSH2 0x100 EXP SWAP1 DIV PUSH20 0xFFFFFFFFFFFFFFFFFFFFFFFFFFFFFFFFFFFFFFFF AND PUSH20 0xFFFFFFFFFFFFFFFFFFFFFFFFFFFFFFFFFFFFFFFF AND PUSH4 0x70A08231 ADDRESS PUSH1 0x40 MLOAD DUP3 PUSH4 0xFFFFFFFF AND PUSH1 0xE0 SHL DUP2 MSTORE PUSH1 0x4 ADD PUSH2 0x23E4 SWAP2 SWAP1 PUSH2 0x3AB1 JUMP JUMPDEST PUSH1 0x20 PUSH1 0x40 MLOAD DUP1 DUP4 SUB DUP2 DUP7 GAS STATICCALL ISZERO DUP1 ISZERO PUSH2 0x23FF JUMPI RETURNDATASIZE PUSH0 DUP1 RETURNDATACOPY RETURNDATASIZE PUSH0 REVERT JUMPDEST POP POP POP POP PUSH1 0x40 MLOAD RETURNDATASIZE PUSH1 0x1F NOT PUSH1 0x1F DUP3 ADD AND DUP3 ADD DUP1 PUSH1 0x40 MSTORE POP DUP2 ADD SWAP1 PUSH2 0x2423 SWAP2 SWAP1 PUSH2 0x43BF JUMP JUMPDEST SWAP1 POP PUSH2 0x243A DUP4 DUP7 DUP4 PUSH2 0x2E3B SWAP1 SWAP3 SWAP2 SWAP1 PUSH4 0xFFFFFFFF AND JUMP JUMPDEST DUP7 DUP4 DUP2 MLOAD DUP2 LT PUSH2 0x244D JUMPI PUSH2 0x244C PUSH2 0x437E JUMP JUMPDEST JUMPDEST PUSH1 0x20 MUL PUSH1 0x20 ADD ADD DUP2 DUP2 MSTORE POP POP ADDRESS PUSH20 0xFFFFFFFFFFFFFFFFFFFFFFFFFFFFFFFFFFFFFFFF AND DUP9 PUSH20 0xFFFFFFFFFFFFFFFFFFFFFFFFFFFFFFFFFFFFFFFF AND EQ ISZERO DUP1 ISZERO PUSH2 0x24AE JUMPI POP PUSH0 DUP7 DUP4 DUP2 MLOAD DUP2 LT PUSH2 0x24A4 JUMPI PUSH2 0x24A3 PUSH2 0x437E JUMP JUMPDEST JUMPDEST PUSH1 0x20 MUL PUSH1 0x20 ADD ADD MLOAD GT JUMPDEST ISZERO PUSH2 0x2534 JUMPI PUSH2 0x2533 DUP9 DUP8 DUP5 DUP2 MLOAD DUP2 LT PUSH2 0x24CA JUMPI PUSH2 0x24C9 PUSH2 0x437E JUMP JUMPDEST JUMPDEST PUSH1 0x20 MUL PUSH1 0x20 ADD ADD MLOAD PUSH1 0x8 DUP6 DUP2 SLOAD DUP2 LT PUSH2 0x24E6 JUMPI PUSH2 0x24E5 PUSH2 0x437E JUMP JUMPDEST JUMPDEST SWAP1 PUSH0 MSTORE PUSH1 0x20 PUSH0 KECCAK256 ADD PUSH0 SWAP1 SLOAD SWAP1 PUSH2 0x100 EXP SWAP1 DIV PUSH20 0xFFFFFFFFFFFFFFFFFFFFFFFFFFFFFFFFFFFFFFFF AND PUSH20 0xFFFFFFFFFFFFFFFFFFFFFFFFFFFFFFFFFFFFFFFF AND PUSH2 0x28CB SWAP1 SWAP3 SWAP2 SWAP1 PUSH4 0xFFFFFFFF AND JUMP JUMPDEST JUMPDEST POP DUP1 DUP1 PUSH1 0x1 ADD SWAP2 POP POP PUSH2 0x2362 JUMP JUMPDEST POP PUSH32 0x626F4593F8E12E62B00D18BB3073D2CBE173B9415CDB7B39ED0609569B66F560 CALLER DUP8 DUP8 DUP6 DUP9 PUSH1 0x40 MLOAD PUSH2 0x257A SWAP6 SWAP5 SWAP4 SWAP3 SWAP2 SWAP1 PUSH2 0x47D5 JUMP JUMPDEST PUSH1 0x40 MLOAD DUP1 SWAP2 SUB SWAP1 LOG1 POP POP POP SWAP3 SWAP2 POP POP JUMP JUMPDEST PUSH2 0x2607 DUP5 DUP6 PUSH20 0xFFFFFFFFFFFFFFFFFFFFFFFFFFFFFFFFFFFFFFFF AND PUSH4 0x23B872DD DUP7 DUP7 DUP7 PUSH1 0x40 MLOAD PUSH1 0x24 ADD PUSH2 0x25C0 SWAP4 SWAP3 SWAP2 SWAP1 PUSH2 0x482D JUMP JUMPDEST PUSH1 0x40 MLOAD PUSH1 0x20 DUP2 DUP4 SUB SUB DUP2 MSTORE SWAP1 PUSH1 0x40 MSTORE SWAP2 POP PUSH1 0xE0 SHL PUSH1 0x20 DUP3 ADD DUP1 MLOAD PUSH28 0xFFFFFFFFFFFFFFFFFFFFFFFFFFFFFFFFFFFFFFFFFFFFFFFFFFFFFFFF DUP4 DUP2 DUP4 AND OR DUP4 MSTORE POP POP POP POP PUSH2 0x329E JUMP JUMPDEST POP POP POP POP JUMP JUMPDEST PUSH32 0xFFFFFFFFFFFFFFFFFFFFFFFFFFFFFFFFFFFFFFFFFFFFFFFFFFFFFFFFFFFFFFFF DUP2 PUSH20 0xFFFFFFFFFFFFFFFFFFFFFFFFFFFFFFFFFFFFFFFF AND PUSH4 0xDD62ED3E ADDRESS PUSH32 0x0 PUSH1 0x40 MLOAD DUP4 PUSH4 0xFFFFFFFF AND PUSH1 0xE0 SHL DUP2 MSTORE PUSH1 0x4 ADD PUSH2 0x2689 SWAP3 SWAP2 SWAP1 PUSH2 0x4862 JUMP JUMPDEST PUSH1 0x20 PUSH1 0x40 MLOAD DUP1 DUP4 SUB DUP2 DUP7 GAS STATICCALL ISZERO DUP1 ISZERO PUSH2 0x26A4 JUMPI RETURNDATASIZE PUSH0 DUP1 RETURNDATACOPY RETURNDATASIZE PUSH0 REVERT JUMPDEST POP POP POP POP PUSH1 0x40 MLOAD RETURNDATASIZE PUSH1 0x1F NOT PUSH1 0x1F DUP3 ADD AND DUP3 ADD DUP1 PUSH1 0x40 MSTORE POP DUP2 ADD SWAP1 PUSH2 0x26C8 SWAP2 SWAP1 PUSH2 0x43BF JUMP JUMPDEST LT ISZERO PUSH2 0x273A JUMPI PUSH2 0x2739 PUSH32 0x0 PUSH32 0xFFFFFFFFFFFFFFFFFFFFFFFFFFFFFFFFFFFFFFFFFFFFFFFFFFFFFFFFFFFFFFFF DUP4 PUSH20 0xFFFFFFFFFFFFFFFFFFFFFFFFFFFFFFFFFFFFFFFF AND PUSH2 0x3339 SWAP1 SWAP3 SWAP2 SWAP1 PUSH4 0xFFFFFFFF AND JUMP JUMPDEST JUMPDEST POP JUMP JUMPDEST PUSH0 DUP1 PUSH0 PUSH2 0x2749 DUP5 PUSH2 0x3446 JUMP JUMPDEST POP SWAP2 POP SWAP2 POP DUP5 PUSH20 0xFFFFFFFFFFFFFFFFFFFFFFFFFFFFFFFFFFFFFFFF AND DUP7 PUSH20 0xFFFFFFFFFFFFFFFFFFFFFFFFFFFFFFFFFFFFFFFF AND SUB PUSH2 0x2813 JUMPI DUP6 PUSH20 0xFFFFFFFFFFFFFFFFFFFFFFFFFFFFFFFFFFFFFFFF AND DUP3 PUSH20 0xFFFFFFFFFFFFFFFFFFFFFFFFFFFFFFFFFFFFFFFF AND EQ DUP1 ISZERO PUSH2 0x27E7 JUMPI POP DUP6 PUSH20 0xFFFFFFFFFFFFFFFFFFFFFFFFFFFFFFFFFFFFFFFF AND DUP2 PUSH20 0xFFFFFFFFFFFFFFFFFFFFFFFFFFFFFFFFFFFFFFFF AND EQ JUMPDEST DUP1 ISZERO PUSH2 0x27F9 JUMPI POP PUSH2 0x27F7 DUP5 PUSH2 0x349D JUMP JUMPDEST ISZERO JUMPDEST ISZERO PUSH2 0x2809 JUMPI PUSH1 0x1 SWAP3 POP POP POP PUSH2 0x28C4 JUMP JUMPDEST PUSH0 SWAP3 POP POP POP PUSH2 0x28C4 JUMP JUMPDEST DUP6 PUSH20 0xFFFFFFFFFFFFFFFFFFFFFFFFFFFFFFFFFFFFFFFF AND DUP3 PUSH20 0xFFFFFFFFFFFFFFFFFFFFFFFFFFFFFFFFFFFFFFFF AND EQ PUSH2 0x2850 JUMPI PUSH0 SWAP3 POP POP POP PUSH2 0x28C4 JUMP JUMPDEST JUMPDEST PUSH2 0x285A DUP5 PUSH2 0x349D JUMP JUMPDEST ISZERO PUSH2 0x286F JUMPI PUSH2 0x2868 DUP5 PUSH2 0x34DB JUMP JUMPDEST SWAP4 POP PUSH2 0x2851 JUMP JUMPDEST PUSH2 0x2878 DUP5 PUSH2 0x3446 JUMP JUMPDEST SWAP1 SWAP2 POP POP DUP1 SWAP2 POP POP DUP5 PUSH20 0xFFFFFFFFFFFFFFFFFFFFFFFFFFFFFFFFFFFFFFFF AND DUP2 PUSH20 0xFFFFFFFFFFFFFFFFFFFFFFFFFFFFFFFFFFFFFFFF AND EQ PUSH2 0x28BD JUMPI PUSH0 SWAP3 POP POP POP PUSH2 0x28C4 JUMP JUMPDEST PUSH1 0x1 SWAP3 POP POP POP JUMPDEST SWAP4 SWAP3 POP POP POP JUMP JUMPDEST PUSH2 0x2945 DUP4 DUP5 PUSH20 0xFFFFFFFFFFFFFFFFFFFFFFFFFFFFFFFFFFFFFFFF AND PUSH4 0xA9059CBB DUP6 DUP6 PUSH1 0x40 MLOAD PUSH1 0x24 ADD PUSH2 0x28FE SWAP3 SWAP2 SWAP1 PUSH2 0x4889 JUMP JUMPDEST PUSH1 0x40 MLOAD PUSH1 0x20 DUP2 DUP4 SUB SUB DUP2 MSTORE SWAP1 PUSH1 0x40 MSTORE SWAP2 POP PUSH1 0xE0 SHL PUSH1 0x20 DUP3 ADD DUP1 MLOAD PUSH28 0xFFFFFFFFFFFFFFFFFFFFFFFFFFFFFFFFFFFFFFFFFFFFFFFFFFFFFFFF DUP4 DUP2 DUP4 AND OR DUP4 MSTORE POP POP POP POP PUSH2 0x329E JUMP JUMPDEST POP POP POP JUMP JUMPDEST PUSH1 0x60 PUSH1 0x7 SLOAD DUP3 LT ISZERO PUSH2 0x2988 JUMPI PUSH1 0x40 MLOAD PUSH32 0xDB49828E00000000000000000000000000000000000000000000000000000000 DUP2 MSTORE PUSH1 0x4 ADD PUSH1 0x40 MLOAD DUP1 SWAP2 SUB SWAP1 REVERT JUMPDEST PUSH2 0x2991 DUP3 PUSH2 0x773 JUMP JUMPDEST SWAP1 POP PUSH0 DUP1 PUSH1 0x6 PUSH1 0x14 SWAP1 SLOAD SWAP1 PUSH2 0x100 EXP SWAP1 DIV PUSH3 0xFFFFFF AND PUSH3 0xFFFFFF AND GT ISZERO PUSH2 0x2A2E JUMPI PUSH3 0xF4240 PUSH3 0xFFFFFF AND PUSH1 0x6 PUSH1 0x14 SWAP1 SLOAD SWAP1 PUSH2 0x100 EXP SWAP1 DIV PUSH3 0xFFFFFF AND PUSH3 0xFFFFFF AND DUP5 PUSH2 0x29DD SWAP2 SWAP1 PUSH2 0x46F0 JUMP JUMPDEST PUSH2 0x29E7 SWAP2 SWAP1 PUSH2 0x475E JUMP JUMPDEST SWAP1 POP PUSH2 0x2A14 PUSH1 0x6 PUSH0 SWAP1 SLOAD SWAP1 PUSH2 0x100 EXP SWAP1 DIV PUSH20 0xFFFFFFFFFFFFFFFFFFFFFFFFFFFFFFFFFFFFFFFF AND DUP3 PUSH2 0x321F JUMP JUMPDEST PUSH2 0x2A29 DUP5 DUP3 DUP6 PUSH2 0x2A24 SWAP2 SWAP1 PUSH2 0x45E1 JUMP JUMPDEST PUSH2 0x321F JUMP JUMPDEST PUSH2 0x2A39 JUMP JUMPDEST PUSH2 0x2A38 DUP5 DUP5 PUSH2 0x321F JUMP JUMPDEST JUMPDEST PUSH32 0xA7F6B1CB38AC5FBCAE3BBAA808D1F2AAAD5C8DA1DD8F1D960088082F84013953 DUP5 DUP5 DUP4 DUP6 PUSH1 0x40 MLOAD PUSH2 0x2A6E SWAP5 SWAP4 SWAP3 SWAP2 SWAP1 PUSH2 0x48B0 JUMP JUMPDEST PUSH1 0x40 MLOAD DUP1 SWAP2 SUB SWAP1 LOG1 POP SWAP3 SWAP2 POP POP JUMP JUMPDEST PUSH0 PUSH2 0x2A88 DUP5 DUP5 PUSH2 0x20E1 JUMP JUMPDEST SWAP1 POP PUSH32 0xFFFFFFFFFFFFFFFFFFFFFFFFFFFFFFFFFFFFFFFFFFFFFFFFFFFFFFFFFFFFFFFF DUP2 EQ PUSH2 0x2B09 JUMPI DUP2 DUP2 LT ISZERO PUSH2 0x2AFA JUMPI DUP3 DUP2 DUP4 PUSH1 0x40 MLOAD PUSH32 0xFB8F41B200000000000000000000000000000000000000000000000000000000 DUP2 MSTORE PUSH1 0x4 ADD PUSH2 0x2AF1 SWAP4 SWAP3 SWAP2 SWAP1 PUSH2 0x4614 JUMP JUMPDEST PUSH1 0x40 MLOAD DUP1 SWAP2 SUB SWAP1 REVERT JUMPDEST PUSH2 0x2B08 DUP5 DUP5 DUP5 DUP5 SUB PUSH0 PUSH2 0x2FD1 JUMP JUMPDEST JUMPDEST POP POP POP POP JUMP JUMPDEST PUSH0 PUSH20 0xFFFFFFFFFFFFFFFFFFFFFFFFFFFFFFFFFFFFFFFF AND DUP4 PUSH20 0xFFFFFFFFFFFFFFFFFFFFFFFFFFFFFFFFFFFFFFFF AND SUB PUSH2 0x2B7F JUMPI PUSH0 PUSH1 0x40 MLOAD PUSH32 0x96C6FD1E00000000000000000000000000000000000000000000000000000000 DUP2 MSTORE PUSH1 0x4 ADD PUSH2 0x2B76 SWAP2 SWAP1 PUSH2 0x3AB1 JUMP JUMPDEST PUSH1 0x40 MLOAD DUP1 SWAP2 SUB SWAP1 REVERT JUMPDEST PUSH0 PUSH20 0xFFFFFFFFFFFFFFFFFFFFFFFFFFFFFFFFFFFFFFFF AND DUP3 PUSH20 0xFFFFFFFFFFFFFFFFFFFFFFFFFFFFFFFFFFFFFFFF AND SUB PUSH2 0x2BEF JUMPI PUSH0 PUSH1 0x40 MLOAD PUSH32 0xEC442F0500000000000000000000000000000000000000000000000000000000 DUP2 MSTORE PUSH1 0x4 ADD PUSH2 0x2BE6 SWAP2 SWAP1 PUSH2 0x3AB1 JUMP JUMPDEST PUSH1 0x40 MLOAD DUP1 SWAP2 SUB SWAP1 REVERT JUMPDEST PUSH2 0x2BFA DUP4 DUP4 DUP4 PUSH2 0x351F JUMP JUMPDEST POP POP POP JUMP JUMPDEST PUSH0 DUP3 PUSH20 0xFFFFFFFFFFFFFFFFFFFFFFFFFFFFFFFFFFFFFFFF AND DUP3 PUSH0 PUSH8 0xFFFFFFFFFFFFFFFF DUP2 GT ISZERO PUSH2 0x2C32 JUMPI PUSH2 0x2C31 PUSH2 0x3DB7 JUMP JUMPDEST JUMPDEST PUSH1 0x40 MLOAD SWAP1 DUP1 DUP3 MSTORE DUP1 PUSH1 0x1F ADD PUSH1 0x1F NOT AND PUSH1 0x20 ADD DUP3 ADD PUSH1 0x40 MSTORE DUP1 ISZERO PUSH2 0x2C64 JUMPI DUP2 PUSH1 0x20 ADD PUSH1 0x1 DUP3 MUL DUP1 CALLDATASIZE DUP4 CALLDATACOPY DUP1 DUP3 ADD SWAP2 POP POP SWAP1 POP JUMPDEST POP PUSH1 0x40 MLOAD PUSH2 0x2C72 SWAP2 SWAP1 PUSH2 0x4934 JUMP JUMPDEST PUSH0 PUSH1 0x40 MLOAD DUP1 DUP4 SUB DUP2 DUP6 DUP8 GAS CALL SWAP3 POP POP POP RETURNDATASIZE DUP1 PUSH0 DUP2 EQ PUSH2 0x2CAC JUMPI PUSH1 0x40 MLOAD SWAP2 POP PUSH1 0x1F NOT PUSH1 0x3F RETURNDATASIZE ADD AND DUP3 ADD PUSH1 0x40 MSTORE RETURNDATASIZE DUP3 MSTORE RETURNDATASIZE PUSH0 PUSH1 0x20 DUP5 ADD RETURNDATACOPY PUSH2 0x2CB1 JUMP JUMPDEST PUSH1 0x60 SWAP2 POP JUMPDEST POP POP SWAP1 POP DUP1 PUSH2 0x2CEC JUMPI PUSH1 0x40 MLOAD PUSH32 0x67ECC5F00000000000000000000000000000000000000000000000000000000 DUP2 MSTORE PUSH1 0x4 ADD PUSH1 0x40 MLOAD DUP1 SWAP2 SUB SWAP1 REVERT JUMPDEST POP POP POP JUMP JUMPDEST PUSH2 0x2CF9 PUSH2 0x224F JUMP JUMPDEST PUSH20 0xFFFFFFFFFFFFFFFFFFFFFFFFFFFFFFFFFFFFFFFF AND PUSH2 0x2D17 PUSH2 0x1358 JUMP JUMPDEST PUSH20 0xFFFFFFFFFFFFFFFFFFFFFFFFFFFFFFFFFFFFFFFF AND EQ PUSH2 0x2D76 JUMPI PUSH2 0x2D3A PUSH2 0x224F JUMP JUMPDEST PUSH1 0x40 MLOAD PUSH32 0x118CDAA700000000000000000000000000000000000000000000000000000000 DUP2 MSTORE PUSH1 0x4 ADD PUSH2 0x2D6D SWAP2 SWAP1 PUSH2 0x3AB1 JUMP JUMPDEST PUSH1 0x40 MLOAD DUP1 SWAP2 SUB SWAP1 REVERT JUMPDEST JUMP JUMPDEST PUSH0 PUSH1 0x5 PUSH0 SWAP1 SLOAD SWAP1 PUSH2 0x100 EXP SWAP1 DIV PUSH20 0xFFFFFFFFFFFFFFFFFFFFFFFFFFFFFFFFFFFFFFFF AND SWAP1 POP DUP2 PUSH1 0x5 PUSH0 PUSH2 0x100 EXP DUP2 SLOAD DUP2 PUSH20 0xFFFFFFFFFFFFFFFFFFFFFFFFFFFFFFFFFFFFFFFF MUL NOT AND SWAP1 DUP4 PUSH20 0xFFFFFFFFFFFFFFFFFFFFFFFFFFFFFFFFFFFFFFFF AND MUL OR SWAP1 SSTORE POP DUP2 PUSH20 0xFFFFFFFFFFFFFFFFFFFFFFFFFFFFFFFFFFFFFFFF AND DUP2 PUSH20 0xFFFFFFFFFFFFFFFFFFFFFFFFFFFFFFFFFFFFFFFF AND PUSH32 0x8BE0079C531659141344CD1FD0A4F28419497F9722A3DAAFE3B4186F6B6457E0 PUSH1 0x40 MLOAD PUSH1 0x40 MLOAD DUP1 SWAP2 SUB SWAP1 LOG3 POP POP JUMP JUMPDEST PUSH0 DUP1 PUSH0 DUP1 NOT DUP6 DUP8 MULMOD DUP6 DUP8 MUL SWAP3 POP DUP3 DUP2 LT DUP4 DUP3 SUB SUB SWAP2 POP POP PUSH0 DUP2 SUB PUSH2 0x2E70 JUMPI PUSH0 DUP5 GT PUSH2 0x2E64 JUMPI PUSH0 DUP1 REVERT JUMPDEST DUP4 DUP3 DIV SWAP3 POP POP POP PUSH2 0x2FCA JUMP JUMPDEST DUP1 DUP5 GT PUSH2 0x2E7B JUMPI PUSH0 DUP1 REVERT JUMPDEST PUSH0 DUP5 DUP7 DUP9 MULMOD SWAP1 POP DUP3 DUP2 GT DUP3 SUB SWAP2 POP DUP1 DUP4 SUB SWAP3 POP PUSH0 DUP6 PUSH1 0x1 DUP8 NOT PUSH2 0x2E9E SWAP2 SWAP1 PUSH2 0x44E6 JUMP JUMPDEST AND SWAP1 POP DUP1 DUP7 DIV SWAP6 POP DUP1 DUP5 DIV SWAP4 POP PUSH1 0x1 DUP2 DUP3 PUSH0 SUB DIV ADD SWAP1 POP DUP1 DUP4 PUSH2 0x2EC1 SWAP2 SWAP1 PUSH2 0x46F0 JUMP JUMPDEST DUP5 OR SWAP4 POP PUSH0 PUSH1 0x2 DUP8 PUSH1 0x3 PUSH2 0x2ED5 SWAP2 SWAP1 PUSH2 0x46F0 JUMP JUMPDEST XOR SWAP1 POP DUP1 DUP8 PUSH2 0x2EE4 SWAP2 SWAP1 PUSH2 0x46F0 JUMP JUMPDEST PUSH1 0x2 PUSH2 0x2EF0 SWAP2 SWAP1 PUSH2 0x45E1 JUMP JUMPDEST DUP2 PUSH2 0x2EFB SWAP2 SWAP1 PUSH2 0x46F0 JUMP JUMPDEST SWAP1 POP DUP1 DUP8 PUSH2 0x2F09 SWAP2 SWAP1 PUSH2 0x46F0 JUMP JUMPDEST PUSH1 0x2 PUSH2 0x2F15 SWAP2 SWAP1 PUSH2 0x45E1 JUMP JUMPDEST DUP2 PUSH2 0x2F20 SWAP2 SWAP1 PUSH2 0x46F0 JUMP JUMPDEST SWAP1 POP DUP1 DUP8 PUSH2 0x2F2E SWAP2 SWAP1 PUSH2 0x46F0 JUMP JUMPDEST PUSH1 0x2 PUSH2 0x2F3A SWAP2 SWAP1 PUSH2 0x45E1 JUMP JUMPDEST DUP2 PUSH2 0x2F45 SWAP2 SWAP1 PUSH2 0x46F0 JUMP JUMPDEST SWAP1 POP DUP1 DUP8 PUSH2 0x2F53 SWAP2 SWAP1 PUSH2 0x46F0 JUMP JUMPDEST PUSH1 0x2 PUSH2 0x2F5F SWAP2 SWAP1 PUSH2 0x45E1 JUMP JUMPDEST DUP2 PUSH2 0x2F6A SWAP2 SWAP1 PUSH2 0x46F0 JUMP JUMPDEST SWAP1 POP DUP1 DUP8 PUSH2 0x2F78 SWAP2 SWAP1 PUSH2 0x46F0 JUMP JUMPDEST PUSH1 0x2 PUSH2 0x2F84 SWAP2 SWAP1 PUSH2 0x45E1 JUMP JUMPDEST DUP2 PUSH2 0x2F8F SWAP2 SWAP1 PUSH2 0x46F0 JUMP JUMPDEST SWAP1 POP DUP1 DUP8 PUSH2 0x2F9D SWAP2 SWAP1 PUSH2 0x46F0 JUMP JUMPDEST PUSH1 0x2 PUSH2 0x2FA9 SWAP2 SWAP1 PUSH2 0x45E1 JUMP JUMPDEST DUP2 PUSH2 0x2FB4 SWAP2 SWAP1 PUSH2 0x46F0 JUMP JUMPDEST SWAP1 POP DUP1 DUP6 PUSH2 0x2FC2 SWAP2 SWAP1 PUSH2 0x46F0 JUMP JUMPDEST SWAP6 POP POP POP POP POP POP JUMPDEST SWAP4 SWAP3 POP POP POP JUMP JUMPDEST PUSH0 PUSH20 0xFFFFFFFFFFFFFFFFFFFFFFFFFFFFFFFFFFFFFFFF AND DUP5 PUSH20 0xFFFFFFFFFFFFFFFFFFFFFFFFFFFFFFFFFFFFFFFF AND SUB PUSH2 0x3041 JUMPI PUSH0 PUSH1 0x40 MLOAD PUSH32 0xE602DF0500000000000000000000000000000000000000000000000000000000 DUP2 MSTORE PUSH1 0x4 ADD PUSH2 0x3038 SWAP2 SWAP1 PUSH2 0x3AB1 JUMP JUMPDEST PUSH1 0x40 MLOAD DUP1 SWAP2 SUB SWAP1 REVERT JUMPDEST PUSH0 PUSH20 0xFFFFFFFFFFFFFFFFFFFFFFFFFFFFFFFFFFFFFFFF AND DUP4 PUSH20 0xFFFFFFFFFFFFFFFFFFFFFFFFFFFFFFFFFFFFFFFF AND SUB PUSH2 0x30B1 JUMPI PUSH0 PUSH1 0x40 MLOAD PUSH32 0x94280D6200000000000000000000000000000000000000000000000000000000 DUP2 MSTORE PUSH1 0x4 ADD PUSH2 0x30A8 SWAP2 SWAP1 PUSH2 0x3AB1 JUMP JUMPDEST PUSH1 0x40 MLOAD DUP1 SWAP2 SUB SWAP1 REVERT JUMPDEST DUP2 PUSH1 0x1 PUSH0 DUP7 PUSH20 0xFFFFFFFFFFFFFFFFFFFFFFFFFFFFFFFFFFFFFFFF AND PUSH20 0xFFFFFFFFFFFFFFFFFFFFFFFFFFFFFFFFFFFFFFFF AND DUP2 MSTORE PUSH1 0x20 ADD SWAP1 DUP2 MSTORE PUSH1 0x20 ADD PUSH0 KECCAK256 PUSH0 DUP6 PUSH20 0xFFFFFFFFFFFFFFFFFFFFFFFFFFFFFFFFFFFFFFFF AND PUSH20 0xFFFFFFFFFFFFFFFFFFFFFFFFFFFFFFFFFFFFFFFF AND DUP2 MSTORE PUSH1 0x20 ADD SWAP1 DUP2 MSTORE PUSH1 0x20 ADD PUSH0 KECCAK256 DUP2 SWAP1 SSTORE POP DUP1 ISZERO PUSH2 0x319A JUMPI DUP3 PUSH20 0xFFFFFFFFFFFFFFFFFFFFFFFFFFFFFFFFFFFFFFFF AND DUP5 PUSH20 0xFFFFFFFFFFFFFFFFFFFFFFFFFFFFFFFFFFFFFFFF AND PUSH32 0x8C5BE1E5EBEC7D5BD14F71427D1E84F3DD0314C0F7B2291E5B200AC8C7C3B925 DUP5 PUSH1 0x40 MLOAD PUSH2 0x3191 SWAP2 SWAP1 PUSH2 0x3AE2 JUMP JUMPDEST PUSH1 0x40 MLOAD DUP1 SWAP2 SUB SWAP1 LOG3 JUMPDEST POP POP POP POP JUMP JUMPDEST PUSH0 PUSH20 0xFFFFFFFFFFFFFFFFFFFFFFFFFFFFFFFFFFFFFFFF AND DUP3 PUSH20 0xFFFFFFFFFFFFFFFFFFFFFFFFFFFFFFFFFFFFFFFF AND SUB PUSH2 0x3210 JUMPI PUSH0 PUSH1 0x40 MLOAD PUSH32 0x96C6FD1E00000000000000000000000000000000000000000000000000000000 DUP2 MSTORE PUSH1 0x4 ADD PUSH2 0x3207 SWAP2 SWAP1 PUSH2 0x3AB1 JUMP JUMPDEST PUSH1 0x40 MLOAD DUP1 SWAP2 SUB SWAP1 REVERT JUMPDEST PUSH2 0x321B DUP3 PUSH0 DUP4 PUSH2 0x351F JUMP JUMPDEST POP POP JUMP JUMPDEST PUSH0 PUSH20 0xFFFFFFFFFFFFFFFFFFFFFFFFFFFFFFFFFFFFFFFF AND DUP3 PUSH20 0xFFFFFFFFFFFFFFFFFFFFFFFFFFFFFFFFFFFFFFFF AND SUB PUSH2 0x328F JUMPI PUSH0 PUSH1 0x40 MLOAD PUSH32 0xEC442F0500000000000000000000000000000000000000000000000000000000 DUP2 MSTORE PUSH1 0x4 ADD PUSH2 0x3286 SWAP2 SWAP1 PUSH2 0x3AB1 JUMP JUMPDEST PUSH1 0x40 MLOAD DUP1 SWAP2 SUB SWAP1 REVERT JUMPDEST PUSH2 0x329A PUSH0 DUP4 DUP4 PUSH2 0x351F JUMP JUMPDEST POP POP JUMP JUMPDEST PUSH0 DUP1 PUSH1 0x20 PUSH0 DUP5 MLOAD PUSH1 0x20 DUP7 ADD PUSH0 DUP9 GAS CALL DUP1 PUSH2 0x32BD JUMPI PUSH1 0x40 MLOAD RETURNDATASIZE PUSH0 DUP3 RETURNDATACOPY RETURNDATASIZE DUP2 REVERT JUMPDEST RETURNDATASIZE SWAP3 POP PUSH0 MLOAD SWAP2 POP POP PUSH0 DUP3 EQ PUSH2 0x32D6 JUMPI PUSH1 0x1 DUP2 EQ ISZERO PUSH2 0x32F1 JUMP JUMPDEST PUSH0 DUP5 PUSH20 0xFFFFFFFFFFFFFFFFFFFFFFFFFFFFFFFFFFFFFFFF AND EXTCODESIZE EQ JUMPDEST ISZERO PUSH2 0x3333 JUMPI DUP4 PUSH1 0x40 MLOAD PUSH32 0x5274AFE700000000000000000000000000000000000000000000000000000000 DUP2 MSTORE PUSH1 0x4 ADD PUSH2 0x332A SWAP2 SWAP1 PUSH2 0x3AB1 JUMP JUMPDEST PUSH1 0x40 MLOAD DUP1 SWAP2 SUB SWAP1 REVERT JUMPDEST POP POP POP POP JUMP JUMPDEST PUSH0 DUP4 PUSH20 0xFFFFFFFFFFFFFFFFFFFFFFFFFFFFFFFFFFFFFFFF AND PUSH4 0x95EA7B3 DUP5 DUP5 PUSH1 0x40 MLOAD PUSH1 0x24 ADD PUSH2 0x3369 SWAP3 SWAP2 SWAP1 PUSH2 0x4889 JUMP JUMPDEST PUSH1 0x40 MLOAD PUSH1 0x20 DUP2 DUP4 SUB SUB DUP2 MSTORE SWAP1 PUSH1 0x40 MSTORE SWAP2 POP PUSH1 0xE0 SHL PUSH1 0x20 DUP3 ADD DUP1 MLOAD PUSH28 0xFFFFFFFFFFFFFFFFFFFFFFFFFFFFFFFFFFFFFFFFFFFFFFFFFFFFFFFF DUP4 DUP2 DUP4 AND OR DUP4 MSTORE POP POP POP POP SWAP1 POP PUSH2 0x33B7 DUP5 DUP3 PUSH2 0x3738 JUMP JUMPDEST PUSH2 0x3440 JUMPI PUSH2 0x3435 DUP5 DUP6 PUSH20 0xFFFFFFFFFFFFFFFFFFFFFFFFFFFFFFFFFFFFFFFF AND PUSH4 0x95EA7B3 DUP7 PUSH0 PUSH1 0x40 MLOAD PUSH1 0x24 ADD PUSH2 0x33EE SWAP3 SWAP2 SWAP1 PUSH2 0x498C JUMP JUMPDEST PUSH1 0x40 MLOAD PUSH1 0x20 DUP2 DUP4 SUB SUB DUP2 MSTORE SWAP1 PUSH1 0x40 MSTORE SWAP2 POP PUSH1 0xE0 SHL PUSH1 0x20 DUP3 ADD DUP1 MLOAD PUSH28 0xFFFFFFFFFFFFFFFFFFFFFFFFFFFFFFFFFFFFFFFFFFFFFFFFFFFFFFFF DUP4 DUP2 DUP4 AND OR DUP4 MSTORE POP POP POP POP PUSH2 0x329E JUMP JUMPDEST PUSH2 0x343F DUP5 DUP3 PUSH2 0x329E JUMP JUMPDEST JUMPDEST POP POP POP POP JUMP JUMPDEST PUSH0 DUP1 PUSH0 PUSH2 0x345C PUSH0 DUP6 PUSH2 0x3791 SWAP1 SWAP2 SWAP1 PUSH4 0xFFFFFFFF AND JUMP JUMPDEST SWAP3 POP PUSH2 0x3472 PUSH1 0x14 DUP6 PUSH2 0x3854 SWAP1 SWAP2 SWAP1 PUSH4 0xFFFFFFFF AND JUMP JUMPDEST SWAP1 POP PUSH2 0x3494 PUSH1 0x3 PUSH1 0x14 PUSH2 0x3485 SWAP2 SWAP1 PUSH2 0x44E6 JUMP JUMPDEST DUP6 PUSH2 0x3791 SWAP1 SWAP2 SWAP1 PUSH4 0xFFFFFFFF AND JUMP JUMPDEST SWAP2 POP SWAP2 SWAP4 SWAP1 SWAP3 POP JUMP JUMPDEST PUSH0 PUSH1 0x3 PUSH1 0x14 PUSH2 0x34AC SWAP2 SWAP1 PUSH2 0x44E6 JUMP JUMPDEST PUSH1 0x14 PUSH1 0x3 PUSH1 0x14 PUSH2 0x34BC SWAP2 SWAP1 PUSH2 0x44E6 JUMP JUMPDEST PUSH2 0x34C6 SWAP2 SWAP1 PUSH2 0x44E6 JUMP JUMPDEST PUSH2 0x34D0 SWAP2 SWAP1 PUSH2 0x44E6 JUMP JUMPDEST DUP3 MLOAD LT ISZERO SWAP1 POP SWAP2 SWAP1 POP JUMP JUMPDEST PUSH1 0x60 PUSH2 0x3518 PUSH1 0x3 PUSH1 0x14 PUSH2 0x34EE SWAP2 SWAP1 PUSH2 0x44E6 JUMP JUMPDEST PUSH1 0x3 PUSH1 0x14 PUSH2 0x34FC SWAP2 SWAP1 PUSH2 0x44E6 JUMP JUMPDEST DUP5 MLOAD PUSH2 0x3508 SWAP2 SWAP1 PUSH2 0x45E1 JUMP JUMPDEST DUP5 PUSH2 0x3908 SWAP1 SWAP3 SWAP2 SWAP1 PUSH4 0xFFFFFFFF AND JUMP JUMPDEST SWAP1 POP SWAP2 SWAP1 POP JUMP JUMPDEST PUSH0 PUSH20 0xFFFFFFFFFFFFFFFFFFFFFFFFFFFFFFFFFFFFFFFF AND DUP4 PUSH20 0xFFFFFFFFFFFFFFFFFFFFFFFFFFFFFFFFFFFFFFFF AND SUB PUSH2 0x356F JUMPI DUP1 PUSH1 0x2 PUSH0 DUP3 DUP3 SLOAD PUSH2 0x3563 SWAP2 SWAP1 PUSH2 0x44E6 JUMP JUMPDEST SWAP3 POP POP DUP2 SWAP1 SSTORE POP PUSH2 0x363D JUMP JUMPDEST PUSH0 DUP1 PUSH0 DUP6 PUSH20 0xFFFFFFFFFFFFFFFFFFFFFFFFFFFFFFFFFFFFFFFF AND PUSH20 0xFFFFFFFFFFFFFFFFFFFFFFFFFFFFFFFFFFFFFFFF AND DUP2 MSTORE PUSH1 0x20 ADD SWAP1 DUP2 MSTORE PUSH1 0x20 ADD PUSH0 KECCAK256 SLOAD SWAP1 POP DUP2 DUP2 LT ISZERO PUSH2 0x35F8 JUMPI DUP4 DUP2 DUP4 PUSH1 0x40 MLOAD PUSH32 0xE450D38C00000000000000000000000000000000000000000000000000000000 DUP2 MSTORE PUSH1 0x4 ADD PUSH2 0x35EF SWAP4 SWAP3 SWAP2 SWAP1 PUSH2 0x4614 JUMP JUMPDEST PUSH1 0x40 MLOAD DUP1 SWAP2 SUB SWAP1 REVERT JUMPDEST DUP2 DUP2 SUB PUSH0 DUP1 DUP7 PUSH20 0xFFFFFFFFFFFFFFFFFFFFFFFFFFFFFFFFFFFFFFFF AND PUSH20 0xFFFFFFFFFFFFFFFFFFFFFFFFFFFFFFFFFFFFFFFF AND DUP2 MSTORE PUSH1 0x20 ADD SWAP1 DUP2 MSTORE PUSH1 0x20 ADD PUSH0 KECCAK256 DUP2 SWAP1 SSTORE POP POP JUMPDEST PUSH0 PUSH20 0xFFFFFFFFFFFFFFFFFFFFFFFFFFFFFFFFFFFFFFFF AND DUP3 PUSH20 0xFFFFFFFFFFFFFFFFFFFFFFFFFFFFFFFFFFFFFFFF AND SUB PUSH2 0x3684 JUMPI DUP1 PUSH1 0x2 PUSH0 DUP3 DUP3 SLOAD SUB SWAP3 POP POP DUP2 SWAP1 SSTORE POP PUSH2 0x36CE JUMP JUMPDEST DUP1 PUSH0 DUP1 DUP5 PUSH20 0xFFFFFFFFFFFFFFFFFFFFFFFFFFFFFFFFFFFFFFFF AND PUSH20 0xFFFFFFFFFFFFFFFFFFFFFFFFFFFFFFFFFFFFFFFF AND DUP2 MSTORE PUSH1 0x20 ADD SWAP1 DUP2 MSTORE PUSH1 0x20 ADD PUSH0 KECCAK256 PUSH0 DUP3 DUP3 SLOAD ADD SWAP3 POP POP DUP2 SWAP1 SSTORE POP JUMPDEST DUP2 PUSH20 0xFFFFFFFFFFFFFFFFFFFFFFFFFFFFFFFFFFFFFFFF AND DUP4 PUSH20 0xFFFFFFFFFFFFFFFFFFFFFFFFFFFFFFFFFFFFFFFF AND PUSH32 0xDDF252AD1BE2C89B69C2B068FC378DAA952BA7F163C4A11628F55A4DF523B3EF DUP4 PUSH1 0x40 MLOAD PUSH2 0x372B SWAP2 SWAP1 PUSH2 0x3AE2 JUMP JUMPDEST PUSH1 0x40 MLOAD DUP1 SWAP2 SUB SWAP1 LOG3 POP POP POP JUMP JUMPDEST PUSH0 DUP1 PUSH0 DUP1 PUSH1 0x20 PUSH0 DUP7 MLOAD PUSH1 0x20 DUP9 ADD PUSH0 DUP11 GAS CALL SWAP3 POP RETURNDATASIZE SWAP2 POP PUSH0 MLOAD SWAP1 POP DUP3 DUP1 ISZERO PUSH2 0x3786 JUMPI POP PUSH0 DUP3 EQ PUSH2 0x376A JUMPI PUSH1 0x1 DUP2 EQ PUSH2 0x3785 JUMP JUMPDEST PUSH0 DUP7 PUSH20 0xFFFFFFFFFFFFFFFFFFFFFFFFFFFFFFFFFFFFFFFF AND EXTCODESIZE GT JUMPDEST JUMPDEST SWAP4 POP POP POP POP SWAP3 SWAP2 POP POP JUMP JUMPDEST PUSH0 DUP2 PUSH1 0x14 DUP4 PUSH2 0x37A0 SWAP2 SWAP1 PUSH2 0x44E6 JUMP JUMPDEST LT ISZERO PUSH2 0x37E1 JUMPI PUSH1 0x40 MLOAD PUSH32 0x8C379A000000000000000000000000000000000000000000000000000000000 DUP2 MSTORE PUSH1 0x4 ADD PUSH2 0x37D8 SWAP1 PUSH2 0x49FD JUMP JUMPDEST PUSH1 0x40 MLOAD DUP1 SWAP2 SUB SWAP1 REVERT JUMPDEST PUSH1 0x14 DUP3 PUSH2 0x37EE SWAP2 SWAP1 PUSH2 0x44E6 JUMP JUMPDEST DUP4 MLOAD LT ISZERO PUSH2 0x3831 JUMPI PUSH1 0x40 MLOAD PUSH32 0x8C379A000000000000000000000000000000000000000000000000000000000 DUP2 MSTORE PUSH1 0x4 ADD PUSH2 0x3828 SWAP1 PUSH2 0x4A65 JUMP JUMPDEST PUSH1 0x40 MLOAD DUP1 SWAP2 SUB SWAP1 REVERT JUMPDEST PUSH0 PUSH13 0x1000000000000000000000000 DUP4 PUSH1 0x20 DUP7 ADD ADD MLOAD DIV SWAP1 POP DUP1 SWAP2 POP POP SWAP3 SWAP2 POP POP JUMP JUMPDEST PUSH0 DUP2 PUSH1 0x3 DUP4 PUSH2 0x3863 SWAP2 SWAP1 PUSH2 0x44E6 JUMP JUMPDEST LT ISZERO PUSH2 0x38A4 JUMPI PUSH1 0x40 MLOAD PUSH32 0x8C379A000000000000000000000000000000000000000000000000000000000 DUP2 MSTORE PUSH1 0x4 ADD PUSH2 0x389B SWAP1 PUSH2 0x4ACD JUMP JUMPDEST PUSH1 0x40 MLOAD DUP1 SWAP2 SUB SWAP1 REVERT JUMPDEST PUSH1 0x3 DUP3 PUSH2 0x38B1 SWAP2 SWAP1 PUSH2 0x44E6 JUMP JUMPDEST DUP4 MLOAD LT ISZERO PUSH2 0x38F4 JUMPI PUSH1 0x40 MLOAD PUSH32 0x8C379A000000000000000000000000000000000000000000000000000000000 DUP2 MSTORE PUSH1 0x4 ADD PUSH2 0x38EB SWAP1 PUSH2 0x4B35 JUMP JUMPDEST PUSH1 0x40 MLOAD DUP1 SWAP2 SUB SWAP1 REVERT JUMPDEST PUSH0 DUP3 PUSH1 0x3 DUP6 ADD ADD MLOAD SWAP1 POP DUP1 SWAP2 POP POP SWAP3 SWAP2 POP POP JUMP JUMPDEST PUSH1 0x60 DUP2 PUSH1 0x1F DUP4 PUSH2 0x3918 SWAP2 SWAP1 PUSH2 0x44E6 JUMP JUMPDEST LT ISZERO PUSH2 0x3959 JUMPI PUSH1 0x40 MLOAD PUSH32 0x8C379A000000000000000000000000000000000000000000000000000000000 DUP2 MSTORE PUSH1 0x4 ADD PUSH2 0x3950 SWAP1 PUSH2 0x4B9D JUMP JUMPDEST PUSH1 0x40 MLOAD DUP1 SWAP2 SUB SWAP1 REVERT JUMPDEST DUP3 DUP3 DUP5 PUSH2 0x3966 SWAP2 SWAP1 PUSH2 0x44E6 JUMP JUMPDEST LT ISZERO PUSH2 0x39A7 JUMPI PUSH1 0x40 MLOAD PUSH32 0x8C379A000000000000000000000000000000000000000000000000000000000 DUP2 MSTORE PUSH1 0x4 ADD PUSH2 0x399E SWAP1 PUSH2 0x4B9D JUMP JUMPDEST PUSH1 0x40 MLOAD DUP1 SWAP2 SUB SWAP1 REVERT JUMPDEST DUP2 DUP4 PUSH2 0x39B3 SWAP2 SWAP1 PUSH2 0x44E6 JUMP JUMPDEST DUP5 MLOAD LT ISZERO PUSH2 0x39F6 JUMPI PUSH1 0x40 MLOAD PUSH32 0x8C379A000000000000000000000000000000000000000000000000000000000 DUP2 MSTORE PUSH1 0x4 ADD PUSH2 0x39ED SWAP1 PUSH2 0x4C05 JUMP JUMPDEST PUSH1 0x40 MLOAD DUP1 SWAP2 SUB SWAP1 REVERT JUMPDEST PUSH1 0x60 DUP3 ISZERO PUSH0 DUP2 EQ PUSH2 0x3A15 JUMPI PUSH1 0x40 MLOAD SWAP2 POP PUSH0 DUP3 MSTORE PUSH1 0x20 DUP3 ADD PUSH1 0x40 MSTORE PUSH2 0x3A66 JUMP JUMPDEST PUSH1 0x40 MLOAD SWAP2 POP PUSH1 0x1F DUP5 AND DUP1 ISZERO PUSH1 0x20 MUL DUP2 DUP5 ADD ADD DUP6 DUP2 ADD DUP8 DUP4 ISZERO PUSH1 0x20 MUL DUP5 DUP12 ADD ADD ADD JUMPDEST DUP2 DUP4 LT ISZERO PUSH2 0x3A53 JUMPI DUP1 MLOAD DUP4 MSTORE PUSH1 0x20 DUP4 ADD SWAP3 POP PUSH1 0x20 DUP2 ADD SWAP1 POP PUSH2 0x3A36 JUMP JUMPDEST POP DUP7 DUP6 MSTORE PUSH1 0x1F NOT PUSH1 0x1F DUP4 ADD AND PUSH1 0x40 MSTORE POP POP POP JUMPDEST POP DUP1 SWAP2 POP POP SWAP4 SWAP3 POP POP POP JUMP JUMPDEST PUSH0 PUSH20 0xFFFFFFFFFFFFFFFFFFFFFFFFFFFFFFFFFFFFFFFF DUP3 AND SWAP1 POP SWAP2 SWAP1 POP JUMP JUMPDEST PUSH0 PUSH2 0x3A9B DUP3 PUSH2 0x3A72 JUMP JUMPDEST SWAP1 POP SWAP2 SWAP1 POP JUMP JUMPDEST PUSH2 0x3AAB DUP2 PUSH2 0x3A91 JUMP JUMPDEST DUP3 MSTORE POP POP JUMP JUMPDEST PUSH0 PUSH1 0x20 DUP3 ADD SWAP1 POP PUSH2 0x3AC4 PUSH0 DUP4 ADD DUP5 PUSH2 0x3AA2 JUMP JUMPDEST SWAP3 SWAP2 POP POP JUMP JUMPDEST PUSH0 DUP2 SWAP1 POP SWAP2 SWAP1 POP JUMP JUMPDEST PUSH2 0x3ADC DUP2 PUSH2 0x3ACA JUMP JUMPDEST DUP3 MSTORE POP POP JUMP JUMPDEST PUSH0 PUSH1 0x20 DUP3 ADD SWAP1 POP PUSH2 0x3AF5 PUSH0 DUP4 ADD DUP5 PUSH2 0x3AD3 JUMP JUMPDEST SWAP3 SWAP2 POP POP JUMP JUMPDEST PUSH0 PUSH1 0x40 MLOAD SWAP1 POP SWAP1 JUMP JUMPDEST PUSH0 DUP1 REVERT JUMPDEST PUSH0 DUP1 REVERT JUMPDEST PUSH2 0x3B15 DUP2 PUSH2 0x3ACA JUMP JUMPDEST DUP2 EQ PUSH2 0x3B1F JUMPI PUSH0 DUP1 REVERT JUMPDEST POP JUMP JUMPDEST PUSH0 DUP2 CALLDATALOAD SWAP1 POP PUSH2 0x3B30 DUP2 PUSH2 0x3B0C JUMP JUMPDEST SWAP3 SWAP2 POP POP JUMP JUMPDEST PUSH0 PUSH1 0x20 DUP3 DUP5 SUB SLT ISZERO PUSH2 0x3B4B JUMPI PUSH2 0x3B4A PUSH2 0x3B04 JUMP JUMPDEST JUMPDEST PUSH0 PUSH2 0x3B58 DUP5 DUP3 DUP6 ADD PUSH2 0x3B22 JUMP JUMPDEST SWAP2 POP POP SWAP3 SWAP2 POP POP JUMP JUMPDEST PUSH0 DUP2 MLOAD SWAP1 POP SWAP2 SWAP1 POP JUMP JUMPDEST PUSH0 DUP3 DUP3 MSTORE PUSH1 0x20 DUP3 ADD SWAP1 POP SWAP3 SWAP2 POP POP JUMP JUMPDEST PUSH0 DUP2 SWAP1 POP PUSH1 0x20 DUP3 ADD SWAP1 POP SWAP2 SWAP1 POP JUMP JUMPDEST PUSH2 0x3B93 DUP2 PUSH2 0x3ACA JUMP JUMPDEST DUP3 MSTORE POP POP JUMP JUMPDEST PUSH0 PUSH2 0x3BA4 DUP4 DUP4 PUSH2 0x3B8A JUMP JUMPDEST PUSH1 0x20 DUP4 ADD SWAP1 POP SWAP3 SWAP2 POP POP JUMP JUMPDEST PUSH0 PUSH1 0x20 DUP3 ADD SWAP1 POP SWAP2 SWAP1 POP JUMP JUMPDEST PUSH0 PUSH2 0x3BC6 DUP3 PUSH2 0x3B61 JUMP JUMPDEST PUSH2 0x3BD0 DUP2 DUP6 PUSH2 0x3B6B JUMP JUMPDEST SWAP4 POP PUSH2 0x3BDB DUP4 PUSH2 0x3B7B JUMP JUMPDEST DUP1 PUSH0 JUMPDEST DUP4 DUP2 LT ISZERO PUSH2 0x3C0B JUMPI DUP2 MLOAD PUSH2 0x3BF2 DUP9 DUP3 PUSH2 0x3B99 JUMP JUMPDEST SWAP8 POP PUSH2 0x3BFD DUP4 PUSH2 0x3BB0 JUMP JUMPDEST SWAP3 POP POP PUSH1 0x1 DUP2 ADD SWAP1 POP PUSH2 0x3BDE JUMP JUMPDEST POP DUP6 SWAP4 POP POP POP POP SWAP3 SWAP2 POP POP JUMP JUMPDEST PUSH0 PUSH1 0x20 DUP3 ADD SWAP1 POP DUP2 DUP2 SUB PUSH0 DUP4 ADD MSTORE PUSH2 0x3C30 DUP2 DUP5 PUSH2 0x3BBC JUMP JUMPDEST SWAP1 POP SWAP3 SWAP2 POP POP JUMP JUMPDEST PUSH0 DUP2 MLOAD SWAP1 POP SWAP2 SWAP1 POP JUMP JUMPDEST PUSH0 DUP3 DUP3 MSTORE PUSH1 0x20 DUP3 ADD SWAP1 POP SWAP3 SWAP2 POP POP JUMP JUMPDEST PUSH0 JUMPDEST DUP4 DUP2 LT ISZERO PUSH2 0x3C6F JUMPI DUP1 DUP3 ADD MLOAD DUP2 DUP5 ADD MSTORE PUSH1 0x20 DUP2 ADD SWAP1 POP PUSH2 0x3C54 JUMP JUMPDEST PUSH0 DUP5 DUP5 ADD MSTORE POP POP POP POP JUMP JUMPDEST PUSH0 PUSH1 0x1F NOT PUSH1 0x1F DUP4 ADD AND SWAP1 POP SWAP2 SWAP1 POP JUMP JUMPDEST PUSH0 PUSH2 0x3C94 DUP3 PUSH2 0x3C38 JUMP JUMPDEST PUSH2 0x3C9E DUP2 DUP6 PUSH2 0x3C42 JUMP JUMPDEST SWAP4 POP PUSH2 0x3CAE DUP2 DUP6 PUSH1 0x20 DUP7 ADD PUSH2 0x3C52 JUMP JUMPDEST PUSH2 0x3CB7 DUP2 PUSH2 0x3C7A JUMP JUMPDEST DUP5 ADD SWAP2 POP POP SWAP3 SWAP2 POP POP JUMP JUMPDEST PUSH0 PUSH1 0x20 DUP3 ADD SWAP1 POP DUP2 DUP2 SUB PUSH0 DUP4 ADD MSTORE PUSH2 0x3CDA DUP2 DUP5 PUSH2 0x3C8A JUMP JUMPDEST SWAP1 POP SWAP3 SWAP2 POP POP JUMP JUMPDEST PUSH2 0x3CEB DUP2 PUSH2 0x3A91 JUMP JUMPDEST DUP2 EQ PUSH2 0x3CF5 JUMPI PUSH0 DUP1 REVERT JUMPDEST POP JUMP JUMPDEST PUSH0 DUP2 CALLDATALOAD SWAP1 POP PUSH2 0x3D06 DUP2 PUSH2 0x3CE2 JUMP JUMPDEST SWAP3 SWAP2 POP POP JUMP JUMPDEST PUSH0 DUP1 PUSH1 0x40 DUP4 DUP6 SUB SLT ISZERO PUSH2 0x3D22 JUMPI PUSH2 0x3D21 PUSH2 0x3B04 JUMP JUMPDEST JUMPDEST PUSH0 PUSH2 0x3D2F DUP6 DUP3 DUP7 ADD PUSH2 0x3CF8 JUMP JUMPDEST SWAP3 POP POP PUSH1 0x20 PUSH2 0x3D40 DUP6 DUP3 DUP7 ADD PUSH2 0x3B22 JUMP JUMPDEST SWAP2 POP POP SWAP3 POP SWAP3 SWAP1 POP JUMP JUMPDEST PUSH0 DUP2 ISZERO ISZERO SWAP1 POP SWAP2 SWAP1 POP JUMP JUMPDEST PUSH2 0x3D5E DUP2 PUSH2 0x3D4A JUMP JUMPDEST DUP3 MSTORE POP POP JUMP JUMPDEST PUSH0 PUSH1 0x20 DUP3 ADD SWAP1 POP PUSH2 0x3D77 PUSH0 DUP4 ADD DUP5 PUSH2 0x3D55 JUMP JUMPDEST SWAP3 SWAP2 POP POP JUMP JUMPDEST PUSH0 PUSH3 0xFFFFFF DUP3 AND SWAP1 POP SWAP2 SWAP1 POP JUMP JUMPDEST PUSH2 0x3D94 DUP2 PUSH2 0x3D7D JUMP JUMPDEST DUP3 MSTORE POP POP JUMP JUMPDEST PUSH0 PUSH1 0x20 DUP3 ADD SWAP1 POP PUSH2 0x3DAD PUSH0 DUP4 ADD DUP5 PUSH2 0x3D8B JUMP JUMPDEST SWAP3 SWAP2 POP POP JUMP JUMPDEST PUSH0 DUP1 REVERT JUMPDEST PUSH32 0x4E487B7100000000000000000000000000000000000000000000000000000000 PUSH0 MSTORE PUSH1 0x41 PUSH1 0x4 MSTORE PUSH1 0x24 PUSH0 REVERT JUMPDEST PUSH2 0x3DED DUP3 PUSH2 0x3C7A JUMP JUMPDEST DUP2 ADD DUP2 DUP2 LT PUSH8 0xFFFFFFFFFFFFFFFF DUP3 GT OR ISZERO PUSH2 0x3E0C JUMPI PUSH2 0x3E0B PUSH2 0x3DB7 JUMP JUMPDEST JUMPDEST DUP1 PUSH1 0x40 MSTORE POP POP POP JUMP JUMPDEST PUSH0 PUSH2 0x3E1E PUSH2 0x3AFB JUMP JUMPDEST SWAP1 POP PUSH2 0x3E2A DUP3 DUP3 PUSH2 0x3DE4 JUMP JUMPDEST SWAP2 SWAP1 POP JUMP JUMPDEST PUSH0 PUSH8 0xFFFFFFFFFFFFFFFF DUP3 GT ISZERO PUSH2 0x3E49 JUMPI PUSH2 0x3E48 PUSH2 0x3DB7 JUMP JUMPDEST JUMPDEST PUSH1 0x20 DUP3 MUL SWAP1 POP PUSH1 0x20 DUP2 ADD SWAP1 POP SWAP2 SWAP1 POP JUMP JUMPDEST PUSH0 DUP1 REVERT JUMPDEST PUSH0 DUP1 REVERT JUMPDEST PUSH0 PUSH8 0xFFFFFFFFFFFFFFFF DUP3 GT ISZERO PUSH2 0x3E7C JUMPI PUSH2 0x3E7B PUSH2 0x3DB7 JUMP JUMPDEST JUMPDEST PUSH2 0x3E85 DUP3 PUSH2 0x3C7A JUMP JUMPDEST SWAP1 POP PUSH1 0x20 DUP2 ADD SWAP1 POP SWAP2 SWAP1 POP JUMP JUMPDEST DUP3 DUP2 DUP4 CALLDATACOPY PUSH0 DUP4 DUP4 ADD MSTORE POP POP POP JUMP JUMPDEST PUSH0 PUSH2 0x3EB2 PUSH2 0x3EAD DUP5 PUSH2 0x3E62 JUMP JUMPDEST PUSH2 0x3E15 JUMP JUMPDEST SWAP1 POP DUP3 DUP2 MSTORE PUSH1 0x20 DUP2 ADD DUP5 DUP5 DUP5 ADD GT ISZERO PUSH2 0x3ECE JUMPI PUSH2 0x3ECD PUSH2 0x3E5E JUMP JUMPDEST JUMPDEST PUSH2 0x3ED9 DUP5 DUP3 DUP6 PUSH2 0x3E92 JUMP JUMPDEST POP SWAP4 SWAP3 POP POP POP JUMP JUMPDEST PUSH0 DUP3 PUSH1 0x1F DUP4 ADD SLT PUSH2 0x3EF5 JUMPI PUSH2 0x3EF4 PUSH2 0x3DB3 JUMP JUMPDEST JUMPDEST DUP2 CALLDATALOAD PUSH2 0x3F05 DUP5 DUP3 PUSH1 0x20 DUP7 ADD PUSH2 0x3EA0 JUMP JUMPDEST SWAP2 POP POP SWAP3 SWAP2 POP POP JUMP JUMPDEST PUSH0 PUSH2 0x3F20 PUSH2 0x3F1B DUP5 PUSH2 0x3E2F JUMP JUMPDEST PUSH2 0x3E15 JUMP JUMPDEST SWAP1 POP DUP1 DUP4 DUP3 MSTORE PUSH1 0x20 DUP3 ADD SWAP1 POP PUSH1 0x20 DUP5 MUL DUP4 ADD DUP6 DUP2 GT ISZERO PUSH2 0x3F43 JUMPI PUSH2 0x3F42 PUSH2 0x3E5A JUMP JUMPDEST JUMPDEST DUP4 JUMPDEST DUP2 DUP2 LT ISZERO PUSH2 0x3F8A JUMPI DUP1 CALLDATALOAD PUSH8 0xFFFFFFFFFFFFFFFF DUP2 GT ISZERO PUSH2 0x3F68 JUMPI PUSH2 0x3F67 PUSH2 0x3DB3 JUMP JUMPDEST JUMPDEST DUP1 DUP7 ADD PUSH2 0x3F75 DUP10 DUP3 PUSH2 0x3EE1 JUMP JUMPDEST DUP6 MSTORE PUSH1 0x20 DUP6 ADD SWAP5 POP POP POP PUSH1 0x20 DUP2 ADD SWAP1 POP PUSH2 0x3F45 JUMP JUMPDEST POP POP POP SWAP4 SWAP3 POP POP POP JUMP JUMPDEST PUSH0 DUP3 PUSH1 0x1F DUP4 ADD SLT PUSH2 0x3FA8 JUMPI PUSH2 0x3FA7 PUSH2 0x3DB3 JUMP JUMPDEST JUMPDEST DUP2 CALLDATALOAD PUSH2 0x3FB8 DUP5 DUP3 PUSH1 0x20 DUP7 ADD PUSH2 0x3F0E JUMP JUMPDEST SWAP2 POP POP SWAP3 SWAP2 POP POP JUMP JUMPDEST PUSH0 DUP1 PUSH0 DUP1 PUSH0 PUSH1 0xA0 DUP7 DUP9 SUB SLT ISZERO PUSH2 0x3FDA JUMPI PUSH2 0x3FD9 PUSH2 0x3B04 JUMP JUMPDEST JUMPDEST PUSH0 PUSH2 0x3FE7 DUP9 DUP3 DUP10 ADD PUSH2 0x3CF8 JUMP JUMPDEST SWAP6 POP POP PUSH1 0x20 PUSH2 0x3FF8 DUP9 DUP3 DUP10 ADD PUSH2 0x3CF8 JUMP JUMPDEST SWAP5 POP POP PUSH1 0x40 PUSH2 0x4009 DUP9 DUP3 DUP10 ADD PUSH2 0x3B22 JUMP JUMPDEST SWAP4 POP POP PUSH1 0x60 PUSH2 0x401A DUP9 DUP3 DUP10 ADD PUSH2 0x3B22 JUMP JUMPDEST SWAP3 POP POP PUSH1 0x80 DUP7 ADD CALLDATALOAD PUSH8 0xFFFFFFFFFFFFFFFF DUP2 GT ISZERO PUSH2 0x403B JUMPI PUSH2 0x403A PUSH2 0x3B08 JUMP JUMPDEST JUMPDEST PUSH2 0x4047 DUP9 DUP3 DUP10 ADD PUSH2 0x3F94 JUMP JUMPDEST SWAP2 POP POP SWAP3 SWAP6 POP SWAP3 SWAP6 SWAP1 SWAP4 POP JUMP JUMPDEST PUSH0 DUP1 PUSH0 PUSH1 0x60 DUP5 DUP7 SUB SLT ISZERO PUSH2 0x406B JUMPI PUSH2 0x406A PUSH2 0x3B04 JUMP JUMPDEST JUMPDEST PUSH0 PUSH2 0x4078 DUP7 DUP3 DUP8 ADD PUSH2 0x3CF8 JUMP JUMPDEST SWAP4 POP POP PUSH1 0x20 PUSH2 0x4089 DUP7 DUP3 DUP8 ADD PUSH2 0x3CF8 JUMP JUMPDEST SWAP3 POP POP PUSH1 0x40 PUSH2 0x409A DUP7 DUP3 DUP8 ADD PUSH2 0x3B22 JUMP JUMPDEST SWAP2 POP POP SWAP3 POP SWAP3 POP SWAP3 JUMP JUMPDEST PUSH0 PUSH1 0xFF DUP3 AND SWAP1 POP SWAP2 SWAP1 POP JUMP JUMPDEST PUSH2 0x40B9 DUP2 PUSH2 0x40A4 JUMP JUMPDEST DUP3 MSTORE POP POP JUMP JUMPDEST PUSH0 PUSH1 0x20 DUP3 ADD SWAP1 POP PUSH2 0x40D2 PUSH0 DUP4 ADD DUP5 PUSH2 0x40B0 JUMP JUMPDEST SWAP3 SWAP2 POP POP JUMP JUMPDEST PUSH0 DUP1 PUSH0 DUP1 PUSH1 0x80 DUP6 DUP8 SUB SLT ISZERO PUSH2 0x40F0 JUMPI PUSH2 0x40EF PUSH2 0x3B04 JUMP JUMPDEST JUMPDEST PUSH0 PUSH2 0x40FD DUP8 DUP3 DUP9 ADD PUSH2 0x3CF8 JUMP JUMPDEST SWAP5 POP POP PUSH1 0x20 PUSH2 0x410E DUP8 DUP3 DUP9 ADD PUSH2 0x3B22 JUMP JUMPDEST SWAP4 POP POP PUSH1 0x40 PUSH2 0x411F DUP8 DUP3 DUP9 ADD PUSH2 0x3B22 JUMP JUMPDEST SWAP3 POP POP PUSH1 0x60 DUP6 ADD CALLDATALOAD PUSH8 0xFFFFFFFFFFFFFFFF DUP2 GT ISZERO PUSH2 0x4140 JUMPI PUSH2 0x413F PUSH2 0x3B08 JUMP JUMPDEST JUMPDEST PUSH2 0x414C DUP8 DUP3 DUP9 ADD PUSH2 0x3F94 JUMP JUMPDEST SWAP2 POP POP SWAP3 SWAP6 SWAP2 SWAP5 POP SWAP3 POP JUMP JUMPDEST PUSH0 PUSH1 0x20 DUP3 DUP5 SUB SLT ISZERO PUSH2 0x416D JUMPI PUSH2 0x416C PUSH2 0x3B04 JUMP JUMPDEST JUMPDEST PUSH0 PUSH2 0x417A DUP5 DUP3 DUP6 ADD PUSH2 0x3CF8 JUMP JUMPDEST SWAP2 POP POP SWAP3 SWAP2 POP POP JUMP JUMPDEST PUSH2 0x418C DUP2 PUSH2 0x3D7D JUMP JUMPDEST DUP2 EQ PUSH2 0x4196 JUMPI PUSH0 DUP1 REVERT JUMPDEST POP JUMP JUMPDEST PUSH0 DUP2 CALLDATALOAD SWAP1 POP PUSH2 0x41A7 DUP2 PUSH2 0x4183 JUMP JUMPDEST SWAP3 SWAP2 POP POP JUMP JUMPDEST PUSH0 DUP1 PUSH0 PUSH1 0x60 DUP5 DUP7 SUB SLT ISZERO PUSH2 0x41C4 JUMPI PUSH2 0x41C3 PUSH2 0x3B04 JUMP JUMPDEST JUMPDEST PUSH0 PUSH2 0x41D1 DUP7 DUP3 DUP8 ADD PUSH2 0x3CF8 JUMP JUMPDEST SWAP4 POP POP PUSH1 0x20 PUSH2 0x41E2 DUP7 DUP3 DUP8 ADD PUSH2 0x4199 JUMP JUMPDEST SWAP3 POP POP PUSH1 0x40 PUSH2 0x41F3 DUP7 DUP3 DUP8 ADD PUSH2 0x4199 JUMP JUMPDEST SWAP2 POP POP SWAP3 POP SWAP3 POP SWAP3 JUMP JUMPDEST PUSH0 DUP2 MLOAD SWAP1 POP SWAP2 SWAP1 POP JUMP JUMPDEST PUSH0 DUP3 DUP3 MSTORE PUSH1 0x20 DUP3 ADD SWAP1 POP SWAP3 SWAP2 POP POP JUMP JUMPDEST PUSH0 DUP2 SWAP1 POP PUSH1 0x20 DUP3 ADD SWAP1 POP SWAP2 SWAP1 POP JUMP JUMPDEST PUSH2 0x422F DUP2 PUSH2 0x3A91 JUMP JUMPDEST DUP3 MSTORE POP POP JUMP JUMPDEST PUSH0 PUSH2 0x4240 DUP4 DUP4 PUSH2 0x4226 JUMP JUMPDEST PUSH1 0x20 DUP4 ADD SWAP1 POP SWAP3 SWAP2 POP POP JUMP JUMPDEST PUSH0 PUSH1 0x20 DUP3 ADD SWAP1 POP SWAP2 SWAP1 POP JUMP JUMPDEST PUSH0 PUSH2 0x4262 DUP3 PUSH2 0x41FD JUMP JUMPDEST PUSH2 0x426C DUP2 DUP6 PUSH2 0x4207 JUMP JUMPDEST SWAP4 POP PUSH2 0x4277 DUP4 PUSH2 0x4217 JUMP JUMPDEST DUP1 PUSH0 JUMPDEST DUP4 DUP2 LT ISZERO PUSH2 0x42A7 JUMPI DUP2 MLOAD PUSH2 0x428E DUP9 DUP3 PUSH2 0x4235 JUMP JUMPDEST SWAP8 POP PUSH2 0x4299 DUP4 PUSH2 0x424C JUMP JUMPDEST SWAP3 POP POP PUSH1 0x1 DUP2 ADD SWAP1 POP PUSH2 0x427A JUMP JUMPDEST POP DUP6 SWAP4 POP POP POP POP SWAP3 SWAP2 POP POP JUMP JUMPDEST PUSH0 PUSH1 0x20 DUP3 ADD SWAP1 POP DUP2 DUP2 SUB PUSH0 DUP4 ADD MSTORE PUSH2 0x42CC DUP2 DUP5 PUSH2 0x4258 JUMP JUMPDEST SWAP1 POP SWAP3 SWAP2 POP POP JUMP JUMPDEST PUSH0 DUP1 PUSH0 PUSH1 0x60 DUP5 DUP7 SUB SLT ISZERO PUSH2 0x42EB JUMPI PUSH2 0x42EA PUSH2 0x3B04 JUMP JUMPDEST JUMPDEST PUSH0 PUSH2 0x42F8 DUP7 DUP3 DUP8 ADD PUSH2 0x3CF8 JUMP JUMPDEST SWAP4 POP POP PUSH1 0x20 PUSH2 0x4309 DUP7 DUP3 DUP8 ADD PUSH2 0x3B22 JUMP JUMPDEST SWAP3 POP POP PUSH1 0x40 DUP5 ADD CALLDATALOAD PUSH8 0xFFFFFFFFFFFFFFFF DUP2 GT ISZERO PUSH2 0x432A JUMPI PUSH2 0x4329 PUSH2 0x3B08 JUMP JUMPDEST JUMPDEST PUSH2 0x4336 DUP7 DUP3 DUP8 ADD PUSH2 0x3F94 JUMP JUMPDEST SWAP2 POP POP SWAP3 POP SWAP3 POP SWAP3 JUMP JUMPDEST PUSH0 DUP1 PUSH1 0x40 DUP4 DUP6 SUB SLT ISZERO PUSH2 0x4356 JUMPI PUSH2 0x4355 PUSH2 0x3B04 JUMP JUMPDEST JUMPDEST PUSH0 PUSH2 0x4363 DUP6 DUP3 DUP7 ADD PUSH2 0x3CF8 JUMP JUMPDEST SWAP3 POP POP PUSH1 0x20 PUSH2 0x4374 DUP6 DUP3 DUP7 ADD PUSH2 0x3CF8 JUMP JUMPDEST SWAP2 POP POP SWAP3 POP SWAP3 SWAP1 POP JUMP JUMPDEST PUSH32 0x4E487B7100000000000000000000000000000000000000000000000000000000 PUSH0 MSTORE PUSH1 0x32 PUSH1 0x4 MSTORE PUSH1 0x24 PUSH0 REVERT JUMPDEST PUSH0 DUP2 MLOAD SWAP1 POP PUSH2 0x43B9 DUP2 PUSH2 0x3B0C JUMP JUMPDEST SWAP3 SWAP2 POP POP JUMP JUMPDEST PUSH0 PUSH1 0x20 DUP3 DUP5 SUB SLT ISZERO PUSH2 0x43D4 JUMPI PUSH2 0x43D3 PUSH2 0x3B04 JUMP JUMPDEST JUMPDEST PUSH0 PUSH2 0x43E1 DUP5 DUP3 DUP6 ADD PUSH2 0x43AB JUMP JUMPDEST SWAP2 POP POP SWAP3 SWAP2 POP POP JUMP JUMPDEST PUSH32 0x4E487B7100000000000000000000000000000000000000000000000000000000 PUSH0 MSTORE PUSH1 0x22 PUSH1 0x4 MSTORE PUSH1 0x24 PUSH0 REVERT JUMPDEST PUSH0 PUSH1 0x2 DUP3 DIV SWAP1 POP PUSH1 0x1 DUP3 AND DUP1 PUSH2 0x442E JUMPI PUSH1 0x7F DUP3 AND SWAP2 POP JUMPDEST PUSH1 0x20 DUP3 LT DUP2 SUB PUSH2 0x4441 JUMPI PUSH2 0x4440 PUSH2 0x43EA JUMP JUMPDEST JUMPDEST POP SWAP2 SWAP1 POP JUMP JUMPDEST PUSH0 DUP2 MLOAD SWAP1 POP SWAP2 SWAP1 POP JUMP JUMPDEST PUSH0 DUP3 DUP3 MSTORE PUSH1 0x20 DUP3 ADD SWAP1 POP SWAP3 SWAP2 POP POP JUMP JUMPDEST PUSH0 PUSH2 0x446B DUP3 PUSH2 0x4447 JUMP JUMPDEST PUSH2 0x4475 DUP2 DUP6 PUSH2 0x4451 JUMP JUMPDEST SWAP4 POP PUSH2 0x4485 DUP2 DUP6 PUSH1 0x20 DUP7 ADD PUSH2 0x3C52 JUMP JUMPDEST PUSH2 0x448E DUP2 PUSH2 0x3C7A JUMP JUMPDEST DUP5 ADD SWAP2 POP POP SWAP3 SWAP2 POP POP JUMP JUMPDEST PUSH0 PUSH1 0x20 DUP3 ADD SWAP1 POP DUP2 DUP2 SUB PUSH0 DUP4 ADD MSTORE PUSH2 0x44B1 DUP2 DUP5 PUSH2 0x4461 JUMP JUMPDEST SWAP1 POP SWAP3 SWAP2 POP POP JUMP JUMPDEST PUSH32 0x4E487B7100000000000000000000000000000000000000000000000000000000 PUSH0 MSTORE PUSH1 0x11 PUSH1 0x4 MSTORE PUSH1 0x24 PUSH0 REVERT JUMPDEST PUSH0 PUSH2 0x44F0 DUP3 PUSH2 0x3ACA JUMP JUMPDEST SWAP2 POP PUSH2 0x44FB DUP4 PUSH2 0x3ACA JUMP JUMPDEST SWAP3 POP DUP3 DUP3 ADD SWAP1 POP DUP1 DUP3 GT ISZERO PUSH2 0x4513 JUMPI PUSH2 0x4512 PUSH2 0x44B9 JUMP JUMPDEST JUMPDEST SWAP3 SWAP2 POP POP JUMP JUMPDEST PUSH0 DUP3 DUP3 MSTORE PUSH1 0x20 DUP3 ADD SWAP1 POP SWAP3 SWAP2 POP POP JUMP JUMPDEST PUSH0 PUSH2 0x4533 DUP3 PUSH2 0x4447 JUMP JUMPDEST PUSH2 0x453D DUP2 DUP6 PUSH2 0x4519 JUMP JUMPDEST SWAP4 POP PUSH2 0x454D DUP2 DUP6 PUSH1 0x20 DUP7 ADD PUSH2 0x3C52 JUMP JUMPDEST PUSH2 0x4556 DUP2 PUSH2 0x3C7A JUMP JUMPDEST DUP5 ADD SWAP2 POP POP SWAP3 SWAP2 POP POP JUMP JUMPDEST PUSH0 PUSH1 0x80 DUP4 ADD PUSH0 DUP4 ADD MLOAD DUP5 DUP3 SUB PUSH0 DUP7 ADD MSTORE PUSH2 0x457B DUP3 DUP3 PUSH2 0x4529 JUMP JUMPDEST SWAP2 POP POP PUSH1 0x20 DUP4 ADD MLOAD PUSH2 0x4590 PUSH1 0x20 DUP7 ADD DUP3 PUSH2 0x4226 JUMP JUMPDEST POP PUSH1 0x40 DUP4 ADD MLOAD PUSH2 0x45A3 PUSH1 0x40 DUP7 ADD DUP3 PUSH2 0x3B8A JUMP JUMPDEST POP PUSH1 0x60 DUP4 ADD MLOAD PUSH2 0x45B6 PUSH1 0x60 DUP7 ADD DUP3 PUSH2 0x3B8A JUMP JUMPDEST POP DUP1 SWAP2 POP POP SWAP3 SWAP2 POP POP JUMP JUMPDEST PUSH0 PUSH1 0x20 DUP3 ADD SWAP1 POP DUP2 DUP2 SUB PUSH0 DUP4 ADD MSTORE PUSH2 0x45D9 DUP2 DUP5 PUSH2 0x4561 JUMP JUMPDEST SWAP1 POP SWAP3 SWAP2 POP POP JUMP JUMPDEST PUSH0 PUSH2 0x45EB DUP3 PUSH2 0x3ACA JUMP JUMPDEST SWAP2 POP PUSH2 0x45F6 DUP4 PUSH2 0x3ACA JUMP JUMPDEST SWAP3 POP DUP3 DUP3 SUB SWAP1 POP DUP2 DUP2 GT ISZERO PUSH2 0x460E JUMPI PUSH2 0x460D PUSH2 0x44B9 JUMP JUMPDEST JUMPDEST SWAP3 SWAP2 POP POP JUMP JUMPDEST PUSH0 PUSH1 0x60 DUP3 ADD SWAP1 POP PUSH2 0x4627 PUSH0 DUP4 ADD DUP7 PUSH2 0x3AA2 JUMP JUMPDEST PUSH2 0x4634 PUSH1 0x20 DUP4 ADD DUP6 PUSH2 0x3AD3 JUMP JUMPDEST PUSH2 0x4641 PUSH1 0x40 DUP4 ADD DUP5 PUSH2 0x3AD3 JUMP JUMPDEST SWAP5 SWAP4 POP POP POP POP JUMP JUMPDEST PUSH0 PUSH1 0x80 DUP4 ADD PUSH0 DUP4 ADD MLOAD DUP5 DUP3 SUB PUSH0 DUP7 ADD MSTORE PUSH2 0x4663 DUP3 DUP3 PUSH2 0x4529 JUMP JUMPDEST SWAP2 POP POP PUSH1 0x20 DUP4 ADD MLOAD PUSH2 0x4678 PUSH1 0x20 DUP7 ADD DUP3 PUSH2 0x4226 JUMP JUMPDEST POP PUSH1 0x40 DUP4 ADD MLOAD PUSH2 0x468B PUSH1 0x40 DUP7 ADD DUP3 PUSH2 0x3B8A JUMP JUMPDEST POP PUSH1 0x60 DUP4 ADD MLOAD PUSH2 0x469E PUSH1 0x60 DUP7 ADD DUP3 PUSH2 0x3B8A JUMP JUMPDEST POP DUP1 SWAP2 POP POP SWAP3 SWAP2 POP POP JUMP JUMPDEST PUSH0 PUSH1 0x20 DUP3 ADD SWAP1 POP DUP2 DUP2 SUB PUSH0 DUP4 ADD MSTORE PUSH2 0x46C1 DUP2 DUP5 PUSH2 0x4649 JUMP JUMPDEST SWAP1 POP SWAP3 SWAP2 POP POP JUMP JUMPDEST PUSH0 PUSH1 0x40 DUP3 ADD SWAP1 POP PUSH2 0x46DC PUSH0 DUP4 ADD DUP6 PUSH2 0x3AD3 JUMP JUMPDEST PUSH2 0x46E9 PUSH1 0x20 DUP4 ADD DUP5 PUSH2 0x3AD3 JUMP JUMPDEST SWAP4 SWAP3 POP POP POP JUMP JUMPDEST PUSH0 PUSH2 0x46FA DUP3 PUSH2 0x3ACA JUMP JUMPDEST SWAP2 POP PUSH2 0x4705 DUP4 PUSH2 0x3ACA JUMP JUMPDEST SWAP3 POP DUP3 DUP3 MUL PUSH2 0x4713 DUP2 PUSH2 0x3ACA JUMP JUMPDEST SWAP2 POP DUP3 DUP3 DIV DUP5 EQ DUP4 ISZERO OR PUSH2 0x472A JUMPI PUSH2 0x4729 PUSH2 0x44B9 JUMP JUMPDEST JUMPDEST POP SWAP3 SWAP2 POP POP JUMP JUMPDEST PUSH32 0x4E487B7100000000000000000000000000000000000000000000000000000000 PUSH0 MSTORE PUSH1 0x12 PUSH1 0x4 MSTORE PUSH1 0x24 PUSH0 REVERT JUMPDEST PUSH0 PUSH2 0x4768 DUP3 PUSH2 0x3ACA JUMP JUMPDEST SWAP2 POP PUSH2 0x4773 DUP4 PUSH2 0x3ACA JUMP JUMPDEST SWAP3 POP DUP3 PUSH2 0x4783 JUMPI PUSH2 0x4782 PUSH2 0x4731 JUMP JUMPDEST JUMPDEST DUP3 DUP3 DIV SWAP1 POP SWAP3 SWAP2 POP POP JUMP JUMPDEST PUSH0 PUSH2 0x4798 DUP3 PUSH2 0x3ACA JUMP JUMPDEST SWAP2 POP PUSH32 0xFFFFFFFFFFFFFFFFFFFFFFFFFFFFFFFFFFFFFFFFFFFFFFFFFFFFFFFFFFFFFFFF DUP3 SUB PUSH2 0x47CA JUMPI PUSH2 0x47C9 PUSH2 0x44B9 JUMP JUMPDEST JUMPDEST PUSH1 0x1 DUP3 ADD SWAP1 POP SWAP2 SWAP1 POP JUMP JUMPDEST PUSH0 PUSH1 0xA0 DUP3 ADD SWAP1 POP PUSH2 0x47E8 PUSH0 DUP4 ADD DUP9 PUSH2 0x3AA2 JUMP JUMPDEST PUSH2 0x47F5 PUSH1 0x20 DUP4 ADD DUP8 PUSH2 0x3AA2 JUMP JUMPDEST PUSH2 0x4802 PUSH1 0x40 DUP4 ADD DUP7 PUSH2 0x3AD3 JUMP JUMPDEST PUSH2 0x480F PUSH1 0x60 DUP4 ADD DUP6 PUSH2 0x3AD3 JUMP JUMPDEST DUP2 DUP2 SUB PUSH1 0x80 DUP4 ADD MSTORE PUSH2 0x4821 DUP2 DUP5 PUSH2 0x3BBC JUMP JUMPDEST SWAP1 POP SWAP7 SWAP6 POP POP POP POP POP POP JUMP JUMPDEST PUSH0 PUSH1 0x60 DUP3 ADD SWAP1 POP PUSH2 0x4840 PUSH0 DUP4 ADD DUP7 PUSH2 0x3AA2 JUMP JUMPDEST PUSH2 0x484D PUSH1 0x20 DUP4 ADD DUP6 PUSH2 0x3AA2 JUMP JUMPDEST PUSH2 0x485A PUSH1 0x40 DUP4 ADD DUP5 PUSH2 0x3AD3 JUMP JUMPDEST SWAP5 SWAP4 POP POP POP POP JUMP JUMPDEST PUSH0 PUSH1 0x40 DUP3 ADD SWAP1 POP PUSH2 0x4875 PUSH0 DUP4 ADD DUP6 PUSH2 0x3AA2 JUMP JUMPDEST PUSH2 0x4882 PUSH1 0x20 DUP4 ADD DUP5 PUSH2 0x3AA2 JUMP JUMPDEST SWAP4 SWAP3 POP POP POP JUMP JUMPDEST PUSH0 PUSH1 0x40 DUP3 ADD SWAP1 POP PUSH2 0x489C PUSH0 DUP4 ADD DUP6 PUSH2 0x3AA2 JUMP JUMPDEST PUSH2 0x48A9 PUSH1 0x20 DUP4 ADD DUP5 PUSH2 0x3AD3 JUMP JUMPDEST SWAP4 SWAP3 POP POP POP JUMP JUMPDEST PUSH0 PUSH1 0x80 DUP3 ADD SWAP1 POP PUSH2 0x48C3 PUSH0 DUP4 ADD DUP8 PUSH2 0x3AA2 JUMP JUMPDEST PUSH2 0x48D0 PUSH1 0x20 DUP4 ADD DUP7 PUSH2 0x3AD3 JUMP JUMPDEST PUSH2 0x48DD PUSH1 0x40 DUP4 ADD DUP6 PUSH2 0x3AD3 JUMP JUMPDEST DUP2 DUP2 SUB PUSH1 0x60 DUP4 ADD MSTORE PUSH2 0x48EF DUP2 DUP5 PUSH2 0x3BBC JUMP JUMPDEST SWAP1 POP SWAP6 SWAP5 POP POP POP POP POP JUMP JUMPDEST PUSH0 DUP2 SWAP1 POP SWAP3 SWAP2 POP POP JUMP JUMPDEST PUSH0 PUSH2 0x490E DUP3 PUSH2 0x4447 JUMP JUMPDEST PUSH2 0x4918 DUP2 DUP6 PUSH2 0x48FA JUMP JUMPDEST SWAP4 POP PUSH2 0x4928 DUP2 DUP6 PUSH1 0x20 DUP7 ADD PUSH2 0x3C52 JUMP JUMPDEST DUP1 DUP5 ADD SWAP2 POP POP SWAP3 SWAP2 POP POP JUMP JUMPDEST PUSH0 PUSH2 0x493F DUP3 DUP5 PUSH2 0x4904 JUMP JUMPDEST SWAP2 POP DUP2 SWAP1 POP SWAP3 SWAP2 POP POP JUMP JUMPDEST PUSH0 DUP2 SWAP1 POP SWAP2 SWAP1 POP JUMP JUMPDEST PUSH0 DUP2 SWAP1 POP SWAP2 SWAP1 POP JUMP JUMPDEST PUSH0 PUSH2 0x4976 PUSH2 0x4971 PUSH2 0x496C DUP5 PUSH2 0x494A JUMP JUMPDEST PUSH2 0x4953 JUMP JUMPDEST PUSH2 0x3ACA JUMP JUMPDEST SWAP1 POP SWAP2 SWAP1 POP JUMP JUMPDEST PUSH2 0x4986 DUP2 PUSH2 0x495C JUMP JUMPDEST DUP3 MSTORE POP POP JUMP JUMPDEST PUSH0 PUSH1 0x40 DUP3 ADD SWAP1 POP PUSH2 0x499F PUSH0 DUP4 ADD DUP6 PUSH2 0x3AA2 JUMP JUMPDEST PUSH2 0x49AC PUSH1 0x20 DUP4 ADD DUP5 PUSH2 0x497D JUMP JUMPDEST SWAP4 SWAP3 POP POP POP JUMP JUMPDEST PUSH32 0x746F416464726573735F6F766572666C6F770000000000000000000000000000 PUSH0 DUP3 ADD MSTORE POP JUMP JUMPDEST PUSH0 PUSH2 0x49E7 PUSH1 0x12 DUP4 PUSH2 0x3C42 JUMP JUMPDEST SWAP2 POP PUSH2 0x49F2 DUP3 PUSH2 0x49B3 JUMP JUMPDEST PUSH1 0x20 DUP3 ADD SWAP1 POP SWAP2 SWAP1 POP JUMP JUMPDEST PUSH0 PUSH1 0x20 DUP3 ADD SWAP1 POP DUP2 DUP2 SUB PUSH0 DUP4 ADD MSTORE PUSH2 0x4A14 DUP2 PUSH2 0x49DB JUMP JUMPDEST SWAP1 POP SWAP2 SWAP1 POP JUMP JUMPDEST PUSH32 0x746F416464726573735F6F75744F66426F756E64730000000000000000000000 PUSH0 DUP3 ADD MSTORE POP JUMP JUMPDEST PUSH0 PUSH2 0x4A4F PUSH1 0x15 DUP4 PUSH2 0x3C42 JUMP JUMPDEST SWAP2 POP PUSH2 0x4A5A DUP3 PUSH2 0x4A1B JUMP JUMPDEST PUSH1 0x20 DUP3 ADD SWAP1 POP SWAP2 SWAP1 POP JUMP JUMPDEST PUSH0 PUSH1 0x20 DUP3 ADD SWAP1 POP DUP2 DUP2 SUB PUSH0 DUP4 ADD MSTORE PUSH2 0x4A7C DUP2 PUSH2 0x4A43 JUMP JUMPDEST SWAP1 POP SWAP2 SWAP1 POP JUMP JUMPDEST PUSH32 0x746F55696E7432345F6F766572666C6F77000000000000000000000000000000 PUSH0 DUP3 ADD MSTORE POP JUMP JUMPDEST PUSH0 PUSH2 0x4AB7 PUSH1 0x11 DUP4 PUSH2 0x3C42 JUMP JUMPDEST SWAP2 POP PUSH2 0x4AC2 DUP3 PUSH2 0x4A83 JUMP JUMPDEST PUSH1 0x20 DUP3 ADD SWAP1 POP SWAP2 SWAP1 POP JUMP JUMPDEST PUSH0 PUSH1 0x20 DUP3 ADD SWAP1 POP DUP2 DUP2 SUB PUSH0 DUP4 ADD MSTORE PUSH2 0x4AE4 DUP2 PUSH2 0x4AAB JUMP JUMPDEST SWAP1 POP SWAP2 SWAP1 POP JUMP JUMPDEST PUSH32 0x746F55696E7432345F6F75744F66426F756E6473000000000000000000000000 PUSH0 DUP3 ADD MSTORE POP JUMP JUMPDEST PUSH0 PUSH2 0x4B1F PUSH1 0x14 DUP4 PUSH2 0x3C42 JUMP JUMPDEST SWAP2 POP PUSH2 0x4B2A DUP3 PUSH2 0x4AEB JUMP JUMPDEST PUSH1 0x20 DUP3 ADD SWAP1 POP SWAP2 SWAP1 POP JUMP JUMPDEST PUSH0 PUSH1 0x20 DUP3 ADD SWAP1 POP DUP2 DUP2 SUB PUSH0 DUP4 ADD MSTORE PUSH2 0x4B4C DUP2 PUSH2 0x4B13 JUMP JUMPDEST SWAP1 POP SWAP2 SWAP1 POP JUMP JUMPDEST PUSH32 0x736C6963655F6F766572666C6F77000000000000000000000000000000000000 PUSH0 DUP3 ADD MSTORE POP JUMP JUMPDEST PUSH0 PUSH2 0x4B87 PUSH1 0xE DUP4 PUSH2 0x3C42 JUMP JUMPDEST SWAP2 POP PUSH2 0x4B92 DUP3 PUSH2 0x4B53 JUMP JUMPDEST PUSH1 0x20 DUP3 ADD SWAP1 POP SWAP2 SWAP1 POP JUMP JUMPDEST PUSH0 PUSH1 0x20 DUP3 ADD SWAP1 POP DUP2 DUP2 SUB PUSH0 DUP4 ADD MSTORE PUSH2 0x4BB4 DUP2 PUSH2 0x4B7B JUMP JUMPDEST SWAP1 POP SWAP2 SWAP1 POP JUMP JUMPDEST PUSH32 0x736C6963655F6F75744F66426F756E6473000000000000000000000000000000 PUSH0 DUP3 ADD MSTORE POP JUMP JUMPDEST PUSH0 PUSH2 0x4BEF PUSH1 0x11 DUP4 PUSH2 0x3C42 JUMP JUMPDEST SWAP2 POP PUSH2 0x4BFA DUP3 PUSH2 0x4BBB JUMP JUMPDEST PUSH1 0x20 DUP3 ADD SWAP1 POP SWAP2 SWAP1 POP JUMP JUMPDEST PUSH0 PUSH1 0x20 DUP3 ADD SWAP1 POP DUP2 DUP2 SUB PUSH0 DUP4 ADD MSTORE PUSH2 0x4C1C DUP2 PUSH2 0x4BE3 JUMP JUMPDEST SWAP1 POP SWAP2 SWAP1 POP JUMP INVALID LOG2 PUSH5 0x6970667358 0x22 SLT KECCAK256 0xD ISZERO 0xDF 0x1F SLT SWAP7 EXTCODESIZE BALANCE SWAP7 0xDA 0xDD SWAP2 BASEFEE 0xCE PUSH13 0x99BB6D5DBBC9F7296246EDFD3A SDIV 0xFB JUMPI 0xE PUSH5 0x736F6C6343 STOP ADDMOD XOR STOP CALLER "
		},
		"gasEstimates": {
			"creation": {
				"codeDepositCost": "3909000",
				"executionCost": "infinite",
				"totalCost": "infinite"
			},
			"external": {
				"HUNDRED_PERCENT()": "442",
				"allowance(address,address)": "infinite",
				"approve(address,uint256)": "infinite",
				"balanceOf(address)": "2875",
				"decimals()": "450",
				"feeTo()": "2555",
				"getInitTokenAmountPerShares()": "infinite",
				"getInvestTokenAmounts(uint256)": "infinite",
				"getRedeemTokenAmounts(uint256)": "infinite",
				"getTokens()": "infinite",
				"invest(address,uint256)": "infinite",
				"investFee()": "2629",
				"investWithETH(address,uint256,bytes[])": "infinite",
				"investWithToken(address,address,uint256,uint256,bytes[])": "infinite",
				"minMintAmount()": "2494",
				"name()": "infinite",
				"owner()": "2627",
				"redeem(address,uint256)": "infinite",
				"redeemFee()": "2584",
				"redeemToETH(address,uint256,uint256,bytes[])": "infinite",
				"redeemToToken(address,address,uint256,uint256,bytes[])": "infinite",
				"renounceOwnership()": "infinite",
				"setFee(address,uint24,uint24)": "infinite",
				"swapRouter()": "infinite",
				"symbol()": "infinite",
				"totalSupply()": "2522",
				"transfer(address,uint256)": "infinite",
				"transferFrom(address,address,uint256)": "infinite",
				"transferOwnership(address)": "infinite",
				"updateMinMintAmount(uint256)": "infinite",
				"weth()": "infinite"
			},
			"internal": {
				"_approveToSwapRouter(address)": "infinite",
				"_checkSwapPath(address,address,bytes memory)": "infinite",
				"_safeTransferETH(address,uint256)": "infinite"
			}
		},
		"methodIdentifiers": {
			"HUNDRED_PERCENT()": "6ed93dd0",
			"allowance(address,address)": "dd62ed3e",
			"approve(address,uint256)": "095ea7b3",
			"balanceOf(address)": "70a08231",
			"decimals()": "313ce567",
			"feeTo()": "017e7e58",
			"getInitTokenAmountPerShares()": "8423f320",
			"getInvestTokenAmounts(uint256)": "05def347",
			"getRedeemTokenAmounts(uint256)": "ce7ddbef",
			"getTokens()": "aa6ca808",
			"invest(address,uint256)": "b9b8c246",
			"investFee()": "1c1f3014",
			"investWithETH(address,uint256,bytes[])": "b0acd84b",
			"investWithToken(address,address,uint256,uint256,bytes[])": "22b1c027",
			"minMintAmount()": "01e9d757",
			"name()": "06fdde03",
			"owner()": "8da5cb5b",
			"redeem(address,uint256)": "1e9a6950",
			"redeemFee()": "965fa21e",
			"redeemToETH(address,uint256,uint256,bytes[])": "4f4e0921",
			"redeemToToken(address,address,uint256,uint256,bytes[])": "a0398af3",
			"renounceOwnership()": "715018a6",
			"setFee(address,uint24,uint24)": "a553618b",
			"swapRouter()": "c31c9c07",
			"symbol()": "95d89b41",
			"totalSupply()": "18160ddd",
			"transfer(address,uint256)": "a9059cbb",
			"transferFrom(address,address,uint256)": "23b872dd",
			"transferOwnership(address)": "f2fde38b",
			"updateMinMintAmount(uint256)": "6dd84ac1",
			"weth()": "3fc8cef3"
		}
	},
	"abi": [
		{
			"inputs": [
				{
					"internalType": "string",
					"name": "name_",
					"type": "string"
				},
				{
					"internalType": "string",
					"name": "symbol_",
					"type": "string"
				},
				{
					"internalType": "address[]",
					"name": "tokens_",
					"type": "address[]"
				},
				{
					"internalType": "uint256[]",
					"name": "initTokenAmountPerShare_",
					"type": "uint256[]"
				},
				{
					"internalType": "uint256",
					"name": "minMintAmount_",
					"type": "uint256"
				},
				{
					"internalType": "address",
					"name": "swapRouter_",
					"type": "address"
				},
				{
					"internalType": "address",
					"name": "weth_",
					"type": "address"
				}
			],
			"stateMutability": "nonpayable",
			"type": "constructor"
		},
		{
			"inputs": [
				{
					"internalType": "address",
					"name": "spender",
					"type": "address"
				},
				{
					"internalType": "uint256",
					"name": "allowance",
					"type": "uint256"
				},
				{
					"internalType": "uint256",
					"name": "needed",
					"type": "uint256"
				}
			],
			"name": "ERC20InsufficientAllowance",
			"type": "error"
		},
		{
			"inputs": [
				{
					"internalType": "address",
					"name": "sender",
					"type": "address"
				},
				{
					"internalType": "uint256",
					"name": "balance",
					"type": "uint256"
				},
				{
					"internalType": "uint256",
					"name": "needed",
					"type": "uint256"
				}
			],
			"name": "ERC20InsufficientBalance",
			"type": "error"
		},
		{
			"inputs": [
				{
					"internalType": "address",
					"name": "approver",
					"type": "address"
				}
			],
			"name": "ERC20InvalidApprover",
			"type": "error"
		},
		{
			"inputs": [
				{
					"internalType": "address",
					"name": "receiver",
					"type": "address"
				}
			],
			"name": "ERC20InvalidReceiver",
			"type": "error"
		},
		{
			"inputs": [
				{
					"internalType": "address",
					"name": "sender",
					"type": "address"
				}
			],
			"name": "ERC20InvalidSender",
			"type": "error"
		},
		{
			"inputs": [
				{
					"internalType": "address",
					"name": "spender",
					"type": "address"
				}
			],
			"name": "ERC20InvalidSpender",
			"type": "error"
		},
		{
			"inputs": [],
			"name": "InvalidArrayLength",
			"type": "error"
		},
		{
			"inputs": [
				{
					"internalType": "bytes",
					"name": "swapPath",
					"type": "bytes"
				}
			],
			"name": "InvalidSwapPath",
			"type": "error"
		},
		{
			"inputs": [],
			"name": "LessThanMinMintAmount",
			"type": "error"
		},
		{
			"inputs": [],
			"name": "OverSlippage",
			"type": "error"
		},
		{
			"inputs": [
				{
					"internalType": "address",
					"name": "owner",
					"type": "address"
				}
			],
			"name": "OwnableInvalidOwner",
			"type": "error"
		},
		{
			"inputs": [
				{
					"internalType": "address",
					"name": "account",
					"type": "address"
				}
			],
			"name": "OwnableUnauthorizedAccount",
			"type": "error"
		},
		{
			"inputs": [
				{
					"internalType": "address",
					"name": "token",
					"type": "address"
				}
			],
			"name": "SafeERC20FailedOperation",
			"type": "error"
		},
		{
			"inputs": [],
			"name": "SafeTransferETHFailed",
			"type": "error"
		},
		{
			"inputs": [],
			"name": "TokenExists",
			"type": "error"
		},
		{
			"inputs": [],
			"name": "TokenNotFound",
			"type": "error"
		},
		{
			"anonymous": false,
			"inputs": [
				{
					"indexed": true,
					"internalType": "address",
					"name": "owner",
					"type": "address"
				},
				{
					"indexed": true,
					"internalType": "address",
					"name": "spender",
					"type": "address"
				},
				{
					"indexed": false,
					"internalType": "uint256",
					"name": "value",
					"type": "uint256"
				}
			],
			"name": "Approval",
			"type": "event"
		},
		{
			"anonymous": false,
			"inputs": [
				{
					"indexed": false,
					"internalType": "address",
					"name": "to",
					"type": "address"
				},
				{
					"indexed": false,
					"internalType": "uint256",
					"name": "mintAmount",
					"type": "uint256"
				},
				{
					"indexed": false,
					"internalType": "uint256",
					"name": "investFee",
					"type": "uint256"
				},
				{
					"indexed": false,
					"internalType": "uint256[]",
					"name": "tokenAmounts",
					"type": "uint256[]"
				}
			],
			"name": "Invested",
			"type": "event"
		},
		{
			"anonymous": false,
			"inputs": [
				{
					"indexed": false,
					"internalType": "address",
					"name": "to",
					"type": "address"
				},
				{
					"indexed": false,
					"internalType": "uint256",
					"name": "mintAmount",
					"type": "uint256"
				},
				{
					"indexed": false,
					"internalType": "uint256",
					"name": "paidAmount",
					"type": "uint256"
				}
			],
			"name": "InvestedWithETH",
			"type": "event"
		},
		{
			"anonymous": false,
			"inputs": [
				{
					"indexed": true,
					"internalType": "address",
					"name": "srcToken",
					"type": "address"
				},
				{
					"indexed": false,
					"internalType": "address",
					"name": "to",
					"type": "address"
				},
				{
					"indexed": false,
					"internalType": "uint256",
					"name": "mintAmount",
					"type": "uint256"
				},
				{
					"indexed": false,
					"internalType": "uint256",
					"name": "totalPaid",
					"type": "uint256"
				}
			],
			"name": "InvestedWithToken",
			"type": "event"
		},
		{
			"anonymous": false,
			"inputs": [
				{
					"indexed": false,
					"internalType": "uint256",
					"name": "oldMinMintAmount",
					"type": "uint256"
				},
				{
					"indexed": false,
					"internalType": "uint256",
					"name": "newMinMintAmount",
					"type": "uint256"
				}
			],
			"name": "MinMintAmountUpdated",
			"type": "event"
		},
		{
			"anonymous": false,
			"inputs": [
				{
					"indexed": true,
					"internalType": "address",
					"name": "previousOwner",
					"type": "address"
				},
				{
					"indexed": true,
					"internalType": "address",
					"name": "newOwner",
					"type": "address"
				}
			],
			"name": "OwnershipTransferred",
			"type": "event"
		},
		{
			"anonymous": false,
			"inputs": [
				{
					"indexed": false,
					"internalType": "address",
					"name": "sender",
					"type": "address"
				},
				{
					"indexed": false,
					"internalType": "address",
					"name": "to",
					"type": "address"
				},
				{
					"indexed": false,
					"internalType": "uint256",
					"name": "burnAmount",
					"type": "uint256"
				},
				{
					"indexed": false,
					"internalType": "uint256",
					"name": "redeemFee",
					"type": "uint256"
				},
				{
					"indexed": false,
					"internalType": "uint256[]",
					"name": "tokenAmounts",
					"type": "uint256[]"
				}
			],
			"name": "Redeemed",
			"type": "event"
		},
		{
			"anonymous": false,
			"inputs": [
				{
					"indexed": false,
					"internalType": "address",
					"name": "to",
					"type": "address"
				},
				{
					"indexed": false,
					"internalType": "uint256",
					"name": "burnAmount",
					"type": "uint256"
				},
				{
					"indexed": false,
					"internalType": "uint256",
					"name": "receivedAmount",
					"type": "uint256"
				}
			],
			"name": "RedeemedToETH",
			"type": "event"
		},
		{
			"anonymous": false,
			"inputs": [
				{
					"indexed": true,
					"internalType": "address",
					"name": "dstToken",
					"type": "address"
				},
				{
					"indexed": false,
					"internalType": "address",
					"name": "to",
					"type": "address"
				},
				{
					"indexed": false,
					"internalType": "uint256",
					"name": "burnAmount",
					"type": "uint256"
				},
				{
					"indexed": false,
					"internalType": "uint256",
					"name": "receivedAmount",
					"type": "uint256"
				}
			],
			"name": "RedeemedToToken",
			"type": "event"
		},
		{
			"anonymous": false,
			"inputs": [
				{
					"indexed": false,
					"internalType": "address",
					"name": "token",
					"type": "address"
				},
				{
					"indexed": false,
					"internalType": "uint256",
					"name": "index",
					"type": "uint256"
				}
			],
			"name": "TokenAdded",
			"type": "event"
		},
		{
			"anonymous": false,
			"inputs": [
				{
					"indexed": false,
					"internalType": "address",
					"name": "token",
					"type": "address"
				},
				{
					"indexed": false,
					"internalType": "uint256",
					"name": "index",
					"type": "uint256"
				}
			],
			"name": "TokenRemoved",
			"type": "event"
		},
		{
			"anonymous": false,
			"inputs": [
				{
					"indexed": true,
					"internalType": "address",
					"name": "from",
					"type": "address"
				},
				{
					"indexed": true,
					"internalType": "address",
					"name": "to",
					"type": "address"
				},
				{
					"indexed": false,
					"internalType": "uint256",
					"name": "value",
					"type": "uint256"
				}
			],
			"name": "Transfer",
			"type": "event"
		},
		{
			"inputs": [],
			"name": "HUNDRED_PERCENT",
			"outputs": [
				{
					"internalType": "uint24",
					"name": "",
					"type": "uint24"
				}
			],
			"stateMutability": "view",
			"type": "function"
		},
		{
			"inputs": [
				{
					"internalType": "address",
					"name": "owner",
					"type": "address"
				},
				{
					"internalType": "address",
					"name": "spender",
					"type": "address"
				}
			],
			"name": "allowance",
			"outputs": [
				{
					"internalType": "uint256",
					"name": "",
					"type": "uint256"
				}
			],
			"stateMutability": "view",
			"type": "function"
		},
		{
			"inputs": [
				{
					"internalType": "address",
					"name": "spender",
					"type": "address"
				},
				{
					"internalType": "uint256",
					"name": "value",
					"type": "uint256"
				}
			],
			"name": "approve",
			"outputs": [
				{
					"internalType": "bool",
					"name": "",
					"type": "bool"
				}
			],
			"stateMutability": "nonpayable",
			"type": "function"
		},
		{
			"inputs": [
				{
					"internalType": "address",
					"name": "account",
					"type": "address"
				}
			],
			"name": "balanceOf",
			"outputs": [
				{
					"internalType": "uint256",
					"name": "",
					"type": "uint256"
				}
			],
			"stateMutability": "view",
			"type": "function"
		},
		{
			"inputs": [],
			"name": "decimals",
			"outputs": [
				{
					"internalType": "uint8",
					"name": "",
					"type": "uint8"
				}
			],
			"stateMutability": "view",
			"type": "function"
		},
		{
			"inputs": [],
			"name": "feeTo",
			"outputs": [
				{
					"internalType": "address",
					"name": "",
					"type": "address"
				}
			],
			"stateMutability": "view",
			"type": "function"
		},
		{
			"inputs": [],
			"name": "getInitTokenAmountPerShares",
			"outputs": [
				{
					"internalType": "uint256[]",
					"name": "",
					"type": "uint256[]"
				}
			],
			"stateMutability": "view",
			"type": "function"
		},
		{
			"inputs": [
				{
					"internalType": "uint256",
					"name": "mintAmount",
					"type": "uint256"
				}
			],
			"name": "getInvestTokenAmounts",
			"outputs": [
				{
					"internalType": "uint256[]",
					"name": "tokenAmounts",
					"type": "uint256[]"
				}
			],
			"stateMutability": "view",
			"type": "function"
		},
		{
			"inputs": [
				{
					"internalType": "uint256",
					"name": "burnAmount",
					"type": "uint256"
				}
			],
			"name": "getRedeemTokenAmounts",
			"outputs": [
				{
					"internalType": "uint256[]",
					"name": "tokenAmounts",
					"type": "uint256[]"
				}
			],
			"stateMutability": "view",
			"type": "function"
		},
		{
			"inputs": [],
			"name": "getTokens",
			"outputs": [
				{
					"internalType": "address[]",
					"name": "",
					"type": "address[]"
				}
			],
			"stateMutability": "view",
			"type": "function"
		},
		{
			"inputs": [
				{
					"internalType": "address",
					"name": "to",
					"type": "address"
				},
				{
					"internalType": "uint256",
					"name": "mintAmount",
					"type": "uint256"
				}
			],
			"name": "invest",
			"outputs": [],
			"stateMutability": "nonpayable",
			"type": "function"
		},
		{
			"inputs": [],
			"name": "investFee",
			"outputs": [
				{
					"internalType": "uint24",
					"name": "",
					"type": "uint24"
				}
			],
			"stateMutability": "view",
			"type": "function"
		},
		{
			"inputs": [
				{
					"internalType": "address",
					"name": "to",
					"type": "address"
				},
				{
					"internalType": "uint256",
					"name": "mintAmount",
					"type": "uint256"
				},
				{
					"internalType": "bytes[]",
					"name": "swapPaths",
					"type": "bytes[]"
				}
			],
			"name": "investWithETH",
			"outputs": [],
			"stateMutability": "payable",
			"type": "function"
		},
		{
			"inputs": [
				{
					"internalType": "address",
					"name": "srcToken",
					"type": "address"
				},
				{
					"internalType": "address",
					"name": "to",
					"type": "address"
				},
				{
					"internalType": "uint256",
					"name": "mintAmount",
					"type": "uint256"
				},
				{
					"internalType": "uint256",
					"name": "maxSrcTokenAmount",
					"type": "uint256"
				},
				{
					"internalType": "bytes[]",
					"name": "swapPaths",
					"type": "bytes[]"
				}
			],
			"name": "investWithToken",
			"outputs": [],
			"stateMutability": "nonpayable",
			"type": "function"
		},
		{
			"inputs": [],
			"name": "minMintAmount",
			"outputs": [
				{
					"internalType": "uint256",
					"name": "",
					"type": "uint256"
				}
			],
			"stateMutability": "view",
			"type": "function"
		},
		{
			"inputs": [],
			"name": "name",
			"outputs": [
				{
					"internalType": "string",
					"name": "",
					"type": "string"
				}
			],
			"stateMutability": "view",
			"type": "function"
		},
		{
			"inputs": [],
			"name": "owner",
			"outputs": [
				{
					"internalType": "address",
					"name": "",
					"type": "address"
				}
			],
			"stateMutability": "view",
			"type": "function"
		},
		{
			"inputs": [
				{
					"internalType": "address",
					"name": "to",
					"type": "address"
				},
				{
					"internalType": "uint256",
					"name": "burnAmount",
					"type": "uint256"
				}
			],
			"name": "redeem",
			"outputs": [],
			"stateMutability": "nonpayable",
			"type": "function"
		},
		{
			"inputs": [],
			"name": "redeemFee",
			"outputs": [
				{
					"internalType": "uint24",
					"name": "",
					"type": "uint24"
				}
			],
			"stateMutability": "view",
			"type": "function"
		},
		{
			"inputs": [
				{
					"internalType": "address",
					"name": "to",
					"type": "address"
				},
				{
					"internalType": "uint256",
					"name": "burnAmount",
					"type": "uint256"
				},
				{
					"internalType": "uint256",
					"name": "minETHAmount",
					"type": "uint256"
				},
				{
					"internalType": "bytes[]",
					"name": "swapPaths",
					"type": "bytes[]"
				}
			],
			"name": "redeemToETH",
			"outputs": [],
			"stateMutability": "nonpayable",
			"type": "function"
		},
		{
			"inputs": [
				{
					"internalType": "address",
					"name": "dstToken",
					"type": "address"
				},
				{
					"internalType": "address",
					"name": "to",
					"type": "address"
				},
				{
					"internalType": "uint256",
					"name": "burnAmount",
					"type": "uint256"
				},
				{
					"internalType": "uint256",
					"name": "minDstTokenAmount",
					"type": "uint256"
				},
				{
					"internalType": "bytes[]",
					"name": "swapPaths",
					"type": "bytes[]"
				}
			],
			"name": "redeemToToken",
			"outputs": [],
			"stateMutability": "nonpayable",
			"type": "function"
		},
		{
			"inputs": [],
			"name": "renounceOwnership",
			"outputs": [],
			"stateMutability": "nonpayable",
			"type": "function"
		},
		{
			"inputs": [
				{
					"internalType": "address",
					"name": "feeTo_",
					"type": "address"
				},
				{
					"internalType": "uint24",
					"name": "investFee_",
					"type": "uint24"
				},
				{
					"internalType": "uint24",
					"name": "redeemFee_",
					"type": "uint24"
				}
			],
			"name": "setFee",
			"outputs": [],
			"stateMutability": "nonpayable",
			"type": "function"
		},
		{
			"inputs": [],
			"name": "swapRouter",
			"outputs": [
				{
					"internalType": "address",
					"name": "",
					"type": "address"
				}
			],
			"stateMutability": "view",
			"type": "function"
		},
		{
			"inputs": [],
			"name": "symbol",
			"outputs": [
				{
					"internalType": "string",
					"name": "",
					"type": "string"
				}
			],
			"stateMutability": "view",
			"type": "function"
		},
		{
			"inputs": [],
			"name": "totalSupply",
			"outputs": [
				{
					"internalType": "uint256",
					"name": "",
					"type": "uint256"
				}
			],
			"stateMutability": "view",
			"type": "function"
		},
		{
			"inputs": [
				{
					"internalType": "address",
					"name": "to",
					"type": "address"
				},
				{
					"internalType": "uint256",
					"name": "value",
					"type": "uint256"
				}
			],
			"name": "transfer",
			"outputs": [
				{
					"internalType": "bool",
					"name": "",
					"type": "bool"
				}
			],
			"stateMutability": "nonpayable",
			"type": "function"
		},
		{
			"inputs": [
				{
					"internalType": "address",
					"name": "from",
					"type": "address"
				},
				{
					"internalType": "address",
					"name": "to",
					"type": "address"
				},
				{
					"internalType": "uint256",
					"name": "value",
					"type": "uint256"
				}
			],
			"name": "transferFrom",
			"outputs": [
				{
					"internalType": "bool",
					"name": "",
					"type": "bool"
				}
			],
			"stateMutability": "nonpayable",
			"type": "function"
		},
		{
			"inputs": [
				{
					"internalType": "address",
					"name": "newOwner",
					"type": "address"
				}
			],
			"name": "transferOwnership",
			"outputs": [],
			"stateMutability": "nonpayable",
			"type": "function"
		},
		{
			"inputs": [
				{
					"internalType": "uint256",
					"name": "newMinMintAmount",
					"type": "uint256"
				}
			],
			"name": "updateMinMintAmount",
			"outputs": [],
			"stateMutability": "nonpayable",
			"type": "function"
		},
		{
			"inputs": [],
			"name": "weth",
			"outputs": [
				{
					"internalType": "address",
					"name": "",
					"type": "address"
				}
			],
			"stateMutability": "view",
			"type": "function"
		},
		{
			"stateMutability": "payable",
			"type": "receive"
		}
	]
}